:100000000C9428020C9462190C943B190C948D08E2
:100010000C942A080C94B9070C947E1F0C9456205B
:100020000C9450020C946E210C9450020C945002CB
:100030000C9450020C9498210C9450020C94500291
:100040000C94F1180C9450020C94F1170C94CB17EB
:100050000C9450020C9450020C9450020C945002D8
:100060000C94381A0C94500207634236B79BD8A7F9
:100070001A39685618AEBAAB558C1D3CB7CC5763CD
:10008000BD6DEDFD753EF6177231BF000000803F7B
:1000900008000000BE922449123EABAAAA2ABECD97
:1000A000CCCC4C3E00000080BEABAAAAAA3E000009
:1000B0000000BF000000803F000000000008417801
:1000C000D3BB4387D1133D190E3CC3BD4282AD2B38
:1000D0003E68EC8276BED98FE1A93E4C80EFFFBE30
:1000E00001C4FF7F3F00000000004261747465722C
:1000F000792073657420637269743A2000426174D8
:100100007465727920736574206C6F773A202000D3
:10011000202D20726561647900002E0206030D0413
:10012000E905CA070C0B060D210E650F6A10C811F0
:1001300093120315341703181819161B431E2F1F8B
:1001400065207823E9242A251F26113E0331004328
:100150004320696E6974000A00496E697420537403
:100160006F726167653A20000A0B0C05121420219A
:1001700022230D0A000D0A004572726F723A206E3A
:100180006F20424D453238302F424D5032383020AA
:1001900073656E736F7220666F756E6400424D50AA
:1001A00032383020666F756E6420284E6F20487597
:1001B0006D696469747920617661696C61626C65EE
:1001C0002900424D4532383020666F756E64004319
:1001D0006C6F636B205254430053657269616C3AD3
:1001E000200053656E736F722073657475702064A0
:1001F0006F6E65000000000023002600290000014A
:1002000002030405060700010203040500010203BE
:1002100004050404040404040404020202020202A9
:1002200003030303030301020408102040800102BA
:100230000408102001020408102041736B53696EFA
:100240002B2B2056332E312E3820284D617920203B
:100250003920323031392031333A31383A3030298F
:10026000003000303000303030003030303000307E
:1002700030303030003030303030300030303030DE
:10028000303030002000202D2000200020002000F1
:10029000200020002000746D426174746572792022
:1002A0004572726F7200746D426174746572792068
:1002B000566F6C746167653A20000A00424D453202
:1002C000383020202048756D6964697479202020B9
:1002D0002020203A2000424D453238302020205046
:1002E000726573737572654E4E202020203A20008F
:1002F000424D45323830202020507265737375723C
:10030000652020202020203A2000424D4532383000
:1003100020202054656D70657261747572652020AF
:10032000203A200000206C6F6E6772656C65617307
:10033000656400206C6F6E6770726573736564002E
:10034000206465626F756E636500207072657373FB
:100350006564002072656C656173656400424F4F8F
:10036000544C4F414445520069676E6F72652000DE
:10037000484156452044415441002D3E2000746DB3
:10038000426174746572794C6F6164204572726F5A
:100390007200746D426174746572794C6F6164208F
:1003A000566F6C746167653A2000A5A502554E49E9
:1003B00053454E5330303100F103127001010000FB
:1003C0000000240027002A0000000000250028006B
:1003D0002B000000000800020100000304070000D9
:1003E0000000000000000A000A000A000A002D3E7A
:1003F0002000007761697441636B3A20003C2D2036
:100400000052455345540000000000000000000267
:100410001405050000000002010A010000000000B0
:1004200000000000000000000000000000000006C6
:100430000305010101010A060101010501050A0286
:10044000060202000000000A000A00009A2C3A2E60
:1004500011241FBECFEFD8E0DEBFCDBF12E0A0E079
:10046000B1E0EEEBFBE602C005900D92A43EB107B1
:10047000D9F725E0A4EEB2E001C01D92A33FB20778
:10048000E1F712E0C7E2D2E004C02197FE010E942A
:100490009034C632D107C9F70E94F0250C94D235AA
:1004A0000C9400000F931F93CF938C0140E062E205
:1004B0000E94761CC82F40E063E2C8010E94761CAF
:1004C0002C2F30E0322F2227A901480F511DCA01DD
:1004D000CF911F910F9108950F931F93CF938C018C
:1004E00040E060E20E94761CC82F40E061E2C80153
:1004F0000E94761C2C2F30E0322F2227A901480FB2
:10050000511DCA01CF911F910F910895FF920F9332
:100510001F93CF93DF938C0187E392E00E94B81C76
:1005200087E494E00E94BA1CE801EA96CE010E949A
:100530005D1CF82E8DE492E00E94B81C8F2D0E9465
:10054000D31C40E062E1CE010E94761CF82E87E5C4
:1005500092E00E94B81C8F2D0E94D31CF8010281EA
:100560001381F801F0A28DEF90E00E94BA1CF8010F
:1005700080A10E94D31C46E064E1CE010E94761C5B
:10058000882311F0182F01C011E085E692E00E9447
:10059000B81C812F0E94D31CCE010E946C028C01DA
:1005A00089E792E00E94B81CC8010E94BC1CCE01E1
:1005B0000E945202EC0184E892E00E94B81CCE0135
:1005C000DF91CF911F910F91FF900C94BC1C0C9464
:1005D0002E350C942E350C942E350F931F93CF93FC
:1005E000DF93EC018B01E881F9810680F781E02D32
:1005F00009959C878B878D859E85AF85B8898D836E
:100600009E83AF83B887BE01C801DF91CF911F9150
:100610000F910C948E20CF92DF92EF92FF928091F7
:100620007C00807380937C0080917C008064809348
:100630007C0080917C008E6080937C0082E390E05F
:100640000E944E220097A9F09C0140E050E060E03B
:1006500070E381E190E00E94012F69017A0186EA4E
:1006600092E00E94BA1CC701B6010E94CC1CC601D0
:1006700006C086E992E00E94BA1C80E090E0FF90FC
:10068000EF90DF90CF90089520E831E0FC013183B6
:1006900020830C94D81BCF93DF93EC010E9444037A
:1006A000CE01DF91CF910C942E350895E8E6F1E06C
:1006B00090E02491821731F09F5F31969A30C9F70C
:1006C0008FEF0895892F08950895862728E0BC01AB
:1006D00076956795AC014170552780FF02C041E0D7
:1006E00050EACA0186279727215089F7089508956F
:1006F000FC011082118212821382168215821482EA
:10070000118610861782128613860895FC01808157
:10071000811109C08181811106C081E0928191110E
:1007200003C080E0089581E00895DC01FB019C9105
:10073000808198130BC011969C9111978181981319
:1007400005C081E012962C919281291380E00895D2
:100750002F923F924F925F926F927F928F929F92D1
:10076000AF92BF92CF92DF92EF92FF920F931F93BF
:10077000CF93DF93CDB7DEB728970FB6F894DEBFDF
:100780000FBECDBF8C012B01DC011996ED91FC91C0
:100790001A97D680D394D6821996ED91FC911A9728
:1007A000848195810E9452027801B6E4EB0EF11C1F
:1007B000F701178216821582148213821282118227
:1007C0002081222309F446C0BC01C7010E946D109C
:1007D0008AE093E00E94BA1CD70111968D909C90FC
:1007E0001297092C000CAA08BB08B7FE0EC06DE2D8
:1007F0008BE693E00E94831666277727CB01681962
:1008000079098A099B094AE003C04AE0C501B4019D
:100810000E948F0F8AEB92E00E94BA1C80EF92E058
:100820000E94BA1CF701838194810E94BC1C86ED52
:1008300092E00E94BA1CD70115968D919C91169753
:100840000E94BC1C8CEB92E00E94BA1CF7018781CD
:100850000E94D31CF801E95BFF4F80819181D80190
:10086000DA969C938E93D997349680819181F80182
:1008700094AF83AFE35BFF4F8081DD968C9378016B
:10088000B3E8EB0EF11CF70111821282138214827D
:100890008081882309F483C081E0809347039AE430
:1008A000992E909269031092480310926A0383E094
:1008B00090E00E9468100E94861540E061E08AE4A2
:1008C0000E94AE25C82E1092EB028093EA02F1E05E
:1008D0008F1365C088E094E00E94D91E5C01C0922D
:1008E0004703909269031092480310926A0384E0D0
:1008F00090E00E9468100E94861541E061E08AE461
:100900000E94AE251092EB028093EA02813009F03A
:1009100046C088E094E00E94D91EC82E6A2D6295D8
:100920006F7070E080E090E00E9449309B01AC0164
:1009300060E070E080E090E40E9442313B014C01B5
:10094000B50184E0660F771F8A95E1F7607F77270E
:100950008C2D8F70682B072E000C880B990B0E9432
:100960004930A40193010E94D5302CEE31E548E3D3
:100970005DE30E94D5300E941830D70111966D9327
:100980007D938D939C9314978FE892E00E94B81CFE
:10099000F70161817281838194810E94CC1CD7010F
:1009A0001196CC9011971296BC9012971396AC901A
:1009B000139714969C90F801FE96C082B182A28291
:1009C0009382F801E184F284D7011296ED91FC91B3
:1009D000139732A143A1D801AD5BBF4F3C93119651
:1009E0004C93119711972C90D801DD963C90DD9790
:1009F000DB966C90DB97DC967C90DC97D9968C909C
:100A0000D997DA962C912F77E0A1F0E0832F942FDD
:100A100064E670E00E94E3326E177F0708F42068F6
:100A20008D2D64E10E94D732923011F084E001C034
:100A300082E295E1F801978790E7928B818B218F75
:100A4000D08A828E738E648E358E968EA78EB0A2DB
:100A5000C1A222A243A334A35801FFE0AF0EB11CF0
:100A6000312CC12CD12C480129E0820E911C380177
:100A700083E1680E711C4C2DB401CE0105960E94D5
:100A80000216CE0105960E948603882309F48AC0C7
:100A9000212C422DB401CE0101960E940216BE0106
:100AA0006F5F7F4FCE0105960E949503811106C0AE
:100AB0002394A6E02A12EDCF4FEF01C0422D50E063
:100AC0004C155D050CF46EC01B821A821982BE01A2
:100AD0006F5F7F4FF70187A990AD0E942F22BE0163
:100AE0006F5F7F4FCE0105960E9495038823E1F149
:100AF000B301D701D7968D919C91D8970E942F2250
:100B0000F8018389868B8489878B8589808F6DE145
:100B100074E0C3010E949503882341F0D8015196E7
:100B20008C9151978F7D846051968C93F8018189C7
:100B300085FF10C08F7D818BD701ED91FC910680E0
:100B4000F781E02DB501C7010995F801818980621F
:100B5000818B28C0D701ED91FC910680F781E02DB3
:100B6000B501C70109951EC0AE014B5F5F4FB401CF
:100B7000CE0101960E944A2389819A810E94AC226B
:100B8000F801918980FF03C09061918B02C09F7E24
:100B9000918BAE014B5F5F4FB501C7010E94DE1C18
:100BA00033243394BFEFCB1ADB0AE6E0CE16D10430
:100BB00009F061CF311010C0D70114966D917C916E
:100BC0001597CE0101960E94911CAE014F5F5F4FB9
:100BD000B501C7010E94DE1CD8011996ED91FC9168
:100BE0001A97848195810E946C02A0E0B0E0F80120
:100BF00085839683A783B087B801C2010E948E20A7
:100C0000F801EB5BFF4F81E0808328960FB6F894E4
:100C1000DEBF0FBECDBFDF91CF911F910F91FF902F
:100C2000EF90DF90CF90BF90AF909F908F907F908C
:100C30006F905F904F903F902F900895FC0133810B
:100C4000FB012381321302C00C94950380E00895C8
:100C5000CF93DF9300D000D0CDB7DEB7FC01808901
:100C60009485998395859A8396859B838C83882325
:100C700059F0BF01645F7F4FCE0101960E941E06AE
:100C8000811102C082E001C081E00F900F900F90AF
:100C90000F90DF91CF910895FC019FB7F894718375
:100CA00060839FBF08952FB7F894FC0180819181E4
:100CB0002FBF08958F929F92AF92BF92CF92DF92F3
:100CC000EF92FF92CF93DF93EC016A017B0185E203
:100CD00094E00E9453060097E1F00297812C912C3A
:100CE00054010097B1F0FC01458156816781708500
:100CF000840E951EA61EB71EC817D90769F0029666
:100D00000E945306009719F480E090E0EACF029722
:100D1000E8CF812C912C54018C149D04AE04BF04A7
:100D2000C0F481E08987CE010E94EB0FCD82DE8284
:100D3000EF82F886BE0185E294E0DF91CF91FF90CB
:100D4000EF90DF90CF90BF90AF909F908F900C94DA
:100D50008E20DF91CF91FF90EF90DF90CF90BF90EA
:100D6000AF909F908F900895EF92FF920F931F93F3
:100D7000CF93DF93EC01EFB6F8940E9453068C01F9
:100D8000892B61F0FFB6F894CE010E9453060E94B1
:100D90005306BC01CE010E944C06FFBEEFBEC80147
:100DA000DF91CF911F910F91FF90EF900895CF9316
:100DB000DF93EC0102960E94B406009761F002975F
:100DC00051F0DC01ED91FC910190F081E02DBE012C
:100DD000099581E001C080E0DF91CF910895CF9225
:100DE000DF92EF92FF926B017C0180E1C816D10483
:100DF000E104F10418F48CE792E036C08FEFC816D6
:100E0000D104E104F10409F018F485E792E02CC064
:100E1000C11480E1D806E104F10418F48FE692E0F1
:100E200023C0C114D10481E0E806F10418F48AE675
:100E300092E01AC0C114D10480E1E806F10418F46C
:100E400086E692E011C0C114D104E10481E0F80605
:100E500018F483E692E008C0C114D104E10480E1F3
:100E6000F80620F481E692E00E94D00F40E1C7012D
:100E7000B601FF90EF90DF90CF900C948F0FCF933F
:100E8000C82F803128F460E38BE693E00E9483163C
:100E90006C2F70E080E090E040E1CF910C948F0FD8
:100EA000EF92FF920F931F93CF93DF93EC01888112
:100EB0000E943F0784E992E00E94BA1C89810E9447
:100EC0003F0782E992E00E94BA1C8A810E943F0794
:100ED00080E992E00E94BA1C8B810E943F078EE855
:100EE00092E00E94BA1C8C810E943F078D810E9473
:100EF0003F078E810E943F078CE892E00E94BA1C57
:100F00008F810E943F0788850E943F0789850E9444
:100F10003F078AE892E00E94BA1C088109502A968D
:100F20007E0110E0C7018C1B9D0B8017910754F4C4
:100F3000F70181917F010E943F0784E892E00E94BF
:100F4000BA1CF0CF86E892E00E94BA1C2FB7F89442
:100F50006091830570918405809185059091860547
:100F60002FBFDF91CF911F910F91FF90EF900C94C5
:100F7000CC1C1F920F920FB60F9211242F933F9308
:100F80004F935F936F937F938F939F93AF93BF9391
:100F9000CF93EF93FF9329B1C091EC0280911A0394
:100FA00090911703322F309593238223892B9091B0
:100FB0006D00C227C923C8232093EC02CC23C1F1C2
:100FC000C0FF05C0E091ED02F091EE020995C1FF6E
:100FD00005C0E091EF02F091F0020995C2FF05C053
:100FE000E091F102F091F2020995C3FF05C0E09192
:100FF000F302F091F4020995C4FF05C0E091F502F7
:10100000F091F6020995C5FF05C0E091F702F09155
:10101000F8020995C6FF05C0E091F902F091FA02C5
:101020000995C7FF05C0E091FB02F091FC0209950C
:10103000FF91EF91CF91BF91AF919F918F917F9150
:101040006F915F914F913F912F910F900FBE0F9035
:101050001F9018951F920F920FB60F9211242F9385
:101060003F934F935F936F937F938F939F93AF9330
:10107000BF93CF93EF93FF9326B1C091FD02809170
:101080001B0390911803322F309593238223892BD1
:1010900090916C00C227C923C8232093FD02CC2362
:1010A00051F1C0FF05C0E091FE02F091FF020995E9
:1010B000C1FF05C0E0910003F09101030995C2FF53
:1010C00005C0E0910203F09103030995C3FF05C039
:1010D000E0910403F09105030995C4FF05C0E09178
:1010E0000603F09107030995C5FF05C0E0910803C9
:1010F000F09109030995FF91EF91CF91BF91AF91C5
:101100009F918F917F916F915F914F913F912F911F
:101110000F900FBE0F901F9018951F920F920FB651
:101120000F9211242F933F934F935F936F937F936D
:101130008F939F93AF93BF93CF93EF93FF9323B17D
:10114000C0910A0380911C0390911903322F3095AE
:1011500093238223892B90916B00C227C923C82334
:1011600020930A03CC2351F1C0FF05C0E0910B038B
:10117000F0910C030995C1FF05C0E0910D03F091BA
:101180000E030995C2FF05C0E0910F03F091100313
:101190000995C3FF05C0E0911103F0911203099571
:1011A000C4FF05C0E0911303F09114030995C5FF36
:1011B00005C0E0911503F09116030995FF91EF9199
:1011C000CF91BF91AF919F918F917F916F915F91DF
:1011D0004F913F912F910F900FBE0F901F90189538
:1011E000FC0111860895813011F08FEF089580E0A1
:1011F0000895CF92DF92EF92FF92CF93DF93EC01AD
:1012000080917C00807380937C0080917C00806C56
:1012100080937C0090917C0089898E508F70892BFF
:1012200080937C0061E08A890E944C188D899E8998
:101230000E944E227C0160E08A890E944C18E114D1
:10124000F104E9F02B893C89ABE0B0E00E94232F48
:101250009B01AC01D7010E94EE2E20E038E240E075
:1012600050E00E94012F69017A0182E993E00E9417
:10127000BA1CC701B6010E94CC1CC60106C08EE78D
:1012800093E00E94BA1C80E090E0DF91CF91FF9044
:10129000EF90DF90CF9008950F931F93CF938C0121
:1012A000C62F643091F038F4623061F0633099F405
:1012B0008AE493E012C0653059F0663061F485E24B
:1012C00093E00BC083E593E008C080E493E005C0A1
:1012D00083E393E002C084E293E00E94C61CC770DF
:1012E000F8018185887FC82BC187CF911F910F910D
:1012F00008951F93CF93DF93EC01FB012985922F73
:101300009770943061F028F4923039F0933079F08E
:1013100030C0953061F0963061F511E01BC023FDBF
:101320000CC04B855C854550510913E01EC023FD60
:1013300020C04B855C8515E018C045E050E012E008
:1013400060E070E04D835E836F837887BE01CF01DC
:101350000E948E20E881F9810680F781E02D612FBF
:10136000CE01DF91CF911F9109944115510541F7AD
:10137000F1CFDF91CF911F9108952F923F924F921D
:101380005F926F927F928F929F92AF92BF92CF9215
:10139000DF92EF92FF920F931F93CF93DF93CDB71E
:1013A000DEB7E4970FB6F894DEBF0FBECDBF7C0169
:1013B0008B0119AA18AA1FA6BE01615D7F4FDC012F
:1013C000D7968D919C91D8970E942F221801B7E053
:1013D0002B0E311CBE01615D7F4FC1010E94950340
:1013E000C82E882349F1F701C280D3805601FAE361
:1013F000AF0EB11CC5010E94EB0FF601FF968AE00B
:1014000090E0A0E0B0E080839183A283B383349620
:1014100081E08083B50185E294E00E948E208AE716
:1014200093E00E94BA1CC8010E945007D80112968E
:101430008C9186FD39C04AC0F80180818983818101
:101440008A83B280BB82D380DC8284818D83858154
:101450008E8386818F838781888780858987818530
:101460008A8782858B87A384AC868EE13C96DE01D9
:101470001D9601900D928A95E1F76DE174E0CE0121
:1014800008960E949503882339F0F1E0DF1204C02A
:101490002AE0A21609F4A7CFB2FE39C480EC8D0D64
:1014A000823008F034C49FCFB8016C5F7F4FC70112
:1014B00007960E949503882349F0D7011A969C91BC
:1014C000F8018181981302C0C12C28C4F8018481DD
:1014D000D70117968C931797858118968C93189738
:1014E000868119968C93199781811A968C93938192
:1014F000B28483859130E9F48A3009F0ABC0D7011A
:10150000D7966D917C91D8976D5F7F4F4AE050E000
:10151000CE0101960E949E2E4AE050E0BE016F5F10
:101520007F4FC8010C960E94BC35892B09F474C109
:1015300095C09131C1F5F4E0BF1619F02AECB21252
:1015400029C08AE0D8018C9382E013968C9313977C
:1015500012961C9212971A961C92A8014C5F5F4F2C
:10156000B801C7010E94DE1CBAECBB120FC08DE5AA
:1015700093E00E94C61C9CE088E10FB6F894A89501
:10158000809360000FBE90936000FFCFC7010E9460
:10159000FC225EC1882309F45BC1F70191AD981765
:1015A00008F456C169C3923139F480E793E00E9490
:1015B000C61CC12CD12CECC09054923008F04EC007
:1015C00044244394512CC12CD12C92E0792ED70184
:1015D000D9968C91D9978415C0F1DC968D909C900A
:1015E000DD97F401838581FD2EC0D8011A968C9178
:1015F0001A978F7314969C9114979BA715969C919C
:1016000015979CA716969C919DA78EA75401B9E0AB
:10161000AB0EB11C612C462DB501CE0101960E9486
:101620000216BE016F5F7F4FCE018B960E941E0691
:10163000811105C06394E6E06E12EDCF04C05394AF
:101640006401772473944394C2CFF1E0F51508F454
:101650006BC0A0C0813039F4B11069C0C12CD12C4D
:1016600082E0782E97C0823009F4F5C0833009F407
:10167000FBC0843009F08FC1D80150962C91A8018D
:10168000445F5F4F6B2DC7010E94132529833A8366
:101690004B835C836D837E838F83E981FA81FCAB0E
:1016A000EBABEF2B09F474C1D80111968C91119713
:1016B00014969C9114979BA715969C9115979CA79F
:1016C00016969C919DA72701BBE04B0E511C9AE1F9
:1016D000F701938790E1968790E2958792E0958B4A
:1016E00084873701F6E16F0E711C6301A12CB12CC8
:1016F0001AAA8B8190E0A816B9060CF420C1360115
:10170000D3011C9211961C928AA9880F845FF7015D
:10171000838785858F7D8587AE01455D5F4FB201EB
:10172000C7010E94DE1C712CC12CD12C33C0F701E3
:1017300081AD8B1508F492CFC4ACD5ACC8010E9422
:101740002806F8013C964F019601275F3F4F59014B
:10175000813009F0D4C1B401C5010E94D124C50172
:101760000E94AB24782EFFEF8F1709F479CF682FF2
:10177000C6010D960E94202244E050E0BC01C40145
:101780000E94B72E472DB501CE0101960E948623F7
:1017900077247394D80112968C9185FF2EC0BE01D8
:1017A000615D7F4FC1010E949503882331F191E073
:1017B00079129BC2A8014C5F5F4FC114D10409F498
:1017C00087C2D7011296ED91FC91139781AD9EE0EF
:1017D000F801908392E0938312827286D6011C9660
:1017E0009C919387148615868687B801C7010E944D
:1017F000DE1CF60183858E7F8387D70112968D913B
:101800009C91139742E350E060E070E08E960E9456
:101810005A06CC24C39482C2F7018281938161E08D
:1018200070E002960E947F24D70112968D919C91C0
:10183000139740ED57E060E070E08E960E945A06E4
:10184000F8014081B8016C5F7F4FC7010E94BE2242
:10185000C12CD12C3BC2BB2009F400CFF70181ADD4
:101860008B1508F4FBCEAAC1BB2091F3F70181AD23
:101870008B1570F3F70164AC75ACD80111968C919F
:10188000119714962C9114972BA715962C911597B8
:101890002CA716962C912DA75701BBE0AB0EB11CBF
:1018A0002AE1238720E1268720E22587958B8487FC
:1018B0004701E6E18E0E911C6401512C412CF9E0A8
:1018C0006F0E711C442DB301CE0101960E940216C9
:1018D000CE0101960E9486038823D1F084E0FE01A8
:1018E0003196D60101900D928A95E1F7F4E0CF0E82
:1018F000D11C539424E052120BC0AE01455D5F4FE2
:10190000B501C7010E94DE1C6401512C882321F01F
:10191000439436E04312D6CF84E0D6011D928A95D7
:10192000E9F7852D880F880F825FF701838785850A
:101930008F7D8587AE01455D5F4FB501ABC0EC8102
:10194000FD818A2D0995D6018C934601B2E08B0E5C
:10195000911C8BA99CA98A0D9B1D0E94AC22F601AB
:101960008183FAA9FF5FFAABF83059F4AE01455D07
:101970005F4FB201C7010E94DE1C882339F043018A
:101980001AAA2FEFA21AB20A6401B3CE1AAAB8CECD
:1019900032E0732EC9CE8E3069F5D701DC96CD903A
:1019A000DC90DD97F80131811296ED91FC9113974F
:1019B00091ADD6011C962C91F701838780E1868733
:1019C00086E0858B3487268B178A108E918F82E074
:1019D0008587A8014C5F5F4FB701655F7F4FC701E7
:1019E0000E94DE1CD6011B968C911B978E7F1B9646
:1019F0008C932ECF8530E1F4F701B6AED801509626
:101A00002C91A801445F5F4F6B2DC7010E941325E5
:101A1000F70127AFE05CFF4F30833196408331966A
:101A20005083319660833196708331968083C1CD27
:101A30008630A1F5F701FF9620813181D701DA9632
:101A40008D919C91DB972817390789F412968D9117
:101A50009C91139760E070E002960E947F24D7016A
:101A6000ED91FC910480F581E02DC70109958FEF80
:101A7000F70186AF8AE0D8018C9382E013968C93AD
:101A8000139712968C9312971A961C92A8014C5F8A
:101A90005F4FB801C7010E94DE1CDACE883079F4AE
:101AA000F70186AD8B1185CD4701FFE38F0E911CA9
:101AB000D4018D919C91892B09F0ACC07ACD8930ED
:101AC00009F0CCCDD80111968C9194E1F701938760
:101AD00090E196871586158A8487168A67A970AD66
:101AE0006D5F7F4F4AE050E0C70146960E949E2EF0
:101AF000A8014C5F5F4FB701655F7F4FCBCFD80127
:101B000050968C9150971C969C911C9799831D968A
:101B10009C911D979A831E969C919B838C83B40104
:101B2000C5010E94D124BE016F5F7F4FC5010E9495
:101B3000D124C5010E94AB24582EBFEF8B1709F4A6
:101B40008FCD3601EDE06E0E711C682FC3010E942F
:101B5000202244E050E0BC01C4010E94B72EC50120
:101B60000E94AB24482EFFEF8F1719F1682FC30195
:101B70000E94202244E050E0BC01CE0101960E9468
:101B8000B72ED8011F968C9180FF08C0452DB50156
:101B9000CE018B960E948623442D07C0442DB501AB
:101BA000CE018B960E948623452DB501CE018B96E2
:101BB000EDCDB401C5010E94D12452CDC4ACD5AC49
:101BC0004601B9E08B0E911CB801645F7F4FC401E0
:101BD0000E94D124B82EC8010E9428068230B9F490
:101BE000D80150968C9150971C969C911C97998384
:101BF0001D969C911D979A831E969C919B838C8326
:101C0000BE016F5F7F4FC4010E94D124B822B11082
:101C1000BFCD26CDD8018C918B3060F125EF522EAF
:101C2000580E5801BCE0AB0EB11C65013701E4E46D
:101C30006E0E711C8C2D8A19851508F0BACCD60150
:101C400011964C90D301ED91FC91D6018C910995A0
:101C50008F3F61F0F40160817181680F711D4982CD
:101C600041E050E0CE0101960E94B72EF2E0CF0E87
:101C7000D11CE0CF512CD5CFF701C4ACD5ACF2E0EC
:101C8000BF1204C0D6011B968C910BC0FB1560F4EB
:101C900033E0B31609F47CCD80E8B81217C0F60122
:101CA000838581FFDDCC12C0B11008C0D6011B9620
:101CB0008C911B978D7F1B968C936ACD21E0B2127D
:101CC00005C0F60183858260838762CD712C62CD69
:101CD0008AE0D8018C9382E013968C931397129626
:101CE0001C9212971A961C920DC0B2E07B1285CD01
:101CF0008AE0F80180837382128280E88287A801DB
:101D00004C5F5F4FB801C7010E94DE1C76CD88E6AC
:101D100093E00E94BA1CC8010E9450078C2DE496E3
:101D20000FB6F894DEBF0FBECDBFDF91CF911F91EC
:101D30000F91FF90EF90DF90CF90BF90AF909F906A
:101D40008F907F906F905F904F903F902F9008956D
:101D5000EF92FF920F931F93CF93DC0119960D9191
:101D60001C911A97F80182850E942318D8011996B0
:101D7000CC911997C3FBEE24E0F8F12C9C0133279A
:101D8000E216F306E1F180FBC3F91996CC93C77014
:101D9000C33029F0C53019F0C130D9F408C0F801BA
:101DA000818583FF16C0C33041F1C6E001C0C4E0A5
:101DB000C8010E94EB0F85E090E0A0E0B0E0F801E0
:101DC00085839683A783B087B80185E294E00E945B
:101DD0008E20D80119968C91199787708C1779F0FD
:101DE000ED91FC910680F781E02D6C2FC801CF9119
:101DF0001F910F91FF90EF900994C2E0D9CFCF913E
:101E00001F910F91FF90EF900895EF92FF920F9323
:101E10001F93CF93DF9300D01F92CDB7DEB78C0115
:101E2000E62EFC0181858770F82EC8010E944C09BE
:101E3000F2E0EF1227C0F801008D118DF801F68055
:101E4000F394F68264817581CE0101960E94911C03
:101E50004F2DBE016F5F7F4FC8010E94BE22F80167
:101E60008281938161E070E002960E947F24F801F4
:101E70008281938140ED57E060E070E08E960E9491
:101E80005A0614C0F5E0EF1211C0F801808D918D53
:101E9000F5E0FF1203C00E94FC2208C0FC01828111
:101EA000938167E070E002960E947F240F900F906C
:101EB0000F90DF91CF911F910F91FF90EF900895B8
:101EC00008950C942E35FF920F931F93CF93DF93B9
:101ED000EC018B01FFB6F8940E945306BC01C801C7
:101EE0000E944C06B801CE010E944C06FFBEDF9155
:101EF000CF911F910F91FF900895009769F0FC0119
:101F000001900020E9F73197AF01481B590BBC0144
:101F10008BE693E00C94202380E090E008958F926C
:101F20009F92AF92BF920F931F93CF93DF93CDB742
:101F3000DEB7A1970FB6F894DEBF0FBECDBF19A2D2
:101F4000423008F44AE08E010F5D1F4F842E912C21
:101F5000A12CB12CA50194010E94012FE62FB901FB
:101F6000CA0101501109EA3014F4E05D01C0E95CD6
:101F7000D801EC93232B242B252B61F7C8010E9459
:101F80007D0FA1960FB6F894DEBF0FBECDBFDF91D7
:101F9000CF911F910F91BF90AF909F908F90089518
:101FA0000F931F93CF93DF938C01C0E0D0E0F80133
:101FB000EC0FFD1F6491662341F08BE693E00E94D5
:101FC0008316892B11F02196F2CFCE01DF91CF91AC
:101FD0001F910F910895AF92BF92CF92DF92FF921F
:101FE0000F931F93CF93DF935C01FFB6F89485E2C4
:101FF00094E00E9453060097A9F1EC01229705E2B4
:1020000014E0209779F1CE0102966C01CA15DB0528
:10201000F1F4C8010E94B406C6010E94530600975D
:1020200009F44BC0FC01329709F447C04581568141
:10203000678170858D819E81AF81B885840F951FE2
:10204000A61FB71F85839683A783B08736C08C01F0
:102050000E945306009719F4C0E0D0E0D2CFEC0103
:102060002297CFCF92E0A90EB11CDFB6F894CFB67D
:10207000F89487E294E00E945306EC0127E234E0F2
:10208000209751F400E010E0CFBE01151105A1F03A
:10209000C8010E94B40610C0AC16BD0611F4890137
:1020A00002C000E010E0CE010E9453069E0101151F
:1020B000110551F7EC01E4CFDFBEFFBEDF91CF91F8
:1020C0001F910F91FF90DF90CF90BF90AF90089538
:1020D000682F88E094E00C94261F2F923F924F9235
:1020E0005F926F927F928F929F92AF92BF92CF92A8
:1020F000DF92EF92FF920F931F93CF93DF93CDB7B1
:10210000DEB7C756D1090FB6F894DEBF0FBECDBFFC
:102110001C01A2967FAF6EAFA2977C0108E0E00E93
:10212000F11CDC0150968D919C915197019719F407
:10213000C7010E9489198E010F5D1F4F28E0A80179
:1021400067EFC7010E948417D801FE0131964D91B7
:1021500050E060E070E04193519361937193E01718
:10216000F107A9F781110FC0412C512C50EC652EBD
:102170005FE7752E730162012B964CAE5DAE6EAEBD
:102180007FAE2B973BC429813A814B815C81649659
:102190002CAF3DAF4EAF5FAF64978D819E81AF8115
:1021A000B88568968CAF9DAFAEAFBFAF6897A98476
:1021B000BA84CB84DC846C96ACAEBDAECEAEDFAE62
:1021C0006C974D855E856F857889ACE0440F551F0F
:1021D000661F771FAA95D1F789899A89AB89BC892F
:1021E00014E0880F991FAA1FBB1F1A95D1F7482B1F
:1021F000592B6A2B7B2B8D899E89AF89B88D04E082
:10220000B595A795979587950A95D1F7842B952B2A
:10221000A62BB72B898C9A8CAB8CBC8CBA2CA92C96
:10222000982C88244D8D5E8D6F8D78A17501640189
:10223000C42AD52AE62AF72AA096CCAEDDAEEEAEA9
:10224000FFAEA097F101408D518D60E070E04C0130
:102250005D0134E0B594A794979487943A95D1F7AB
:10226000841A950AA60AB70A13E0B595A79597951B
:1022700087951A95D1F7440F551F661F771F6C017C
:102280007D01C41AD50AE60AF70AA7019601A28DB4
:10229000B38D0E94F92E2B013C018BE0759467945D
:1022A000579447948A95D1F7A5019401C501B401CB
:1022B0000E94C7329B01AC019CE05595479537952C
:1022C00027959A95D1F7A48DB58D0E94F92E6B01B3
:1022D0007C012EE0F594E794D794C7942A95D1F722
:1022E000930182010C0D1D1D2E1D3F1D09AB1AAB64
:1022F0002BAB3CABA5E0B0E0A90198010E94EE2E0B
:10230000DC01CB0180589F4FAF4FBF4F692F7A2F11
:102310008B2F992787FD9A950E94493020E030E065
:1023200048EC52E40E949F2F2B966CAF7DAF8EAF8E
:102330009FAF2B97D1019496BC91A896BFAFA89759
:10234000F101F5A12F96FFAF2F97D1019696BC9181
:10235000A796BFAFA797F101F7A12E96FFAF2E97D3
:10236000D1019896BC91A596BFAFA597F101F1A5B3
:10237000FFAFD1019A96BC91A496BFAFA497F1018B
:10238000F3A52C96FFAF2C97D1019C96BC91A696F5
:10239000BFAFA697F101F5A52D96FFAF2D97D101FF
:1023A0009E96BC91A396BFAFA397F101F7A5FEAF90
:1023B000C9A8DAA8EBA8FCA8FF0CCC08DC2C760195
:1023C00029A93AA94BA95CA96C2D7C2D8C2D9C2D9B
:1023D000345F4140510961097109810991092EABAE
:1023E0003FAB48AF552E3B014C015901C42ED52EB1
:1023F0007B018C010E940B3321962FAF21972296EF
:102400003FAF229723964FAF239724965FAF249731
:1024100025966FAF259726967FAF269727968FAF85
:10242000279760969FAF6097D10191963C919197C5
:1024300090962C91932F990F990B492F592F692F13
:10244000792F892F0E940B330CE00E943B3429A77F
:1024500039AF442E5AAF6BAF7CAF8DAB9DAFF1015E
:1024600033A122A1932F990F990B2196AFAC2197FD
:102470002296BFAC22972396CFAC23972496DFAC4D
:1024800024972596EFAC25972696FFAC269727969E
:102490000FAD279760961FAD6097492F592F692F71
:1024A000792F892F0E940B3308E00E945434A9A48D
:1024B000B9ACC42CDAACEBACFCAC0DA91DAD0E94E0
:1024C000723470588F4F9F4FD1015E96ED91FC9101
:1024D0005F975F01C12CD12CE12CF12C8701E9A77A
:1024E000BAA6CBA6DCA6EDA6FEA60FA718ABC12CFC
:1024F000D12CE12CF12C00E010E00E940B3301E222
:102500000E94543429A739AF4AAF5BAF6CAF7DABA3
:102510008DAF492EA0E00E94843409F480C1A596B5
:102520002FADA5979FAD990F990B2196AFAC219731
:102530002296BFAC22972396CFAC23972496DFAC8C
:1025400024972596EFAC25972696FFAC26972796DD
:102550000FAD279760961FAD60973FAD492F592F5C
:10256000692F792F892F0E940B332FAF21963FAF10
:10257000219722964FAF229723965FAF23972496F9
:102580006FAF249725967FAF259726968FAF269716
:1025900027969FAF2797A7962FADA7972E969FAD0B
:1025A0002E97990F990BAEA8BFA8C8ACD52C730174
:1025B00084012E963FAD2E97492F592F692F792FE1
:1025C000892F0E940B3301E10E943B34AFAC21966E
:1025D000BFAC21972296CFAC22972396DFAC2397EE
:1025E0002496EFAC24972596FFAC259726960FAD41
:1025F000269727961FAD27970E94723459016A01CA
:102600007B01582E192F68964CAD5DAD6EAD7FAD38
:102610006897F4E0440F551F661F771FFA95D1F7AE
:102620006C968CAD9DADAEADBFAD6C9704E0B5952D
:10263000A795979587950A95D1F7482B592B6A2B23
:102640007B2B64968CAD9DADAEADBFAD64972CE099
:10265000880F991FAA1FBB1F2A95D1F7482B592B0A
:102660006A2B7B2B80E090E0A0E1B0E0841B950B0F
:10267000A60BB70B3C014D01990C6608762C430163
:102680009C01AD01662D762D862D962D0FE10E94C1
:102690003B3439014A01B62FA72FF82FE92FA8960E
:1026A0002FADA8972F969FAD2F97990F990B2F9627
:1026B0003FAD2F97492F592F692F792F892F03E28B
:1026C0000E943B34052D0E94723459016A017B013E
:1026D0008C019301A4016B2F7A2F8F2F9E2F0E94C4
:1026E0007B34E5E3AE2EFCE0BF2EC12CD12CE12CD7
:1026F000F12C00E010E00E940B33A9A4B9ACCAACE5
:10270000DBACECACFDA80DAD142D0E9466332EABF6
:102710003FAB48AF59A769AF7AAF8BAF9CAF0DE025
:102720000E9454342DAB9DAFA3962FADA3979EADC1
:10273000990F990BADA8B32EC42ED52EE62EF72EE9
:10274000082F1DAD3EAD492F592F692F792F892FA5
:102750000E940B330E940B3309E10E945434AEA84F
:10276000BFA8C8ACD9A4E9ACFAAC0BAD1CAD0E94B3
:1027700072342EAF3DAB2A013B014C01A6962FAD22
:10278000A6972D969FAD2D97990F990B2D963FAD3E
:102790002D97492F592F692F792F892F0E940B339D
:1027A00003E10E94543459016A017B018C012EAD72
:1027B0003DA9A201B301C4010E94723408E00E9445
:1027C000543459016A017B01E82F192FA4962FADCB
:1027D000A4972C969FAD2C97990F990B2C963FADF3
:1027E0002C97492F592F692F792F892F04E00E94A8
:1027F0003B340E2F0E947234B901CA010E94473047
:1028000020E030E040E85BE30E94D53020E030E09B
:1028100048EC52E40E949F2F2B013C0106C0412C42
:10282000512CE0EC6E2EEFE77E2ED101D5962C9147
:10283000C9A8DAA8EBA8FCA8BCE2DB1AB1E0EB0A55
:10284000F108A0968CAC9DACAEACBFACA0973EE0BE
:10285000880C991CAA1CBB1C3A95D1F7F10184A9DC
:10286000F0E18F9FC0011124322F3F70832B092E7E
:10287000000CAA0BBB0B44E1880F991FAA1FBB1FBA
:102880004A95D1F7881A990AAA0ABB0AF101A6A9A2
:10289000F0E1AF9FD001112422952F70A22BA70148
:1028A00096010E94F92E861A970AA80AB90A00E42E
:1028B000900EA11CB11C6FE0B594A79497948794D7
:1028C0006A95D1F7F101A3A9B0E00E94EE2EDC01D8
:1028D000CB017BE0B595A795979587957A95D1F72C
:1028E0008C019D0110582F4F3F4F09AB1AAB2BABFA
:1028F0003CABA7A90A2E000CBB0BA70196010E94B6
:10290000F92EAAE09595879577956795AA95D1F7C1
:1029100029A93AA94BA95CA90E94C732DC01CB01C5
:102920001AE0B595A795979587951A95D1F79C01CB
:10293000AD01405E5F4FA1A9B2A90E94F92EDC0152
:10294000CB01905EAF4FBF4FBC01CD010EE095951E
:102950008795779567950A95D1F7A50194010E940F
:10296000C7326B017C012FE0959587957795679528
:102970002A95D1F79B01AC010E94C7329B01AC01A3
:1029800067E055954795379527956A95D1F7A0A9A2
:10299000B0E00E94EE2EDC01CB0174E0B595A79566
:1029A000979587957A95D1F7A7019601281B390B42
:1029B0004A0B5B0BDA01C90157FF03C080E090E0CE
:1029C000DC0181309105A10539E1B30724F080E0F5
:1029D00090E0A0E0B9E1BC01CD012CE09595879590
:1029E000779567952A95D1F70E94473020E030E02F
:1029F00040E85AE30E94D5306B017C0120E030E0D2
:102A000040E251E42B966CAD7DAD8EAD9FAD2B9722
:102A10000E94D5300E941130D10112967C936E93A2
:102A2000119720E030E040E251E4C301B2010E947E
:102A3000D5300E941830F10174836383A296AEAC46
:102A4000BFACA297B50180E090E00E94473024EF30
:102A50003DEF44ED5BE30E94D5304B015C019B01EF
:102A6000AC012B966CAD7DAD8EAD9FAD2B970E94CA
:102A7000332F23E333E948E853E40E94332F9B01CB
:102A8000AC01C501B4010E949F2F9B01AC0160E025
:102A900070E080E89FE30E94322F28E539E348EA9E
:102AA00050E40E9442319B01AC01C301B2010E947B
:102AB0009F2F20E030E040E251E40E94D5300E9498
:102AC0001830D10116967C936E931597C701B60105
:102AD0000E941830F1016783C959DF4F0FB6F8948F
:102AE000DEBF0FBECDBFDF91CF911F910F91FF9041
:102AF000EF90DF90CF90BF90AF909F908F907F909E
:102B00006F905F904F903F902F90089530916A039F
:102B1000313208F04BC0809146038111FCCF909177
:102B2000690322E02093460321E0209345032FEF21
:102B3000209344031092430330934203E9E4F3E00B
:102B4000A2E2B3E020E0321721F041914D932F5FD4
:102B5000FACF1092210320912103990F922B909389
:102B6000210390912003913061F410922003909101
:102B700021039093BB009091BC0093FDF8CF95EC9E
:102B800001C095EE9093BC00909146039230E1F322
:102B9000909144039F3F79F080914403803241F04B
:102BA00080914403803331F084E005C081E003C0AC
:102BB00082E001C083E01092480310926A031092F1
:102BC000470308951F93CF93DF931F92CDB7DEB7CE
:102BD000162F0E9456038F3F79F060917D0470910B
:102BE0007E04680F711D198341E050E0CE0101960B
:102BF0000E94B72E81E001C080E00F90DF91CF915D
:102C00001F910895CF93DF93EC01CB011A821982B3
:102C100018821B82642F04960E942022009731F0B4
:102C200044E050E0BC01CE010E94A72ECE01DF910E
:102C3000CF910895FC01538D448D252F30E0842FD2
:102C400090E0821B930B541710F0CF9608950197D4
:102C50000895FC01918D828D981761F0828DDF01BE
:102C6000A80FB11D5D968C91928D9F5F9F73928F7F
:102C700090E008958FEF9FEF0895FC01918D828D74
:102C8000981731F0828DE80FF11D858D90E0089541
:102C90008FEF9FEF0895FC01918D228D892F90E099
:102CA000805C9F4F821B91098F73992708958BE653
:102CB00093E00E944B1621E0892B09F420E0822F3B
:102CC0000895FC01848DDF01A80FB11DA35ABF4FE9
:102CD0002C91848D90E001968F739927848FA6891B
:102CE000B7892C93A089B1898C91837080648C936F
:102CF000938D848D981306C00288F389E02D80811E
:102D00008F7D80830895EF92FF920F931F93CF934F
:102D1000DF93EC0181E0888F9B8D8C8D981305C02B
:102D2000E889F989808185FD26C0F62E0B8D10E09B
:102D30000F5F1F4F0F731127E02E8C8DE8120CC010
:102D40000FB607FCFACFE889F989808185FFF5CFB6
:102D5000CE010E946116F1CF8B8DFE01E80FF11DAF
:102D6000E35AFF4FF0829FB7F8940B8FEA89FB89F3
:102D7000808180620AC09FB7F894EE89FF896083E2
:102D8000E889F98980818370806480839FBF81E0B6
:102D900090E0DF91CF911F910F91FF90EF900895F8
:102DA000CF93DF93EC01888D8823C9F0EA89FB89F2
:102DB000808185FD05C0A889B9898C9186FD0FC0E9
:102DC0000FB607FCF5CF808185FFF2CFA889B989BE
:102DD0008C9185FFEDCFCE010E946116E7CFDF9188
:102DE000CF91089580E090E0892B29F00E9457163A
:102DF00081110C9400000895833081F028F4813013
:102E000099F08230A1F008958730A9F08830B9F0A8
:102E10008430D1F4809180008F7D03C08091800048
:102E20008F7780938000089584B58F7702C084B532
:102E30008F7D84BD08958091B0008F7703C080910D
:102E4000B0008F7D8093B00008953FB7F8948091D3
:102E5000CB059091CC05A091CD05B091CE0526B5BE
:102E6000A89B05C02F3F19F00196A11DB11D3FBFC2
:102E7000BA2FA92F982F8827820F911DA11DB11D50
:102E8000BC01CD0143E0660F771F881F991F4A954B
:102E9000D1F70895089585ED8093BC008091BC0022
:102EA00084FDFCCF10924603089508950895089577
:102EB000E091EB028091EA02E81730F4F0E0E15390
:102EC000FA4F808190E008958FEF9FEF08950E9460
:102ED000B735CF93C42FFC0184A991E090934703A9
:102EE000809369031092480310926A0388E094E08B
:102EF0000E94261F6C2F88E094E00E94261F0E94EB
:102F0000861581E0CF910895CF92DF92EF92FF92E4
:102F10000F931F93CF938C016A01C22FFC0184A9E8
:102F200091E09093470380936903109248031092B5
:102F30006A0388E094E00E94261F0E9486156C2F89
:102F4000C13208F060E241E0F80184A90E94AE2598
:102F50001092EB028093EA0290E02091EA028091C5
:102F6000EB02281769F011E0190F7601E90EF11C48
:102F700088E094E00E94D91EF7018083912FEDCF65
:102F800081E09C1380E0CF911F910F91FF90EF9013
:102F9000DF90CF9008951F920F920FB60F921124D9
:102FA0002F933F934F935F936F937F938F939F9351
:102FB000AF93BF93EF93FF938BE693E00E9461166C
:102FC000FF91EF91BF91AF919F918F917F916F9101
:102FD0005F914F913F912F910F900FBE0F901F90D7
:102FE00018951F920F920FB60F9211242F938F9363
:102FF0009F93EF93FF93E0917B03F0917C0380819B
:10300000E0918103F091820382FD12C09081809152
:1030100084038F5F8F7320918503821751F0E091B5
:103020008403F0E0E559FC4F958F8093840301C041
:103030008081FF91EF919F918F912F910F900FBE03
:103040000F901F901895CF93DF93282F30E0F90150
:10305000EE52FC4F8491F901EA5DFD4FD491F901E4
:10306000EE5EFD4FC491CC2391F081110E94FC16BD
:10307000EC2FF0E0EE0FFF1FEC50FE4FA591B49146
:10308000EC91ED2381E090E021F480E002C080E04B
:1030900090E0DF91CF9108951F93CF93DF93282F76
:1030A00030E0F901EE52FC4F8491F901EA5DFD4FE9
:1030B000D491F901EE5EFD4FC491CC23C1F0162FDF
:1030C00081110E94FC16EC2FF0E0EE0FFF1FE85379
:1030D000FC4FA591B4919FB7F894111104C08C9145
:1030E000D095D82302C0EC91DE2BDC939FBFDF91FB
:1030F000CF911F910895CF93DF9390E0FC01EA5D9B
:10310000FD4F2491FC01EE5EFD4F8491882361F117
:1031100090E0880F991FFC01E254FC4FC591D491B7
:10312000FC01E853FC4FA591B491611109C09FB710
:10313000F8948881209582238883EC912E230BC0FC
:10314000623061F49FB7F8948881322F30958323E1
:103150008883EC912E2B2C939FBF06C08FB7F894D9
:10316000E8812E2B28838FBFDF91CF9108958F9216
:103170009F92AF92BF92CF92DF92EF92FF926B013C
:103180007C010E9425174B015C01C114D104E104AC
:10319000F104F1F00E942517DC01CB01881999098F
:1031A000AA09BB09883E9340A105B10570F321E04F
:1031B000C21AD108E108F10888EE880E83E0981E53
:1031C000A11CB11CC114D104E104F10419F7DDCF35
:1031D000FF90EF90DF90CF90BF90AF909F908F9037
:1031E00008951F920F920FB60F9211242F933F93C1
:1031F0008F939F93AF93BF938091830590918405A4
:10320000A0918505B09186053091CA0526E0230F6F
:103210002D3720F40296A11DB11D05C029E8230F0A
:103220000396A11DB11D2093CA0580938305909339
:103230008405A0938505B09386058091CB05909178
:10324000CC05A091CD05B091CE050196A11DB11D73
:103250008093CB059093CC05A093CD05B093CE057C
:10326000BF91AF919F918F913F912F910F900FBE82
:103270000F901F9018951F920F920FB60F92112466
:103280002F933F934F935F936F937F938F939F936E
:10329000AF93BF93EF93FF93E0910201F09103018D
:1032A0000995FF91EF91BF91AF919F918F917F9180
:1032B0006F915F914F913F912F910F900FBE0F90A3
:1032C0001F9018951F920F920FB60F9211242F93F3
:1032D0003F934F935F936F937F938F939F93AF939E
:1032E000BF93EF93FF93E0910001F09101010995E5
:1032F000FF91EF91BF91AF919F918F917F916F91CE
:103300005F914F913F912F910F900FBE0F901F90A3
:1033100018950F931F93CF93DF93EC018A81982F19
:103320009295990F907E8E81880F880F892B088542
:10333000082B8A85982F9295990F907E8C85880FFF
:10334000880F892B1E85182BE881F9810280F38173
:10335000E02D4C8162EFCE010995E881F981028070
:10336000F381E02D402F64EFCE010995E881F981CA
:103370000280F381E02D412F65EFCE01DF91CF91E7
:103380001F910F910994FF920F931F93CF93DF9397
:103390001F92CDB7DEB78C01DC01ED91FC9104806A
:1033A000F581E02D21E0AE014F5F5F4F60ED0995A3
:1033B0008981883541F0803671F420E630E0F801EB
:1033C00032AB21AB0DC028E530E0D801D2963C935A
:1033D0002E93D19705C0F80112AA11AAF12C3EC074
:1033E000D801D0968C93D097ED91FC910480F58113
:1033F000E02D26E0A801405F5F4F68E8C80109950D
:10340000F82ED801ED91FC910480F581E02D22E1A8
:10341000A8014A5E5F4F6EE8C8010995F822D801FD
:10342000ED91FC910480F581E02D21E0A801485D3B
:103430005F4F61EAC8010995F822D801ED91FC912E
:103440000480F581E02D27E0A801475D5F4F61EE24
:10345000C8010995F822C8010E948919F801F3AA48
:103460008F2D0F90DF91CF911F910F91FF900895B5
:103470001F920F920FB60F9211242F933F934F93E9
:103480005F936F937F938F939F93AF93BF93EF93CC
:10349000FF938091B900887F803609F49CC068F55D
:1034A000883209F45BC090F4803109F454C038F4D8
:1034B000882309F4F6C0883009F44DC0F6C088317D
:1034C00009F44CC0803209F45DC0EFC0803409F4C7
:1034D00068C048F4803309F455C0883309F0E5C06A
:1034E00080934403D8C0803509F44FC0883509F46F
:1034F0005DC0883409F0D9C0D6C0883909F4C7C086
:10350000A8F4883709F467C038F4883609F463C032
:10351000803709F460C0C9C0883809F4B8C0803960
:1035200009F45FC0803809F0C0C05BC0803B09F47B
:1035300086C038F4803A09F466C0883A09F47FC03E
:10354000B4C0803C09F4A7C0883C09F4A4C0883BFF
:1035500009F48AC0AAC08091210310C0909143034E
:1035600080914203981770F5E091430381E08E0F3C
:1035700080934303F0E0EE5DFC4F80818093BB00BD
:1035800085EC86C0809344038EC0E091430381E0C4
:103590008E0F809343038091BB00F0E0EE5DFC4F03
:1035A000808390914303809142036EC0E091430376
:1035B00081E08E0F809343038091BB00F0E0EE5DCD
:1035C000FC4F80838091450381116DC081E0809321
:1035D000200384EA61C083E0809346031092C9050A
:1035E000CFCF8091C905803208F051C0E091C90564
:1035F00081E08E0F8093C9058091BB00F0E0E75514
:10360000FA4F8083BDCF85EC8093BC0010924603B7
:103610008091C905803230F4E091C905F0E0E755AA
:10362000FA4F10826091C90570E0E091E802F091D4
:10363000E90289EA95E009951092C90536C084E04F
:10364000809346031092A8051092A705E091E60228
:10365000F091E70209958091A705811105C081E0ED
:103660008093A70510928705E091A80581E08E0F51
:103670008093A805F0E0E957FA4F80818093BB0062
:103680009091A8058091A705981708F479CF85E84F
:103690008093BC000AC085EC8093BC001092460366
:1036A00004C0109244030E944B17FF91EF91BF9109
:1036B000AF919F918F917F916F915F914F913F91CA
:1036C0002F910F900FBE0F901F9018954091A70556
:1036D000262F30E0240F311D21323105DCF42091FA
:1036E00046032430C9F4FC0180E090E0861758F4CA
:1036F0003091A7052191DC01A957BA4FA30FB11D45
:103700002C930196F3CF8091A705680F6093A705CE
:1037100080E0089581E0089582E0089510924603C4
:1037200081E0809345031092200361E082E10E94D2
:103730004C1861E083E10E944C18E9EBF0E08081D5
:103740008E7F808380818D7F808380E28093B8002C
:1037500085E48093BC000895882311F08FEF0895CD
:1037600081E008958FEF08958FEF0895883011F06C
:103770008FEF089580E00895882311F08FEF08956A
:1037800088E008958A3030F4E82FF0E0E859FE4FE1
:10379000849108958FEF0895E091E402F091E5029D
:1037A0008585811102C081E08487089580E00895B5
:1037B0000F931F93CF93DF9324E731E0FC01318314
:1037C00020838C010A5B1F4F81F0EC01C253DF4F55
:1037D000C017D10751F0C858D109E881F98102809A
:1037E000F381E02DCE010995F3CFDF91CF911F91A9
:1037F0000F9108950C942E350C942E350C942E3583
:10380000CF93DF93EC010E94D81BCE01DF91CF91C3
:103810000C942E350C942E350C942E350C942E359C
:1038200086E394E00E94EB0F66E374E085E294E0A7
:103830000C948E20FC018489882311F061E001C082
:1038400060E083890C944C18EF92FF921F93CF9302
:10385000DF93EC017B01898911E0180F198BFE01C0
:10386000E80FF11D238530E0A4E6B0E00E94232F8D
:103870002AE030E040E050E00E94012F2D833E839B
:103880004F83588710FF0AC08C89882311F060E0AD
:1038900001C061E08B890E944C1803C0CE010E94D8
:1038A0001A1CBE01C701DF91CF911F91FF90EF90CD
:1038B0000C948E20089508950895CF93DF93EC0122
:1038C00085E00E9456038F3F69F028813981A90164
:1038D000480F511DCA010E94AC228295869586959B
:1038E000837001C081E0DF91CF9108950F931F9302
:1038F000CF938C01862FC42F0E9456038F3F61F017
:10390000F80120813181A901480F511DCA01CF91D1
:103910001F910F910C94AC228C2FCF911F910F917E
:103920000895EF92FF920F931F93CF93DF93EC01D3
:103930008B0140E06CE0C8010E94761CF82E40E04C
:103940006BE0C8010E94761CE82E40E06AE0C801E6
:103950000E94761C8883E982FA82CE01DF91CF91A2
:103960001F910F91FF90EF90089508950895089585
:103970000C947D0F0C94D00FBC0180E090E04AE0E5
:103980000E948F0F8CEE93E00C94BA1C0E94BA1C1C
:103990008AEE93E00C94BA1C4AE00E948F0F88EEE6
:1039A00093E00C94BA1C682F70E080E090E04AE04D
:1039B0000E948F0F86EE93E00C94BA1C2F923F92D8
:1039C0004F925F926F927F928F929F92AF92BF922F
:1039D000CF92DF92EF92FF920F931F93CF93DF93DB
:1039E000CDB7DEB7AD970FB6F894DEBF0FBECDBF33
:1039F0006C018B01FA018081DB0117968C9317977C
:103A0000818118968C931897828119968C936DE119
:103A100074E0CA010E949503882329F0F80182818D
:103A20008F7D84608283B8016C5F7F4FD601D7960B
:103A30008D919C91D8970E942F22F80182818068F5
:103A4000828346E064E1D60114968D919C9115978E
:103A50000E94761CA82E811102C0AA24A394F6010C
:103A6000848195810E945D1C782E882351F0D601B7
:103A700012968D919C91139762E070E002960E94DD
:103A80007F24B12CF8013196FDA7ECA72801F7E0BF
:103A90004F0E511CB11062C1AA2009F464C1D801B3
:103AA00012968C91129780718BA7F601E280F380B9
:103AB0004701F7E48F0E911C14012FEF221A320AEE
:103AC0004C9150E06CA57DA5C1010E94C935D8017B
:103AD0002C91F4012083F101808136E783278083D4
:103AE0003196908161E030E021503109462F50E05D
:103AF000F101E40FF51F4217530734F4845240815B
:103B0000842780836F5FF2CF808189278083D401EF
:103B10006C90F701ED5BFF4F8081882339F08FECCB
:103B200097E00197F1F700C00000F6CFD701DF96CC
:103B30002AE030E040E050E02D933D934D935C93BC
:103B4000139731E03083B701665C7F4F85E294E0E4
:103B50000E948E20470146E4840E911CD4018C9172
:103B6000882321F00E94FF21F4011082F5E4EF0E7A
:103B7000F11CE1E0D701EC9386E30E94D2218BE3B4
:103B80000E94D22128EC922E85E30E94D22187EC5C
:103B900090E00197F1F700C000009A94911013C0D3
:103BA00086E30E94D2218BE30E94D2218DE30E9402
:103BB000D22184E30E94D22160EC85E30E940A2294
:103BC0008D30B9F74FC060EC85E30E940A22833143
:103BD000D9F6AFE1BEE41197F1F700C00000BBA534
:103BE000BB2349F0EFE7FBE828E0E150F04020403C
:103BF000E1F700C000000E94CE210E94C8218FE39F
:103C00000E94BE21862D0E94BE210E94C4210E94D6
:103C1000CE210E94C8218FE70E94BE212BA6410120
:103C2000882D3BA5831B861530F4D4018D914D0161
:103C30000E94BE21F5CF0E94C42198EC992E60EC21
:103C400085E30E940A228D3019F4992493940AC0C6
:103C5000E7ECF0E03197F1F700C000009A94911082
:103C6000EECFF3CFD7011C92B92DB170FB2E8DEFA3
:103C700093E00E94BA1CC8010E945007AA949110B8
:103C800002C0BF2C07CFF801828185FFFACFC201A5
:103C90000E9486038823A9F3CE0101960E9478032F
:103CA0008CE3F82ED60112968D919C911397FC010E
:103CB000EC5BFF4F208121110AC0EFE1FEE4319758
:103CC000F1F700C00000FA94F110ECCF30C0BE0153
:103CD0006F5F7F4FC8960E94E523882371F38EEEB5
:103CE00093E00E94BA1CCE0101960E945007D801B1
:103CF00011969C918A819813E0CFBE016B5F7F4F34
:103D0000C2010E9495038823C1F28C81823041F464
:103D10008B85B82EB094BB1CBB24BB1C87FDA12C8B
:103D2000F801828181FD0FC08B8180FD0CC083EF83
:103D300093E00E94BA1C8B2D0E943F0782EF93E014
:103D40000E94C61CA7CEF6018281938142E350E017
:103D500060E070E08E960E945A06E9CF772079F0F5
:103D600063E070E004C0772051F064E070E0D601B9
:103D700012968D919C91139702960E947F248B2D11
:103D8000AD960FB6F894DEBF0FBECDBFDF91CF91D9
:103D90001F910F91FF90EF90DF90CF90BF90AF9069
:103DA0009F908F907F906F905F904F903F902F905B
:103DB00008959091EB028091EA02981750F4E92F50
:103DC000F0E0E153FA4F208130E09F5F9093EB02E7
:103DD00002C02FEF3FEFC90108958091EA0290E001
:103DE0002091EB02821B91090895089580E090E0F4
:103DF0000895CF92DF92EF92FF920F931F93CF938C
:103E0000DF937C01CB018A0120914703222389F0B3
:103E1000EB016B01C40ED51ECC15DD0569F069916F
:103E2000D701ED91FC910190F081E02DC70109953A
:103E3000F3CF642F0E94661BC801DF91CF911F91C1
:103E40000F91FF90EF90DF90CF900895CF93DF9385
:103E50001F92CDB7DEB76983209147032223D1F0AB
:103E600020916A03203240F021E030E0FC013383EE
:103E7000228380E090E015C080914803E82FF0E0B5
:103E8000E75BFC4F998190838F5F80934803809319
:103E90006A0305C061E0CE0101960E94661B81E0C5
:103EA00090E00F90DF91CF9108950C9456031F93EB
:103EB000CF93DF93EC011FB7F89499898985981700
:103EC00020F0198A9A85911108C0CE010E94241C05
:103ED0001FBFDF91CF911F9108958A898F5F8A8BD1
:103EE000891798F3CE010E941A1C48E050E067E061
:103EF00074E0CE0109960E949E2EEACF1F920F9287
:103F00000FB60F9211248F930FB6F894A895809155
:103F10006000886180936000109260000FBE8F91F6
:103F20000F900FBE0F901F9018950F931F930115C0
:103F30001105C1F48091B10081FF02C094E001C07D
:103F400090E08091B10080FD9260E1EBF0E0808133
:103F500080818B7F808380818D7F808380818E7F35
:103F6000808301C090E04115510529F4EAE7F0E0B3
:103F700080818F7780836A307105A9F063FD02C06C
:103F800088E001C088E26770682B88E10FB6F8947A
:103F9000A895809360000FBE60936000E0E6F0E0BB
:103FA000808180648083232BA1F483B7817F866026
:103FB00083BFF89483B7816083BF85B7806685BF70
:103FC0008F7D85BF7894889583B78E7F83BF7894E3
:103FD0000EC083B7817F866083BFF89483B781600A
:103FE00083BF7894889583B78E7F83BF7894452B61
:103FF00029F4EAE7F0E0808180688083012B39F4BE
:1040000091FF05C0E1EBF0E08081846080831F9127
:104010000F9108954115510529F4EAE7F0E08081F8
:104020008F7780836A307105A9F063FD02C088E054
:1040300001C088E26770682B88E10FB6F894A895F4
:10404000809360000FBE60936000E0E6F0E0808146
:1040500080648083232BA1F483B7817F846083BF36
:10406000F89483B7816083BF85B7806685BF8F7DF5
:1040700085BF7894889583B78E7F83BF78940EC070
:1040800083B7817F846083BFF89483B7816083BFE7
:104090007894889583B78E7F83BF7894452B29F4D5
:1040A000EAE7F0E080818068808308951F920F9294
:1040B0000FB60F9211242F933F934F935F936F93FB
:1040C0007F938F939F93AF93BF93CF93DF93EF93A0
:1040D000FF93C4E1D4E060E089810E944C18109203
:1040E000B1006A817B818C819D810E941830609330
:1040F000B30081E08E83FF91EF91DF91CF91BF916B
:10410000AF919F918F917F916F915F914F913F916F
:104110002F910F900FBE0F901F9018954F925F92A6
:104120006F927F92BF92CF92DF92EF92FF920F93A6
:104130001F93CF93DF93FB01058116812781308583
:10414000012B022B032B79F18B01BFB6F894F82ECB
:10415000E92E0E9453060097C1F1EC0122972097A7
:10416000A1F14D805E806F807884F8014581568191
:1041700067817085CE01029644165506660677065D
:1041800008F055C0441955096609770945835683D7
:1041900067837087F82EE92E0E9453060097E9F690
:1041A000C0E0D0E0DCCF6E5F7F4F0296DF91CF9111
:1041B0001F910F91FF90EF90DF90CF90BF907F9075
:1041C0006F905F904F900C94630FC0E0D0E060E080
:1041D00070E06801F2E0CF0ED11CC6010E944C06CF
:1041E000B6018F2D9E2D0E944C06209789F08D815F
:1041F0009E81AF81B885F8014581568167817085C0
:10420000841B950BA60BB70B8D839E83AF83B8875A
:10421000BFBEDF91CF911F910F91FF90EF90DF9084
:10422000CF90BF907F906F905F904F900895BC01AA
:10423000D0CFDF92EF92FF920F931F93CF93DF9334
:104240008C01DFB6F8947C0182E0E80EF11CC80115
:104250000E9453060097C1F1EC012297A9F18D81CC
:104260009E81AF81B8850197A109B1098D839E8395
:10427000AF83B8878D819E81AF81B885892B8A2BCA
:104280008B2B11F5C8010E94B4068C81882349F05C
:10429000E881F9810190F081E02DB801CE01099506
:1042A00006C0BE016E5F7F4FC7010E94630FC80149
:1042B0000E945306009729F4C0E0D0E02097D1F681
:1042C00003C0EC012297FACFDFBEC801DF91CF9186
:1042D0001F910F91FF90EF90DF9008951F920F9222
:1042E0000FB60F9211242F933F934F935F936F93C9
:1042F0007F938F939F93AF93BF93EF93FF93E0E2EE
:10430000F4E084818F5F8483CF010E941921FF91A3
:10431000EF91BF91AF919F918F917F916F915F913D
:104320004F913F912F910F900FBE0F901F901895B6
:104330001F920F920FB60F9211242F933F934F931A
:104340005F936F937F938F939F93AF93BF93EF93FD
:10435000FF9385E294E00E941921FF91EF91BF91B4
:10436000AF919F918F917F916F915F914F913F910D
:104370002F910F900FBE0F901F9018958EBD0DB40A
:1043800007FEFDCF8EB5089561E08AE00C944C18CD
:104390008CE00E9423188111FBCF089560E08AE031
:1043A0000C944C18CF93C82F0E94CE210E94C82194
:1043B0008C2F0E94BE21C82F0E94C4218C2FCF9128
:1043C0000895CF93CFEF86E30E94D221C15080772A
:1043D00031F08AE18A95F1F700C0C111F4CF8AE388
:1043E0000E94D22189E3CF910C94D22186E30E94CE
:1043F000D2218DE30E94D2218AE30C94D2210E9423
:10440000CE210E94C8210E94C4210E94F62184E38B
:104410000C94D221CF93DF93D82FC62F0E94CE21A8
:104420000E94C8218D2F8C2B0E94BE2180E00E940B
:10443000BE21C82F0E94C4218C2FDF91CF910895F7
:10444000663050F4FC01808191810196F6E06F9F07
:10445000800D911D1124089580E090E008950F9340
:104460001F93CF93DF9300D01F92CDB7DEB78B01A0
:1044700043E050E0BC01CE0101960E949E2E9A813D
:104480008B812981F8012083918382830F900F9083
:104490000F90DF91CF911F910F910895BC0180E0A3
:1044A00090E00E94B71824E030E080E090E060E106
:1044B00070E040917A00406440937A0042E350916A
:1044C0007A0056FF08C0FB013197F1F74150B9F768
:1044D00080E090E016C040917800509179005370D0
:1044E000840F951F2150310921F79C012370332738
:1044F00096958795969587952230310510F001960F
:1045000008950895EFE6F0E080818160808308954A
:10451000EF92FF920F931F93CF93DF931F92CDB72C
:10452000DEB77B01E80EF91E8C010E151F0559F050
:10453000198241E050E0B801CE0101960E94B72EE9
:104540000F5F1F4FF2CF81E00F90DF91CF911F914E
:104550000F91FF90EF900895CF93DF931F92CDB707
:10456000DEB7198241E050E0BC01CE0101960E9405
:10457000A72E89810F90DF91CF9108950F931F93FC
:10458000CF93DF93EC018B018AE18B871E861D861A
:104590004C871E8A6FA978ADFB0171968491319783
:1045A000E491ED8B8AA3625F7F4F42E050E0CE0141
:1045B00046960E949E2E6FA978AD6D5F7F4F4AE0B0
:1045C00050E0CE0148960E949E2E89AD8BA36FA924
:1045D00078AD6E5E7F4F42E050E0CE0184960E943F
:1045E0009E2EBE01655F7F4FA801CE01DF91CF9166
:1045F0001F910F910C94DE1CCF93DF93EC0188E1A7
:104600000E9456038F3F79F481E094E00E94C61C1B
:1046100064E070E080E090E00E948822E0E0F0E05A
:10462000DF91CF9109942AAD3BADA901480F511DEF
:10463000CA010E94AC2280FFE7CFDF91CF9108959D
:10464000CF92DF92EF92FF920F931F93CF93DF935E
:104650006C017A018B01C0E0D0E0CE15DF0581F05E
:10466000D8016D918D01D601ED91FC910190F08101
:10467000E02DC6010995892B11F02196EECF7E0120
:10468000C701DF91CF911F910F91FF90EF90DF90C5
:10469000CF900895AF92BF92CF92DF92EF92FF92A8
:1046A0001F93CF93DF9300D000D0CDB7DEB77C014E
:1046B0006B015A0110E0412FB601CE0101960E9414
:1046C0000216B501CE0101960E941E06882339F01C
:1046D000612FC60104960E942022059605C01F5F27
:1046E000163049F780E090E0F70191838083C7019D
:1046F0000F900F900F900F90DF91CF911F91FF902F
:10470000EF90DF90CF90BF90AF900895CF93DF935D
:10471000EC01CB01463018F080E090E005C0642F3A
:1047200004960E942022049699838883CE01DF910B
:10473000CF9108950F931F93CF93DF93D82FC62F58
:10474000142F0E94CE210E94C8218D2F0E94BE21CD
:104750008C2F0E94BE210E94C42160E88D2F0E94F0
:104760000A22082FC81761F1112369F04FEF410F9A
:104770006C2F8D2F0E949A238FEC97E00197F1F711
:1047800000C000001DC089EA92E00E94B81C8D2F75
:104790000E943F0783EB92E00E94B81C8C2F0E947E
:1047A0003F078FEB92E00E94B81C802F0E943F07CA
:1047B00089E494E0DF91CF911F910F910C94BA1C82
:1047C000DF91CF911F910F910895AF92BF92CF9239
:1047D000DF92EF92FF920F931F93CF93DF93EC0141
:1047E0006B011C861E867C0180E1E80EF11C60ECEA
:1047F0008BE30E940A2218160CF03EC060E88FE39B
:104800000E940A22182F8A3280F50E94CE210E942F
:10481000C8218FEF0E94BE210E2D57018A2D801BCB
:10482000811738F480E00E94BE21F50181935F0179
:10483000F5CF0E94C42160E88FE30E940A2287FD21
:104840008095898389818695885B898360E88FE379
:104850000E940A2287FD11C087EC92E00E94B81CDA
:1048600087E494E00E94BA1C07C082ED92E00E94A7
:10487000B81C812F0E94D31C10E08AE30E94D22131
:104880008BE791E00197F1F700C000000E94F6214C
:1048900084E30E94D221112319F11F87888996E7AA
:1048A0009827988B91E0412F50E0BA01615071092F
:1048B000292F30E0F701E20FF31F261737073CF4EA
:1048C00020818452822780839F5F822FF1CF908145
:1048D000898989278083B701C60101960E94C9355D
:1048E000F60110831F868081DF91CF911F910F9178
:1048F000FF90EF90DF90CF90BF90AF9008950F930F
:104900001F93CF93DF93EC018B010E94EB0FCE013D
:104910000E941A1CB80183E0660F771F8A95E1F7A1
:10492000695F7B4F48E050E0CE0109960E949E2EC1
:104930008985882359F0198A1A8A65E274E0CE01C4
:10494000DF91CF911F910F910C94241CDF91CF9197
:104950001F910F910895EF92FF921F93CF93DF93D2
:1049600000D000D0CDB7DEB77C0110E0412FB701F9
:10497000CE0101960E940216CE0101960E94860386
:10498000882321F01F5F163089F71FEF812F0F90CA
:104990000F900F900F90DF91CF911F91FF90EF90AC
:1049A0000895AF92BF92CF92DF92EF92FF921F9342
:1049B000CF93DF9300D000D0CDB7DEB77C016B0181
:1049C00010E05C0184E0A80EB11C412FB701CE01BC
:1049D00001960E940216B601CE0101960E941E06A3
:1049E000882379F01B821A8219821C82612FC501EB
:1049F0000E94202244E050E0BC01CE0101960E94BA
:104A0000B72E1F5F163009F781E00F900F900F90BF
:104A10000F90DF91CF911F91FF90EF90DF90CF909B
:104A2000BF90AF900895AF92BF92CF92DF92FF9266
:104A30000F931F93CF93DF93CDB7DEB729970FB6B0
:104A4000F894DEBF0FBECDBFFC0121110DC082ADB9
:104A500093AD9A8389838AE08B8382EC9BE19D836B
:104A60008C8385E59FE160C0662319F081AD8617D0
:104A700040F41A8219821B821D821C821F821E82B0
:104A800055C004AD15AD213069F4F80185859685D2
:104A90009A8389832B838CEB9BE19D838C8386EBAC
:104AA0009BE142C06A012330B1F0243011F7B80114
:104AB000675F7F4FCE0108960E944A2388859985BB
:104AC0009A83898381E08B838CEA9BE19D838C832D
:104AD00083EF98E029C0580189E0A80EB11CF12CA1
:104AE0004F2DB501CE0101960E940216B601CE01EE
:104AF00001960E941E06882339F06F2DC8010D967D
:104B00000E942022049606C0F394F6E0FF12E8CF3C
:104B100080E090E09A83898381E08B8382EB9BE144
:104B20009D838C8384EB9BE19F838E8329813A81D3
:104B30004B815C816D817E818F8190E029960FB6DB
:104B4000F894DEBF0FBECDBFDF91CF911F910F91C3
:104B5000FF90DF90CF90BF90AF9008959091460363
:104B60009111FCCF91E090934603409345032FEFC2
:104B70002093440310924303260F20934203909303
:104B8000210390912103880F892B80932103809129
:104B90002003813061F410922003809121038093DF
:104BA000BB008091BC0083FDF8CF85EC01C085EE91
:104BB0008093BC00809146038130E1F380914303F0
:104BC000861710F460914303A2E2B3E0EFECF5E046
:104BD00080E0861721F09D9191938F5FFACF089521
:104BE000CF93DF93CDB7DEB72C970FB6F894DEBF27
:104BF0000FBECDBF789484B5826084BD84B58160DA
:104C000084BD85B5826085BD85B5816085BD809197
:104C10006E00816080936E0010928100809181000F
:104C20008260809381008091810081608093810007
:104C3000809180008160809380008091B1008460C9
:104C40008093B1008091B00081608093B00080912A
:104C50007A00846080937A0080917A0082608093E9
:104C60007A0080917A008E7F80937A0080917A001A
:104C7000806880937A001092C100E0917B03F091EC
:104C80007C0382E08083E0917703F09178031082C7
:104C9000E0917903F0917A0380E18083109283039D
:104CA000E0917F03F091800386E08083E0917D03B3
:104CB000F0917E03808180618083E0917D03F0919B
:104CC0007E03808188608083E0917D03F0917E0384
:104CD000808180688083E0917D03F0917E038081F4
:104CE0008F7D80838AE392E00E94C61C80907D04C1
:104CF00090907E042AE0820E911CE0E065E5C62ECD
:104D000067E1D62E76E5272E77E1372EF5E04F2E98
:104D1000512C612C712C80917C04E81708F04BC059
:104D200081E08E0F8A87F0E0EE0FFF1FE158FB4F06
:104D30000081118183E494E0F801928781879A854C
:104D40009487968685867801E6E4EE0EF11C109233
:104D5000EB021092EA021092480310926A030E943A
:104D60008E1BD092E702C092E6023092E9022092B6
:104D7000E802FBE0F987570128E0A20EB11CC80148
:104D8000825B9F4F9C878B87C5010E94C319EB856F
:104D9000FC8593A9992311F0811132C5F985F15051
:104DA000F987FF2309F42CC564E670E080E090E009
:104DB0000E94B718E9CF00917F041091800484E02D
:104DC00092E00E94B81C609178047091790480E0B0
:104DD00090E04AE00E948F0F84E192E00E94B81CAC
:104DE000F8018585968585960E94BC1C60E080E070
:104DF00090E00E9465038C0138E6E32E31E0F32E4B
:104E0000F7016491C8010E9465038C01FFEFEF1A5E
:104E1000FF0A22E7E21621E0F20691F7FF24F3945D
:104E200080917C048F1548F1C0907F04D09080045D
:104E300080E00E94BC1B682FC8010E9465038C01A2
:104E4000B601675F7F4F40E0CE0101960E94862346
:104E500080E00E94B21B682FC8010E9465038C018C
:104E600080E00E94AC1B682FC8010E94650366E0C9
:104E70000E9465038C01F394D3CF44E050E060E0DE
:104E800070E0CE0105960E94A72EC801A0E0B0E018
:104E90008C019D012E6F3A6C09831A832B833C830E
:104EA0006D817E818F81988506171707280739073E
:104EB00009F47EC00E94EF0687E591E00E94BA1CCB
:104EC00089E591E00E94BA1C69817A818B819C817D
:104ED0000E94EF0687E591E00E94BA1C44E050E092
:104EE00060E070E0CE0101960E94B72E6AE070E0AB
:104EF00080917D0490917E040E94882285E00E942A
:104F000056038F3FC9F0082F10E080917D049091E7
:104F10007E04800F911F0E94AC2260917D047091ED
:104F20007E04600F711F8F738064898341E050E0BD
:104F3000CE0101960E94B72E65E182E10E94E21542
:104F400066E084E10E94E21562E080E20E94E215E0
:104F5000882321F068E581E20E94E21560E082E2A8
:104F60000E94E215882321F060E083E20E94E215AE
:104F700010E080917C041817D8F4E12FF0E0EE0FD8
:104F8000FF1FE158FB4FE080F18065E270E0F70120
:104F9000858596850E948822F70165857685198228
:104FA00041E050E0CE0101960E94B72E1F5FE1CF95
:104FB00081E195E090934604809345041B821A8218
:104FC0001982BE016F5F7F4F80917A0490917B04BC
:104FD0000E942F2289819A810E94932E84E08093DF
:104FE000260561E00E947B1883E195E00E941A1C6F
:104FF000E8988AE497E1909301018093000189E4A5
:1050000095E09093E5028093E4028FE491E00E94A2
:10501000BA1C60E082E00E947B188DE491E00E945F
:10502000C61C61E08AE00E947B1861E08BE00E9470
:105030007B1860E08CE00E947B1861E08DE00E94AC
:105040007B1880E58CBD61E08AE00E944C1861E02D
:105050008DE00E944C1860E08BE00E944C180E948A
:10506000CE210E94C8210E94C421F5E8FA95F1F7EB
:1050700000000E94CE210E94C82180E30E94BE2130
:105080000E94C8210E94C42109E111E09DE4E92E9B
:1050900091E0F92EF80131966491F801849143E092
:1050A0000E949A230E5F1F4FE016F10699F788E1E0
:1050B00092E00E94B81C60EC81E30E940A220E94E8
:1050C0003F0789E494E00E94BA1C83E30E94D22146
:1050D0008FEA93EB0197F1F700C0000043E060EC2A
:1050E0008EE30E949A2380E191E00E94C61C8CEC22
:1050F0009BE19093010180930001809169008C7F76
:10510000826080936900E89A80E180938100109228
:105110008000109285001092840080E49CE99093B6
:1051200087008093860081E1809381000E94822223
:1051300066E070E083E195E00E947F240E948E2E5D
:105140006CEA7DE00E94F7328C0108511C4F8BE421
:1051500095E00E94EB0F9801A4E6B0E00E94232F97
:1051600028EE33E040E050E00E94012F20935005EC
:1051700030935105409352055093530581E080933D
:1051800054056BE475E085E294E00E948E20109255
:10519000700080E28093B6001092B2001092B000CE
:1051A00085E08093B1008091B6008171E1F781E0E4
:1051B00087BB8093700061E080913A050E947B1864
:1051C00060E080913A050E944C1860E080913905BA
:1051D0000E947B1860E0809139050E944C188091F4
:1051E0003D0590913E05813D974030F080ED97E080
:1051F00090933E0580933D0587E880937A00109256
:105200007B00E0912805F09129050680F781E02DCB
:1052100088E295E00995909334058093330580ECFE
:1052200098EAA0E0B0E08093350590933605A0930E
:105230003705B093380580932D0590932E05A093E4
:105240002F05B093300568E275E080E294E00E949B
:105250008E2085E1809331058DEF90E00E94BA1C8D
:10526000809131050E94D31C83E1809332058AEE40
:1052700090E00E94BA1C809132050E94D31C80915C
:1052800078040CEF080F855090E004960E94AC2241
:10529000D82EE12C8EE5F82E10E0015011098E2D4C
:1052A00090E08017910734F404960E94AC22F8260F
:1052B000E394F5CFFD1029C084E090E00E94AC2279
:1052C000182F85E090E00E94AC22082F1123E9F00E
:1052D00085E292E00E94B81C812F0E943F07802F38
:1052E0000E943F0789E494E00E94BA1C43E061E217
:1052F0008DE00E949A2343E0612F8EE00E949A2362
:1053000043E0602F8FE00E949A2388E0809333046B
:1053100062E00E947B18EEE2F2E08491EAE1F2E0C2
:105320009491923059F420911C03282B20931C0354
:1053300020911903282B2093190319C0933059F495
:1053400020911B03282B20931B0320911803282B4B
:10535000209318030CC0943051F420911A03282B89
:1053600020931A0320911703282B20931703E6E0BC
:10537000F2E0A4919230D1F4B0E0AA0FBB1FA55F78
:10538000BC4F20E13CE12D933C93E8EFF1E0A59187
:10539000B4919C9190930A032BE630E030931E0366
:1053A00020931D0390916800916037C09330D1F431
:1053B000B0E0AA0FBB1FA250BD4F20E13CE12D93EE
:1053C0003C93EAEFF1E0A591B4919C919093FD029A
:1053D0002CE630E030931E0320931D03909168006B
:1053E00092601BC09430D9F4B0E0AA0FBB1FA35148
:1053F000BD4F20E13CE12D933C93ECEFF1E0A59112
:10540000B4919C919093EC022DE630E030931E0312
:1054100020931D0390916800946090936800A09180
:105420001D03B0911E03EC918E2B8C9383E494E0CA
:105430000E94860290917C0481E0981710F08F5FA3
:10544000FCCFBB24B3943EE0A32E40E1742E52E285
:10545000652E66E0562E74E6872E912C10E080E2D1
:1054600094E00E94D706882311F011E0F8CF1111C3
:105470000AC085E294E00E94D706882311F011E06B
:10548000F8CFF12E02C0FF24F3948091450490914F
:105490004604FC01EC5BFF4F2081222309F448C243
:1054A0006EE474E0C8960E94E5238A3008F440C296
:1054B0001B821A821982BE016F5F7F4F80917A042E
:1054C00090917B040E942F22BE016F5F7F4F82E587
:1054D00094E00E94950381112BC26EE474E083E492
:1054E00094E00E94BD09DD24D39490917C049D1525
:1054F000F0F100917F0410918004F801938590FFF2
:1055000034C0E0904904E394E09249046091470478
:1055100070914804CE0101960E94911CE0914504CF
:10552000F091460481ADF8019485A0924E047092EA
:1055300051046092500450925804E0924F049093AA
:10554000590410925A0410925B0480935C04AE01DB
:105550004F5F5F4F6EE474E083E494E00E94DE1CD2
:10556000F80183858E7F838781E0D394BECFF110CD
:1055700044C1811142C18091330590913405B40139
:105580000E94E3328091320590E068177907A0F419
:1055900080915705811105C00E94E12181E080932F
:1055A000570520E030E040E050E06AE070E08FE135
:1055B00093E00E940A20F5CF80914805811115C122
:1055C0008BE693E00E94D0168091C00085FD06C056
:1055D0008091C00080648093C000F6CF8091C000AD
:1055E00086FFFCCF80916F008E7F80936F0085E2F5
:1055F00094E00E945306009741F0FC01329729F095
:10560000C580D680E780F08403C0C12CD12C760100
:1056100087E294E00E945306892B09F0E3C0F1E091
:10562000CF16D104E104F10409F4A4C08091570518
:10563000811104C00E94E121B092570525E6C216EF
:10564000D104E104F10420F583E3C816D104E10498
:10565000F10408F59AE1C916D104E104F104F0F46B
:10566000EDE0CE16D104E104F104D8F4F7E0CF1652
:10567000D104E104F104C0F424E0C216D104E10431
:10568000F104A8F482E0C816D104E104F10490F416
:105690006AE070E011C065E070E00EC064E070E0A8
:1056A0000BC063E070E008C062E070E005C061E03C
:1056B00070E002C060E070E0109224044090B200FC
:1056C00001E010E020E030E040E050E08FE193E0C6
:1056D0000E94951F8091B2002091240430E0322F67
:1056E0002227280F311DC901330FAA0BBB0B9C01C8
:1056F000AD012419310941095109A4E6B0E00E9425
:10570000EE2EBB27A92F982F872FC816D906EA0699
:10571000FB0610F4D701C6016C017D01E1E0CE1A51
:10572000D108E108F10885E294E00E945306009751
:10573000E1F0FC013297C9F085819681A781B0859F
:10574000AC01BD014150510961097109C416D5066A
:10575000E606F70610F4B701A601841B950BA60B0D
:10576000B70B85839683A783B08785E294E00E9478
:10577000192138C00E94822280917A008F7780930D
:105780007A0080916400816080936400809164005D
:1057900080628093640080916400806880936400DC
:1057A00083B7817F83BFF89483B7816083BF789488
:1057B000889583B78E7F83BF7894809164008E7FB5
:1057C0008093640080917A00806880937A00809151
:1057D00064008F7D80936400809164008F77809354
:1057E00064000BC00E94822208C080915705882364
:1057F00021F00E94FF21109257050E94F2162ECE32
:10580000EB85FC8581A992A98835910509F086C0B0
:1058100021E0F70120838DE991E00E94C61C60E041
:1058200070E0C7010E946D1004C088E791E00E94FB
:10583000C61C1092EB021092EA02109248031092DA
:105840006A030E948E1BD092E702C092E602309259
:10585000E9022092E8024AE0F42E81E080934703B7
:105860009AE4909369031092480310926A030E948D
:10587000861581111FC0F801ED57FF4F21E02083ED
:10588000209347038AE4809369031092480310929F
:105890006A0382E090E00E94681083E090E00E943A
:1058A00068100E94861580ED91E00E94B81C82E786
:1058B00091E00FC064E670E080E090E00E94B718CD
:1058C000FA94F110CACF8FED91E00E94B81C85E7E1
:1058D00091E00E94BA1C82EE91E00E94C61C89ED04
:1058E00091E00E94BA1C89EF91E00E94B81C87E405
:1058F00094E00E94BA1C8FEC91E00E94C61CF80153
:105900004582568267827086B80180E294E00E94E8
:105910008E20F5E28F0E911CEA85FDC98036910537
:1059200009F083CF21E0F701208382EC91E075CF6D
:1059300080E0D9CDEF92FF921F93CF93DF93EBE6F8
:10594000F3E01382128288EE93E0A0E0B0E084835B
:105950009583A683B78322E131E03183208325EC50
:1059600030E03587248724EC30E03787268720EC29
:1059700030E0318B208B21EC30E0338B228B22EC1A
:1059800030E0358B248B26EC30E0378B268B118E64
:10599000128E138E148EE8E0F4E013821282848358
:1059A0009583A683B78384E291E0918380831092EC
:1059B0001B04EDE1F4E0128211821082E5E2F4E0D2
:1059C0001182108213821282E0E2F4E011821082CE
:1059D000138212821482E1E1F5E0158214821782AB
:1059E00010861186128688EB91E093838283138A56
:1059F000148A158A168A11E01683128E118E138E60
:105A0000148E158E168E178E10A211A213A212A23A
:105A100014A215A216A217A28CEA91E0908F878B90
:105A20008EE080A789E081A780EA9FE093A782A704
:105A300088EC90E095A784A711AA10AA13AA14AA2B
:105A400015AA16AA86E991E097A786A717AA12AB0E
:105A500011AE15AE14AE1092500510925105109271
:105A60005205109253058CE891E093AF82AF1092EB
:105A7000540516AF10925505109256051092570511
:105A800088E595E00E947803C3E4D4E08CE591E0DA
:105A9000998388831B821A828DE794E09D838C838F
:105AA0001E82198618861F821A868EE494E00E9450
:105AB000780380E290E09EAB8DAB2AEA33E038AF0A
:105AC0002FAB19AF9BAF8AAF8FEF8EAF10928304CD
:105AD000109282041092840410928604109285041D
