:100000000C9406030C94C4210C949D210C94DF24C1
:100010000C947C240C940B240C9462230C94792370
:100020000C942E030C94BB230C942E030C942E03DF
:100030000C942E030C94E5230C942E030C942E03A5
:100040000C9453210C942E030C9411220C94EB214C
:100050000C942E030C94B1230C942E030C942E03B9
:100060000C9443220C942E0308000000BE922449F5
:10007000123EABAAAA2ABECDCCCC4C3E00000080DA
:10008000BEABAAAAAA3E00000000BF000000803F4D
:100090000000000000084178D3BB4387D1133D190D
:1000A0000E3CC3BD4282AD2B3E68EC8276BED98F3A
:1000B000E1A93E4C80EFFFBE01C4FF7F3F0000007E
:1000C000000007634236B79BD8A71A39685618AEA6
:1000D000BAAB558C1D3CB7CC5763BD6DEDFD753E7D
:1000E000F6177231BF000000803F30003030003022
:1000F0003030003030303000303030303000303090
:10010000303030300030303030303030002000209F
:100110002D2000200020002000200020002000745E
:100120006D42617474657279204572726F720074E9
:100130006D4261747465727920566F6C7461676585
:100140003A20005348543331206661696C6564205D
:10015000746F20726561642068756D696469747973
:100160000053485433312048756D696469747920AF
:100170007831302020202020203A2000534854336A
:1001800031206661696C656420746F2072656164FA
:100190002074656D706572617475726500534854A2
:1001A00033312054656D70657261747572652078A5
:1001B00031302020203A20004D415834343030393D
:1001C000204272696768746E6573732078313030CD
:1001D0003A200041627348756D69646974792078CA
:1001E00031303020202020202020203A200044657B
:1001F00077506F696E7420783130202020202020C5
:100200002020202020203A200048756D692E2043B0
:100210006F7272656374656420783130202020200D
:10022000203A2000507265732E20436F727265630E
:100230007465642078313020202020203A2000543A
:10024000656D702E20436F727265637465642078EB
:10025000313020202020203A200068756D694F66DB
:1002600066736574207831303A2000707265734F80
:100270006666736574207831303A200074656D705D
:100280004F6666736574207831303A2000616C7473
:1002900069747564653A20007570644379636C65B0
:1002A0003A20007472616E736D697444657654729D
:1002B000794D61783A20006C6F774261744C696DBA
:1002C00069743A20006C65644D6F64653A200043A0
:1002D0006F6E666967204368616E6765643A204C9B
:1002E00069737430000D0A000D0A000D0A000D0A32
:1002F000000D0A000D0A002D3E2000007761697490
:1003000041636B3A20003C2D200000206C6F6E672B
:1003100072656C656173656400206C6F6E677072E6
:10032000657373656400206465626F756E63650054
:100330002070726573736564002072656C6561730B
:10034000656400424F4F544C4F4144455200484170
:10035000564520444154410069676E6F7265200024
:100360002D3E2000746D426174746572794C6F612A
:1003700064204572726F7200746D426174746572AC
:10038000794C6F616420566F6C746167653A200028
:100390005245534554005061636B657420746F6F10
:1003A000206269673A2000435243204661696C65C8
:1003B0006400436F6E66696720467265713A20304B
:1003C00078323100426174746572792073657420EB
:1003D000637269743A2000426174746572792073A3
:1003E0006574206C6F773A202000202D20726561A3
:1003F00064790043432056657273696F6E3A20003A
:10040000002E0206030D04E905CA070C0B060D2198
:100410000E650F6A10C811931203153417031818CC
:1004200019161B431E2F1F65207823E9242A251F38
:1004300026113E033100526164696F20696E697450
:10044000000D0A00496E69742053746F726167650C
:100450003A20000A0B0C0512142021222324252601
:100460002728292A2B2C2D2E2F202D200041646493
:10047000726573732053706163653A200045727230
:100480006F723A204D41583434303039206E6F74D9
:1004900020666F756E64004D415834343030392019
:1004A000666F756E64004572726F723A20534854DD
:1004B0003331206E6F7420666F756E64005348543C
:1004C000333120666F756E64000D0A00436C6F63F4
:1004D0006B20535953434C4F434B00536572696132
:1004E0006C3A200053656E736F722073657475707B
:1004F00020646F6E65000001020304050607000119
:100500000203040500010203040541736B53696E85
:100510002B2B2076352E302E33202841707220313F
:100520003820323032352031373A34323A303029BF
:100530000000000000240027002A00000000002521
:100540000028002B000000000023002600290004E2
:10055000040404040404040202020202020303036A
:100560000303030102040810204080010204081064
:100570002001020408102000000008000201000011
:10058000030407000000000000000000000000005D
:10059000000000021405050000000002010A01002D
:1005A000000000000000000000000000000000004B
:1005B000000000060305010101010A060101010511
:1005C00001050A02060202000000000501080404F9
:1005D0000404000D0A0020726561643A2000206561
:1005E000787065637465643A20004572726F72209A
:1005F00061742000A5A502554E4953454E53303035
:100600003100F103157001014225162D11241FBE82
:10061000CFEFD8E0DEBFCDBF11E0A0E0B1E0E2EF68
:10062000F5E602C005900D92A43AB107D9F724E08F
:10063000A4EAB1E001C01D92A936B207E1F713E0C8
:10064000C5E0D3E004C02197FE010E94AB31C43065
:10065000D107C9F70E94B8260C94EC320C94000024
:10066000782F8827769531F008F48627660F08F4EE
:100670006427F8CF08F48627089508950895FC01AB
:100680009081909528E030E081E397FF03C0990FB7
:10069000982701C0990F21503109B9F78181892725
:1006A00028E030E091E387FF03C0880F892701C06D
:1006B000880F21503109B9F70895833081F028F46B
:1006C000813099F08230A9F008958730A9F0883000
:1006D000C9F08430B1F4809180008F7D03C0809197
:1006E00080008F7780938000089584B58F7784BDD4
:1006F000089584B58F7DFBCF8091B0008F77809374
:10070000B00008958091B0008F7DF9CFCF93DF9333
:10071000282F30E0F901E958FA4F8491F901ED5999
:10072000FA4FD491F901E15BFA4FC491CC23A1F0C7
:1007300081110E945D03EC2FF0E0EE0FFF1FEB5BD9
:10074000FA4FA591B491EC91ED2381E090E009F48A
:1007500080E0DF91CF91089580E090E0FACF1F9381
:10076000CF93DF93282F30E0F901E958FA4F8491B5
:10077000F901ED59FA4FD491F901E15BFA4FC491B7
:10078000CC23A9F0162F81110E945D03EC2FF0E01D
:10079000EE0FFF1FE55CFA4FA591B4918FB7F89467
:1007A000EC91111108C0D095DE23DC938FBFDF914F
:1007B000CF911F910895DE2BF8CFCF93DF9390E078
:1007C000FC01ED59FA4F2491815B9A4FFC01849111
:1007D0008823C9F090E0880F991FFC01EF5CFA4F65
:1007E000A591B491FC01E55CFA4FC591D4916111DA
:1007F0000DC09FB7F8948C91209582238C938881AB
:10080000282328839FBFDF91CF910895623051F450
:100810009FB7F8943C91822F809583238C93E88135
:100820002E2BEFCF8FB7F894EC912E2B2C938FBFFC
:10083000EACF3FB7F8948091280290912902A091C5
:100840002A02B0912B0226B5A89B05C02F3F19F0B4
:100850000196A11DB11D3FBFBA2FA92F982F882740
:10086000BC01CD01620F711D811D911D42E0660F1B
:10087000771F881F991F4A95D1F708958F929F92ED
:10088000AF92BF92CF92DF92EF92FF926B017C0109
:100890000E9419044B015C01C114D104E104F1046C
:1008A000B9F00E941904681979098A099B09683E00
:1008B00073408105910580F321E0C21AD108E10857
:1008C000F10888EE880E83E0981EA11CB11CE4CFCD
:1008D000FF90EF90DF90CF90BF90AF909F908F9060
:1008E00008958FEF0895663050F4FC018081918166
:1008F0000196F5E06F9F800D911D1124089590E001
:1009000080E008950895AF92BF92CF92DF92EF9268
:10091000FF920F931F93CF93DF936C017B018B01A9
:10092000040F151FEB015E01AE18BF08C017D107F9
:1009300059F06991D601ED91FC910190F081E02D83
:10094000C6010995892B79F7C501DF91CF911F91D8
:100950000F91FF90EF90DF90CF90BF90AF900895F0
:10096000FC01538D448D252F30E0842F90E0821BB5
:10097000930B541710F0CF96089501970895FC013A
:10098000918D828D981761F0A28DAE0FBF2FB11D92
:100990005D968C91928D9F5F9F73928F90E00895EA
:1009A0008FEF9FEF0895FC01918D828D981731F0A4
:1009B000828DE80FF11D858D90E008958FEF9FEFF8
:1009C0000895FC01918D228D892F90E0805C9F4FCE
:1009D000821B91098F739927089582EA92E00E9401
:1009E000E10421E0892B09F420E0822F089580E0C2
:1009F00090E0892B29F00E94ED0481110C940000F5
:100A00000895FC01A48DA80FB92FB11DA35ABF4FA3
:100A10002C91848D90E001968F739927848FA689FD
:100A2000B7892C93A089B1898C91837080648C9351
:100A3000938D848D981306C00288F389E02D808100
:100A40008F7D80830895EF92FF920F931F93CF9332
:100A5000DF93EC0181E0888F9B8D8C8D98131AC0F9
:100A6000E889F989808185FF15C09FB7F894EE89E0
:100A7000FF896083E889F98980818370806480833D
:100A80009FBF81E090E0DF91CF911F910F91FF9088
:100A9000EF900895F62E0B8D10E00F5F1F4F0F7330
:100AA0001127E02E8C8D8E110CC00FB607FCFACFEB
:100AB000E889F989808185FFF5CFCE010E94010583
:100AC000F1CFEB8DEC0FFD2FF11DE35AFF4FF082BC
:100AD0009FB7F8940B8FEA89FB8980818062CFCF22
:100AE0000F931F93CF93DF938C01D0E0C0E0F80108
:100AF000EC0FFD1F6491662341F082EA92E00E94B0
:100B00002305892B11F02196F2CFCE01DF91CF91F1
:100B10001F910F910895CF93DF93EC01888D882367
:100B2000B9F0AA89BB89E889F9898C9185FD03C050
:100B3000808186FD0DC00FB607FCF7CF8C9185FF35
:100B4000F2CF808185FFEDCFCE010E940105E9CF74
:100B5000DF91CF9108952091CA01260F3327331FCB
:100B600021323105ECF420917802FC0190E080E024
:100B7000243069F082E00895A091CA012191AC016E
:100B800046555E4FA40FB52FB11D2C9301968617C5
:100B900098F38091CA01680F6093CA0180E00895BC
:100BA00081E008951092780281E08093770210929C
:100BB000520261E082E10E94AF0361E083E10E94A2
:100BC000AF03E9EBF0E080818E7F808380818D7FB1
:100BD000808388E48093B80085E48093BC00089506
:100BE000109251021092500210927F021092A102B4
:100BF0000E94D2058DE393E090934F0280934E02C2
:100C00008EE393E090934D0280934C020895CF932E
:100C1000DF9391E09093A9018823B9F0C091B800C7
:100C2000D091BA008091BC008A7B8093BC0060E0C8
:100C300082E10E94AF0360E083E10E94AF030E9463
:100C4000D205D093BA00C093B800DF91CF91089538
:100C50008F929F92AF92BF92CF92DF92EF92FF92CC
:100C60000F931F93CF93DF93D091A102D13208F05D
:100C7000D7C0182FC091A0020E9419046B017C01FB
:100C80008091780281116BC082E08093780210938A
:100C900077028FEF8093760210927502D0937402E0
:100CA000A0E8B2E0E4E5F2E080E0D81391C0109251
:100CB000530280915302CC0FC82BC09353028091F2
:100CC0005202813009F088C0109252020E94190429
:100CD0006B017C01809153028093BB0080917A026A
:100CE00090917B02A0917C02B0917D02892B8A2B8E
:100CF0008B2BA1F00E94190400917A0210917B02C3
:100D000020917C0230917D026C197D098E099F092A
:100D1000061717072807390708F442C08091BC005E
:100D200083FDD8CF85EC8093BC000E9419046B0131
:100D30007C0180917802823009F450C08091760263
:100D40008F3F09F46FC080917602803209F46CC045
:100D500080917602803309F469C084E026C08091D6
:100D60007A0290917B02A0917C02B0917D02892B46
:100D70008A2B8B2B09F484CF0E94190480907A026D
:100D800090907B02A0907C02B0907D026C197D094E
:100D90008E099F0986169706A806B90608F070CF37
:100DA000809179020E94070685E010927F021092DE
:100DB000A10210927E02DF91CF911F910F91FF90BF
:100DC000EF90DF90CF90BF90AF909F908F9008955D
:100DD0009D9191938F5F69CF85EEA5CF80917A0227
:100DE00090917B02A0917C02B0917D02892B8A2B8D
:100DF0008B2B09F49ECF0E94190400917A02109166
:100E00007B0220917C0230917D026C197D098E0954
:100E10009F09061717072807390708F08ACFC0CFA0
:100E200081E0C3CF80E0C1CF82E0BFCF83E0BDCF00
:100E30008F929F92AF92BF92CF92DF92EF92FF92EA
:100E40000F931F93CF93DF93D82FC62F142F6132A8
:100E500008F09CC00E9419046B017C01809178020B
:100E600081116FC081E080937802109377029FEF29
:100E700090937602109275029C0F90937402809367
:100E8000530280915302DD0FD82BD09353028091EF
:100E90005202813009F07CC0109252020E94190463
:100EA0006B017C01809153028093BB0080917A0298
:100EB00090917B02A0917C02B0917D02892B8A2BBC
:100EC0008B2BA1F00E94190400917A0210917B02F1
:100ED00020917C0230917D026C197D098E099F0959
:100EE000061717072807390708F44CC08091BC0083
:100EF00083FDD8CF85EC8093BC000E9419046B0160
:100F00007C0180917802813009F444C0809175029F
:100F10008C1710F4C0917502E4E5F2E0ACE2B2E0A7
:100F200080E08C1359C08C2FDF91CF911F910F91CE
:100F3000FF90EF90DF90CF90BF90AF909F908F90F9
:100F4000089580917A0290917B02A0917C02B091E9
:100F50007D02892B8A2B8B2B09F480CF0E941904E8
:100F600080907A0290907B02A0907C02B0907D02EB
:100F70006C197D098E099F0986169706A806B90681
:100F800008F06CCF809179020E940706C0E0CBCFB9
:100F900085EEB1CF80917A0290917B02A0917C0284
:100FA000B0917D02892B8A2B8B2B09F4AACF0E944A
:100FB000190400917A0210917B0220917C023091F9
:100FC0007D026C197D098E099F09061717072807EE
:100FD000390708F096CFD6CF91919D938F5FA1CF1F
:100FE0000895E091510280915002E81730F4F0E04A
:100FF000E45DFD4F808190E008958FEF9FEF0895AD
:1010000090915102809150022FEF3FEF981748F4D2
:10101000E92FF0E0E45DFD4F208130E09F5F909389
:101020005102C90108958091500290915102891B8B
:10103000990B0895CF92DF92EF92FF920F931F9337
:10104000CF93DF937C01CB018A0120917E02222382
:1010500089F0EB016B01C40ED51ECC15DD0569F0DE
:101060006991D701ED91FC910190F081E02DC701CC
:101070000995F3CF642F0E94AB05C801DF91CF9192
:101080001F910F91FF90EF90DF90CF900895CF9335
:10109000DF931F92CDB7DEB7698320917E022223B2
:1010A000F9F02091A102203258F021E030E0FC015B
:1010B0003383228390E080E00F90DF91CF910895F9
:1010C00080917F02E82FF0E0E058FD4F99819083F6
:1010D0008F5F80937F028093A10281E090E0ECCF4C
:1010E00061E0CE0101960E94AB05F7CF682F84E541
:1010F00093E00C94470881E00C942806CF93DF938B
:10110000EC018B818823A9F089819A81288131E0C3
:1011100030937E022093A00210927F021092A102CF
:101120000E947B0891E0811190E0892FDF91CF919F
:1011300008950E94F00581E08B83CE010E947E0815
:10114000982F8111E1CFF1CF90E080E00895411513
:10115000510529F4EAE7F0E080818F7780836A30D7
:101160007105B9F0CB01880F991F880F991F807204
:1011700067706860682B88E10FB6F894A895809333
:1011800060000FBE60936000E0E6F0E08081806464
:101190008083232BD9F483B7817F846083BFF89445
:1011A00083B7816083BF85B7806685BF8F7D85BF2C
:1011B0007894889583B78E7F83BF7894452B29F4E4
:1011C000EAE7F0E0808180688083089583B7817FBB
:1011D000846083BFF89483B7816083BF78948895D7
:1011E00083B78E7F83BF7894E9CF8EBD0DB407FEA1
:1011F000FDCF8EB5089561E08AE00C94AF038CE0DA
:101200000E9486038111FBCF089560E08AE00C9470
:10121000AF03CF93C82F0E9405090E94FF088C2FAF
:101220000E94F508C82F0E94FB088C2FCF910895CB
:1012300086E30E9409098DE30E9409098AE30C9460
:101240000909CF93DF93D82FC62F0E9405090E946A
:10125000FF088D2F8C2B0E94F50880E00E94F50876
:10126000C82F0E94FB088C2FDF91CF910895FC01BD
:101270008289938960E0911101C061E00C94AF0311
:10128000BC0190E080E00E943E0484E090E030E009
:1012900020E063E270E040917A00406440937A007D
:1012A00042E350917A0056FF08C0FB013197F1F7F5
:1012B0004150B9F790E080E0089540917800509156
:1012C00079005370240F351F019729F7C9019695AE
:1012D000879596958795237033272230310560F3E3
:1012E00001960895EFE6F0E08081816080830895A3
:1012F000863130F4E82FF0E0ED5AFB4F84910895E9
:101300008FEF0895FC01108608950895813011F043
:101310008FEF089580E00895882311F08FEF0895EE
:1013200081E00895883011F08FEF089580E00895EE
:10133000882311F08FEF089588E00895FC018289D9
:10134000938961E0911101C060E00C94AF031F9399
:10135000CF93DF93FC01238520FF11C0162FEC01F2
:101360000E9405090E94FF080E94FB0811110E94BB
:10137000180984E30E9409098B858E7F8B87DF9192
:10138000CF911F9108950895E091ED01F091EE0144
:10139000838581FD03C083858C608387089582EAFD
:1013A00092E00E948B058091C00085FD06C080916F
:1013B000C00080648093C000F6CF8091C00086FF9B
:1013C000FCCF08950895089580E0089508950F933F
:1013D0001F93CF93DF932EE431E0FC013183208310
:1013E0008C01065C1F4F81F0EC01C057DF4F0C17DA
:1013F0001D0751F0C655D109E881F9810280F381BA
:10140000E02DCE010995F3CFDF91CF911F910F9180
:1014100008950895089508950C9470050E940C0A8B
:101420008BEE92E00C940C0A0F931F93CF938C01D8
:10143000C62F86E293E06430A1F058F489E393E08C
:10144000623079F080E393E0633059F08AE093E012
:1014500008C089E193E0653021F08BE093E06630CD
:10146000A9F70E940E0AC770F8018085887FC82BF3
:10147000C087CF911F910F9108952AE531E0FC01BB
:10148000318320830C94E709982FE3E5F4E080E0B2
:101490002491921729F08F5F31968631C9F78FEF2B
:1014A00008950C94440A0895862728E0BC01769597
:1014B0006795AC014170552780FF02C041E050EABA
:1014C000CB0184279527215089F70895FC011082CC
:1014D000118212821382168215821482118610865E
:1014E0001782128613860895FC018081811109C03C
:1014F0008181811106C081E09281911103C080E059
:10150000089581E00895DC01FB019C91808198138E
:101510000BC011969C9111978181981305C081E0B1
:1015200012962C919281291380E00895FC01338159
:10153000FB012381321302C00C94830A80E00895DA
:10154000CF93DF9300D000D0CDB7DEB7FC01808908
:101550009485998395859A8396859B838C8388232C
:1015600089F0BF01645F7F4FCE0101960E94960A09
:10157000811108C082E00F900F900F900F90DF91C3
:10158000CF91089581E0F7CF2FB7F894FC018081C7
:1015900091812FBF0895FF920F931F93CF93DF93F5
:1015A000EC018B01FFB6F8940E94C40A9C019FB71E
:1015B000F894F801318320839FBF8FB7F894198383
:1015C00008838FBFFFBEDF91CF911F910F91FF90D6
:1015D00008956F927F928F92DF92EF92FF920F9316
:1015E0001F93CF93DF937B0122E0E20EF11CDB011E
:1015F00015962D913D914C91232B242B09F44DC030
:10160000EB01DFB6F8942C8122602C838C010E94C0
:10161000C40A009709F43EC0FC013297A1F065802E
:10162000768087802D813E814F81CF0102966216A0
:101630007306840650F42619370948092D833E8322
:101640004F838C01E4CF90E080E02FB7F8949B8328
:101650008A832FBF8FB7F894D801ED92FC928FBF89
:10166000309761F085819681A7812D813E814F81E0
:10167000821B930BA40B85839683A783DFBEDF9128
:10168000CF911F910F91FF90EF90DF908F907F90FF
:101690006F900895F0E0E0E0D8CFB7010296DF91B7
:1016A000CF911F910F91FF90EF90DF908F907F90DF
:1016B0006F900C94CB0A1F93CF93DF93EC01FB0147
:1016C0002885922F9770943079F040F4923051F041
:1016D000933039F1DF91CF911F910895953009F141
:1016E0009630C1F711E012C023FD21C02A853B8549
:1016F0002550310913E02115310541F040E02D83DB
:101700003E834F83BE01CF010E94E90AE881F9813F
:101710000680F781E02D612FCE01DF91CF911F91DF
:10172000099423FDD7CF2A853B8515E0E4CF25E03A
:1017300030E012E0E3CF0F931F93CF93DF93EC01E0
:101740008B01E88981E08E0F888BEC0FFD2FF11D56
:10175000228530E0A4E6B0E00E9495312AE030E036
:1017600040E050E00E9473312D833E834F83BE01E1
:10177000C8010E94E90A88898170DF91CF911F9189
:101780000F9108950F931F93CF93DF93EC018B017B
:10179000E881F9810680F781E02D09959B878A878A
:1017A0008C859D85AE858D839E83AF83BE01C801E8
:1017B000DF91CF911F910F910C94E90AEF92FF9264
:1017C0000F931F93CF93DF93EC01FFB6F8940E9421
:1017D000C40A8C01892B71F0EFB6F894CE010E94F7
:1017E000C40A0E94C40A9C019FB7F89439832883D5
:1017F0009FBFEFBEFFBEC801DF91CF911F910F9138
:10180000FF90EF900895BF92CF92DF92EF92FF92F8
:101810000F931F93CF93DF93EC01FFB6F8948C8165
:101820008D7F8C8380E593E00E94C40A0097C9F104
:101830009C012250310980E593E02115310589F1A1
:1018400089010E5F1F4FC217D30709F50E94DE0BF7
:10185000C8010E94C40A009779F0FC01329761F038
:1018600085819681A7812D813E814F81820F931FB3
:10187000A41F85839683A783FFBEDF91CF911F911D
:101880000F91FF90EF90DF90CF90BF900895C80127
:101890000E94C40A009729F09C0122503109C80116
:1018A000CCCF6E0182E0C80ED11CEFB6F894BFB663
:1018B000F89482E593E00E94C40AEC0122E533E04B
:1018C000209779F010E000E0CC16DD0609F48901DC
:1018D000CE010E94C40A9E010115110521F4EC01FC
:1018E000EFCF10E000E0BFBE0115110511F4EFBE0F
:1018F000C3CFC8010E94DE0BFACF0F931F93CF9383
:10190000DF93FC01C085D18589850E948603988577
:1019100093FB002700F910E080171106C1F180FB4E
:1019200093F99887892F8770292F287093FD02C01B
:10193000813069F5182F833019F1853009F1813034
:1019400079F414E0CE010E94030C85E090E0A0E061
:101950008D839E83AF83BE0180E593E00E94E90AF8
:1019600088858770811799F0E881F9810680F78171
:10197000E02D612FCE01DF91CF911F910F9109943E
:10198000222371F312E08330E9F216E0DBCFDF911E
:10199000CF911F910F9108958CE693E00E94030C64
:1019A0006CE673E080E593E00C94E90A8F929F92D5
:1019B000AF92BF92CF92DF92EF92FF92CF93DF93DD
:1019C000EC014A015B0180E593E00E94C40A0097A4
:1019D000B9F481E08887CE010E94030C8D829E823B
:1019E000AF82BE0180E593E0DF91CF91FF90EF9051
:1019F000DF90CF90BF90AF909F908F900C94E90AAA
:101A00000297C12CD12C7601009719F3FC01258196
:101A100036814781642FA90170E0C40ED51EE61EF1
:101A2000F71EC817D90739F002960E94C40A00971A
:101A300081F20297E9CFC814D904EA04FB0448F202
:101A4000DF91CF91FF90EF90DF90CF90BF90AF905C
:101A50009F908F90089582E593E00E94DE0BFC0139
:101A6000009781F0029771F022812D7F2283DC01A3
:101A7000ED91FC910190F081E02D60E573E0099516
:101A800081E0089580E00895CF92DF92FF920F9356
:101A90001F93CF93DF938C01FFB6F8940E94C40A82
:101AA000009769F1EC01229751F18D819E81AF8100
:101AB0000197A1098D839E83AF83680182E0C80EE0
:101AC000D11C8D819E81AF81892B8A2BC1F4C801E5
:101AD0000E94DE0B8C8180FF1CC08D7F8C83E8818F
:101AE000F9810190F081E02DB801CE010995C8017E
:101AF0000E94C40A009719F0EC01229711F7FFBE6B
:101B0000C801DF91CF911F910F91FF90DF90CF908F
:101B10000895BE016E5F7F4FC6010E94CB0AE7CFDA
:101B20006F927F928F929F92AF92BF92CF92DF92ED
:101B3000EF92FF920F931F93CF93DF936C013B01C2
:101B40007A0110E000E0D60114968D919C91E70196
:101B5000C01BD10B8C179D0708F4EC0141E0C701B5
:101B60008C1B9D0B0817190708F440E06C2FC1323D
:101B700008F060E2F60180810E941807109251027D
:101B8000809350028C171D0679F54301800E911E3B
:101B90005401C501881999098C179D0778F4D6015D
:101BA00011968D919C91DC01ED91FC910284F3855D
:101BB000E02D0995F50181935F01EBCF0C0F1D1FFF
:101BC0000E151F0508F4BFCF81E0DF91CF911F9163
:101BD0000F91FF90EF90DF90CF90BF90AF909F90CC
:101BE0008F907F906F90089580E0EFCFEF92FF92FB
:101BF0000F931F93CF93DF9300D000D000D0CDB7C9
:101C0000DEB78C0164E170E080E090E00E943E0469
:101C100046E050E0BE016F5F7F4FF80182859385FB
:101C20000E94900DF82E882309F44CC0EB80CE0161
:101C300001960E943F03E81253C0EE80CE01049645
:101C40000E943F03E8124CC029813A8132272327A2
:101C50003227A7E1B1E10E9495312EE09595879555
:101C6000779567952A95D1F7645971418109910952
:101C70000E94622E20E030E048EC52E40E94B82D31
:101C8000F80164837583868397832C813D81322795
:101C900023273227A1E7B2E00E9495313CE09695D8
:101CA0008795779567953A95D1F70E94602E20E049
:101CB00030E048EC52E40E94B82DF8016083718353
:101CC000828393838F2D26960FB6F894DEBF0FBEC6
:101CD000CDBFDF91CF911F910F91FF90EF900895AD
:101CE000F12CF0CFCF93DF9300D0CDB7DEB779835F
:101CF0006A83DC011A96ED91FC91848195810297AB
:101D000010F490E020C081819281208131E03093F5
:101D10007E022093A00210927F021092A102DC01A9
:101D2000ED91FC910280F381E02D42E050E0BE0194
:101D30006F5F7F4F0995029721F781E00E94280687
:101D400091E08111DECF892F0F900F90DF91CF911D
:101D500008958F929F92AF92BF920F931F93CF934C
:101D6000DF93CDB7DEB7A1970FB6F894DEBF0FBEF5
:101D7000CDBF19A2423008F44AE08E010F5D1F4F1B
:101D8000842E912CB12CA12CA50194010E947331B9
:101D9000E62FB901CA01EA3044F5E05DD801EE93BF
:101DA0008D01232B242B252B79F790E080E01097D1
:101DB00069F0FD0101900020E9F73197AF014A1B5E
:101DC0005B0BBD0182EA92E00E948304A1960FB6EC
:101DD000F894DEBF0FBECDBFDF91CF911F910F9161
:101DE000BF90AF909F908F900895E95CD7CFCF922E
:101DF000DF92EF92FF92CF93DF936B017C016DE254
:101E000082EA92E00E942305EC0166277727CB0146
:101E10006C197D098E099F094AE00E94A90E8C0F5A
:101E20009D1FDF91CF91FF90EF90DF90CF900895AD
:101E3000CF93C82F803128F460E382EA92E00E94B9
:101E400023056C2F70E090E080E040E1CF910C948E
:101E5000A90E682F880F770B880B990B97FF06C088
:101E60000E94F70E84EF92E00C940C0A4AE00E9464
:101E7000A90EF8CFBC01990F880B990B97FF06C0EC
:101E80000E94F70E81EF92E00C940C0A4AE00E9447
:101E9000A90EF8CFBC0190E080E04AE00E94A90EB4
:101EA0008EEE92E00C940C0A4AE00E94A90E88EE95
:101EB00092E00C940C0ACF92DF92EF92FF92CF93B4
:101EC000DF93EC0180917C00807380937C00809193
:101ED0007C00806C80937C0080917C0080937C00EF
:101EE00061E089E00E94AF03888999890E944009D6
:101EF0006C0160E089E00E94AF03C114D104E9F0F5
:101F00009601A0EEBBEA0E94953120E038E240E065
:101F100050E00E94733169017A0188E793E00E94E2
:101F20000C0AC701B6010E94540FC601DF91CF9180
:101F3000FF90EF90DF90CF90089584E693E00E94A9
:101F40000C0AF3CFCF92DF92EF92FF9280917C0048
:101F5000807380937C0080917C00806480937C00FF
:101F600080917C008E6080937C0082E390E00E94F0
:101F700040096C010097C9F09C0150E040E060E02E
:101F800070E381E190E00E94733169017A018FE290
:101F900091E00E940C0AC701B6010E94540FC601CD
:101FA000FF90EF90DF90CF9008958FE191E00E9435
:101FB0000C0AF5CFEF92FF920F931F93CF93DF930D
:101FC000EC0188810E94180F8DE191E00E940C0ABB
:101FD00089810E94180F8BE191E00E940C0A8A818E
:101FE0000E94180F89E191E00E940C0A8B810E94E7
:101FF000180F87E191E00E940C0A8C810E94180F53
:102000008D810E94180F8E810E94180F85E191E04A
:102010000E940C0A8F810E94180F88850E94180F59
:1020200089850E94180F83E191E00E940C0A0881C3
:1020300009502A967E0110E0C7018C1B9D0B80176A
:10204000910754F4F70181917F010E94180F8DE0F0
:1020500091E00E940C0AF0CF8FE091E00E940C0A00
:102060002FB7F89460912402709125028091260286
:10207000909127022FBFDF91CF911F910F91FF9079
:10208000EF900C94540F682F70E090E080E04AE0ED
:102090000E94A90E85EE92E00C940C0ACF92DF927A
:1020A000EF92FF926B017C0180E1C816D104E1043C
:1020B000F10468F485E091E00E94700540E1C701F9
:1020C000B601FF90EF90DF90CF900C94A90E8FEFA8
:1020D000C816D104E104F10409F018F48EEF90E081
:1020E000EBCFC11480E1D806E104F10418F488EFC5
:1020F00090E0E2CFC114D10481E0E806F10418F4C5
:1021000083EF90E0D9CFC114D10480E1E806F10457
:1021100018F48FEE90E0D0CFC114D104E10481E037
:10212000F80618F48CEE90E0C7CFC114D104E10496
:1021300080E1F80618F68AEE90E0BECF1F93CF93A9
:10214000DF931F92CDB7DEB7162F0E94440A8F3F50
:1021500099F06091A3037091A403680F711D198316
:1021600041E050E0CE0101960E94332D81E00F90B6
:10217000DF91CF911F91089580E0F9CFCF93C82FC1
:1021800060E00E949E108823A1F060E081E08C0F47
:102190000E949E10882369F060E082E08C0F0E940C
:1021A0009E10882331F060E083E08C0FCF910C9477
:1021B0009E1080E0CF910895EF92FF920F931F93AE
:1021C000CF93DF931F92CDB7DEB78C017B01E80E72
:1021D000F91E198241E050E0B801CE0101960E943B
:1021E000332D0F5F1F4FE016F10699F781E00F9036
:1021F000DF91CF911F910F91FF90EF9008950F9372
:102200001F93CF93DF93D82FC62F142F0E94050959
:102210000E94FF088D2F0E94F5088C2F0E94F50860
:102220000E94FB0860E88D2F0E942109082F81E0A1
:10223000C01771F0112389F04FEF410F6C2F8D2FD4
:102240000E94FF10EFE9FFE03197F1F700C00000B6
:10225000DF91CF911F910F9108958AEE95E00E9432
:102260000C0A8D2F0E94180F8EED95E00E940C0A2B
:102270008C2F0E94180F86ED95E00E940C0A802F8B
:102280000E94180F83ED95E00E940C0A80E0E0CFD9
:1022900085ED8093BC0080917A0290917B02A091A1
:1022A0007C02B0917D020796A11DB11D23E0B69579
:1022B000A795979587952A95D1F72091BC0024FD85
:1022C00003C010927802089540917A0250917B02E7
:1022D00060917C0270917D02452B462B472B69F360
:1022E0000097A105B10541F02AE22A95F1F700C057
:1022F0000197A109B109E1CF809179020C940706F9
:10230000CF93C8EC60EC85E30E9421098D3049F041
:10231000C15039F08FE193E00197F1F700C0000060
:10232000F1CF81E0C11101C080E0CF910895CF933A
:10233000CFEF86E30E940909C150807731F085E331
:102340008A95F1F70000C111F4CF8AE30E940909D0
:1023500089E3CF910C9409090F931F93CF93DF93D7
:10236000EC018B010E94030CCE010E949E09B80172
:1023700083E0660F771F8A95E1F765577A4F48E04B
:1023800050E0CE0108960E941A2D8885882389F096
:10239000188A198A60E573E0CE010E949B0B8C8934
:1023A000882339F0CE01DF91CF911F910F910C94CA
:1023B0003709DF91CF911F910F9108950F931F93CC
:1023C000CF93DF9300D01F92CDB7DEB78B0143E0F0
:1023D00050E0BC01CE0101960E941A2D9A818B819A
:1023E0002981F8012083918382830F900F900F90B1
:1023F000DF91CF911F910F9108951F93CF93DF939A
:10240000EC011FB7F89498898885981778F4CE0165
:102410000E949B0B1FBF8823D9F08C898823F1F081
:10242000CE01DF91CF911F910C943709188A9985BD
:10243000992369F389898F5F898B891740F348E075
:1024400050E06BE875E0CE0108960E941A2D1FBF80
:10245000CE01DF91CF911F910C949E09DF91CF9116
:102460001F9108950C944D320C944D320C944D32C2
:102470000C944D32CF93DF93EC010E94E709CE011B
:10248000DF91CF910C944D320C944D320C944D321F
:102490000C944D32CF93DF93EC010E943D0ACE01A4
:1024A000DF91CF910C944D3228E331E0FC01318370
:1024B0002083875B9F4FFC0182859385009711F0F5
:1024C0000C944D320895CF93DF93EC010E94541287
:1024D000CE01DF91CF910C944D320C944D320C947F
:1024E0004D32CF93DF931F92CDB7DEB7198241E013
:1024F00050E0BC01CE0101960E94232D89810F90EE
:10250000DF91CF910895CF93DF93EC0185E00E9496
:10251000440A8F3F71F028813981820F932F911DDA
:102520000E9471128295869586958370DF91CF9176
:10253000089581E0FBCFCF93DF93EC0188E10E9407
:10254000440A8F3F59F028813981820F932F911DC2
:102550000E9471128170DF91CF91089580E0FBCFCE
:102560008A960E949B1281110DC080E993E00E941F
:102570000E0A64E070E090E080E00E94DC10F0E081
:10258000E0E0099408950F931F93CF938C01862F59
:10259000C42F0E94440A8F3F59F0F80120813181F5
:1025A000820F932F911DCF911F910F910C94711257
:1025B0008C2FCF911F910F910895EF92FF920F935F
:1025C0001F93CF93DF93EC018B0140E06CE0C801D7
:1025D0000E94C312F82E40E06BE0C8010E94C312B3
:1025E000E82E40E06AE0C8010E94C3128883E982B5
:1025F000FA82CE01DF91CF911F910F91FF90EF9062
:1026000008958F929F92AF92BF92CF92DF92EF92F6
:10261000FF921F93CF93DF93EC01162F40E00E94AF
:10262000C312C82E61E0610F40E0CE010E94C312C8
:10263000D12CF12CE12CFC2CEE24DD24CC2490E0D8
:10264000B0E0A0E0DC019927882746015701880EF9
:10265000991EAA1EBB1E62E0610F40E0CE010E94DF
:10266000C31290E0B0E0A0E0CC24D82EE92EFA2EE0
:10267000C80CD91CEA1CFB1C63E0610F40E0CE01D2
:102680000E94C312A7019601280F311D411D511D43
:10269000CA01B901DF91CF911F91FF90EF90DF90B8
:1026A000CF90BF90AF909F908F9008950F931F93FE
:1026B000CF938C0140E060E20E94C312C82F40E03B
:1026C00061E2C8010E94C3122C2F30E0322F222772
:1026D000820F932F911DCF911F910F910895FF921B
:1026E0000F931F93CF93DF938C018FEC92E00E94A6
:1026F0000E0AE801AA96CE010E948312F82E85ECFC
:1027000092E00E940C0A8F2D0E94431040E062E18B
:10271000CE010E94C312F82E87EB92E00E940C0AB1
:102720008F2D0E944310F80102811381F801F78E6A
:1027300087ED93E00E940C0AF801878D0E944310F8
:1027400046E064E1CE010E94C312182F811101C03E
:1027500011E083EA92E00E940C0A812F0E9443104C
:10276000CE010E9456138C0188E992E00E940C0A67
:10277000C8010E944A0F40E062E2CE010E94C312EB
:10278000182F40E063E2CE010E94C312082F8DE8AB
:1027900092E00E940C0A812F90E0982F8827800FEA
:1027A000911D0E944A0F64E2CE010E940113162F70
:1027B0008CE792E00E940C0A812F0E94290F68E2A8
:1027C000CE010E940113162F8BE692E00E940C0AA4
:1027D000812F0E94290F6CE2CE010E940113C62FA7
:1027E0008AE592E00E940C0A8C2FDF91CF911F9115
:1027F0000F91FF900C94290FCF93DF93EC01CB0145
:102800001A82198218821B82642F04960E94730414
:10281000009731F044E050E0BC01CE010E94232D2E
:10282000CE01DF91CF910895EF92FF921F93CF9346
:10283000DF9300D000D0CDB7DEB77C0110E0412F90
:10284000B701CE0101960E94FC13CE0101960E94B1
:10285000740A882321F01F5F163089F71FEF812F3C
:102860000F900F900F900F90DF91CF911F91FF90DD
:10287000EF900895AF92BF92CF92DF92EF92FF92C6
:102880001F93CF93DF9300D000D0CDB7DEB77C018C
:102890006B0110E05C0184E0A80EB11C412FB70170
:1028A000CE0101960E94FC13B601CE0101960E9452
:1028B000960A882379F01B821A8219821C82612F62
:1028C000C5010E94730444E050E0BC01CE010196B2
:1028D0000E94332D1F5F163009F781E00F900F9093
:1028E0000F900F90DF91CF911F91FF90EF90DF90AD
:1028F000CF90BF90AF900895AF92BF92CF92DF92EA
:10290000EF92FF921F93CF93DF9300D000D0CDB70B
:10291000DEB77C016B015A0110E0412FB601CE01F8
:1029200001960E94FC13B501CE0101960E94960A01
:102930008823C1F0612FC60104960E947304049697
:10294000F70191838083C7010F900F900F900F9034
:10295000DF91CF911F91FF90EF90DF90CF90BF90CC
:10296000AF9008951F5F1630C1F690E080E0E8CF89
:10297000CF93DF9300D000D000D01F92CDB7DEB749
:10298000FC0121111FC082A593A59A83898386E14A
:102990008B8388E799E09D838C8381E59AE09F8310
:1029A0008E8329813A814B815C816D817E818F810B
:1029B00090E027960FB6F894DEBF0FBECDBFDF9133
:1029C000CF910895662331F181A5861750F104A4B3
:1029D000F5A5E02D213069F44485558561E082E953
:1029E00099E028E939E05A8349836B833D832C833E
:1029F000D6CF2430B1F4BF01685F7F4FCE0101967E
:102A00000E947C1449815A8186E899E02CE839E0DB
:102A100061E0E9CF90E080E030E020E050E040E08D
:102A2000E2CF90E080E030E020E060E0F7CFAF92CE
:102A3000BF92CF92DF92EF92FF920F931F93CF93AB
:102A4000DF93EC017B018B858B7F8B878E01035F8E
:102A50001F4F60EC8BE30E94210918160CF041C057
:102A600060E88FE30E942109D82E4CE1481708F452
:102A70005FC00E9405090E94FF088FEF0E94F508C1
:102A8000C02E58018A2D8C198D1538F480E00E94D3
:102A9000F508F50181935F01F5CF0E94FB0860E81E
:102AA0008FE30E942109282F30E0082E000C990B9B
:102AB00088279170A901481B590BCA0157FD01963F
:102AC00095958795919581959109865B898360E8B5
:102AD0008FE30E94210987FD05C087EA93E00E94E9
:102AE0000E0AD12C0E94180984E30E940909BB2414
:102AF000BA94BD0CDD2009F446C057E05B1500F127
:102B00001C864C858D8596E798279D8721E041504E
:102B1000550B622F70E0F801E60FF71F90816417E4
:102B2000750784F48452892780832F5F892FF1CF22
:102B300086E993E00E940C0A8D2D0E944310D1CFAC
:102B4000DC86DFCF8E85892780834D2D50E0B8014C
:102B5000C70101960E94E33287E08B15A0F0F701D0
:102B600010821C8660E0CE010E94A709F7018081D7
:102B7000DF91CF911F910F91FF90EF90DF90CF9059
:102B8000BF90AF900895F701D082EBCF2F923F9284
:102B90004F925F926F927F928F929F92AF92BF926D
:102BA000CF92DF92EF92FF920F931F93CF93DF9319
:102BB000CDB7DEB7A3970FB6F894DEBF0FBECDBF7B
:102BC0006C018B01FA018081DB0117968C931797BA
:102BD000818118968C931897828119968C9368E45A
:102BE00073E0CA010E94830A882329F0F8018281D8
:102BF0008F7D84608283B8016C5F7F4FD60196968B
:102C00008D919C910E94DE11F801828180688283FF
:102C100046E064E1D60114968D919C910E94C31206
:102C2000B82E811102C0BB24B394F6018481958132
:102C30000E948312782E882349F0D60112968D9136
:102C40009C9162E070E002960E94AC11F80131960E
:102C5000FBA3EAA32AE0422E512C612CC80107965F
:102C600099A388A3BB2009F469C1D6011296ED90FF
:102C7000FC904701B2E38B0E911CF80182818071B8
:102C80008E8F1701FFE32F0E311CD8014C9150E0BD
:102C90006AA17BA1C1010E94E332F80180819FEF0C
:102CA000980F983008F5D701DE961C92D701DE9672
:102CB0002C91DE97DF968C91B6E78B27F70187AFD3
:102CC000E05CFF4F708161E02150330B462F50E0F4
:102CD000F101E40FF51F90814217530744F4845229
:102CE000892780836F5FF2CFF70186AFDFCF972709
:102CF0009083D701DE96BC91BF8FB7016C5C7F4F8C
:102D0000F701A4ACAA2039F08FE99FE00197F1F711
:102D100000C00000F5CFD70141AE52AE63AEE1E096
:102D2000DC96EC9380E593E00E94E90A61E0C4013F
:102D30000E94A709E89882E894E0909301018093AB
:102D40000001D701DD968C91DD978260DD968C9332
:102D500086E30E9409098BE30E94090985E30E942A
:102D6000090998EC992E60EC85E30E9421098331D2
:102D700009F4B0C09A94992009F49CC0EFE8F1E0FE
:102D80003197F1F700C00000EECF0E94FB080E94CF
:102D90008011982ED701DD968C91DD978D7FDD9681
:102DA0008C93E4ECF9E0F0930101E0930001809151
:102DB00069008C7F826080936900E89A86E093E0E6
:102DC0000E940C0AC8010E94DA0FBA94992009F4F3
:102DD00049CFD80112968C9185FF2BC088A199A16B
:102DE0000E94740A882329F1CE0101960E94660A86
:102DF0008CE3F82EF60182819381DC01DD962C9123
:102E000022FD1BC0EFE3FCE93197F1F700C00000A1
:102E1000FA94F110EFCF8CEF92E00E940C0A8A2D09
:102E20000E94180F8BEF92E00E940E0AAA2009F46C
:102E300019CF7110AAC011E08EC0BE016F5F7F4F25
:102E4000C2960E9417158823E9F287EF92E00E944C
:102E50000C0ACE0101960E94DA0FD80111969C91BE
:102E60008A819813CFCFBE016B5F7F4F88A199A154
:102E70000E94830A882331F28C81823041F48B8551
:102E8000A82EA094AA1CAA24AA1C87FDB12CF80184
:102E9000828181FD03C08B8180FFBDCFD601129658
:102EA0008D919C9142E350E060E070E089960E9431
:102EB000D60CB1CF86E30E9409098BE30E94090971
:102EC0008DE30E94090984E30E9409090E94801190
:102ED000912C60CFEFE3FCE93197F1F700C00000DF
:102EE000FE8DFF2349F0FFEF26E181E1F150204004
:102EF0008040E1F700C000000E9405090E94FF0821
:102F00008FE30E94F5088F8D0E94F5080E94FB0850
:102F10000E9405090E94FF088FE70E94F5082E8E87
:102F20004101882D9E8D891BAF8D8A1708F02DCF0A
:102F3000F40181914F010E94F508F3CF10E0772052
:102F400051F0D60112968D919C9110E064E070E0F2
:102F500002960E94AC11812FA3960FB6F894DEBFA3
:102F60000FBECDBFDF91CF911F910F91FF90EF90DA
:102F7000DF90CF90BF90AF909F908F907F906F9099
:102F80005F904F903F902F900895F601828193813A
:102F900011E063E070E0DCCF0F931F93CF93DF93DA
:102FA000EC018B018AE18F831A86198648871A8A79
:102FB0006EA17FA1FB01719684913197E491E98B19
:102FC0008E8F625F7F4F42E050E0CE0142960E94BA
:102FD0001A2D6EA17FA16D5F7F4F4AE050E0CE01B8
:102FE00044960E941A2D89A58F8F6EA17FA16E5ED7
:102FF0007F4F42E050E0CE0180960E941A2DBE0124
:10300000695F7F4FA801CE01DF91CF911F910F9192
:103010000C94C615EF92FF920F931F93CF93DF93FB
:1030200000D01F92CDB7DEB78C01E62EFC01808563
:103030008770F82EC8010E94140AF2E0EF1230C027
:10304000F8010789108DF801F680F394F682648107
:103050007581CE0101960E94DD124F2DBE016F5F7A
:103060007F4FC8010E94CC17F8018281938161E0F3
:1030700070E002960E94AC11F8018281938140EDCC
:1030800057E060E070E089960E94D60C0F900F9098
:103090000F90DF91CF911F910F91FF90EF900895C6
:1030A000F5E0EF12F3CFF8018789908DF5E0FF127C
:1030B0000BC08A960E949B128111E8CFF801878984
:1030C000908D0E94B012E2CFFC018281938167E073
:1030D00070E002960E94AC11D9CF2F923F924F928E
:1030E0005F926F927F928F929F92AF92BF92CF9298
:1030F000DF92EF92FF920F931F93CF93DF93CDB7A1
:10310000DEB7A8970FB6F894DEBF0FBECDBF8C0117
:103110007B011BA21AA219A2BE016F5D7F4FDC01C9
:1031200096968D919C910E94DE11F7013796F8A733
:10313000EFA3BE016F5D7F4FCF010E94830AC82EAF
:10314000882309F487C0D8011296CD90DC905601EF
:10315000B4E3AB0EB11CC5010E94030C8AE090E001
:10316000A0E0F60181AF92AFA3AF81E084AFB501DB
:1031700080E593E00E94E90A80E693E00E940C0A51
:10318000C7010E94DA0F5701F4E0AF0EB11CB50180
:10319000C801C6960E94830A8111CAC0D70114963D
:1031A0008C911497F80186AB15968C91159787AB87
:1031B00016968C91169780AF11968C9181AF648191
:1031C0007581CE0101960E94DD12BE016F5F7F4FB7
:1031D00088E493E00E94830A91E0C82EC926D801B2
:1031E00014966D917C91CE0101960E94DD12BE0174
:1031F0006F5F7F4FC5010E94830AF7019381D284DC
:10320000913009F08CC3CC2019F0882309F497C0C1
:10321000D7011B963C90BAE03B1293C0F80166A11F
:1032200077A16D5F7F4F4AE050E0CE0101960E948A
:103230001A2D4AE050E0BE016F5F7F4FC7010C9628
:103240000E94D632892B09F4EDC0D12CC12C32E07A
:10325000332EAAC0D7018C91898311968C91119736
:103260008A831296BC901297BB821396DC901397B8
:10327000DC8214968C9114978D8315968C911597FA
:103280008E8316968C9116978F8317968C9117972D
:10329000888718968C911897898719968C91199719
:1032A0008A871A968C911A978B871B96AC90AC865E
:1032B00081E1F7013C96DE011D9601900D928A9501
:1032C000E1F768E473E0CE0108960E94830A882340
:1032D00039F0B1E0DB1204C0EAE0AE1609F433CFF6
:1032E000B2FE05C080EC8D0D823008F42CCF88E54D
:1032F00093E00E940C0AC7010E94DA0F8C2DA89659
:103300000FB6F894DEBF0FBECDBFDF91CF911F91F6
:103310000F91FF90EF90DF90CF90BF90AF909F9074
:103320008F907F906F905F904F903F902F90089577
:10333000D801D9969C91F701818198132FCFC12C88
:10334000DDCFF1E03F12CDC0DD2009F47ECFF801E2
:1033500081A58D1508F479CFC4A4D5A4C7010E9416
:10336000A00A3701FCE06F0E711C460198E0890E3F
:10337000911C813009F073C0B301C4010E943A145A
:10338000C4010E9414148F3F09F461CF682FC60155
:103390000C960E94730444E050E0BC01C3010E94FB
:1033A000332D81E0F80180A7F701828185FF2CC0D1
:1033B000BE016F5D7F4F8FA198A50E94830A88236D
:1033C00019F1F1E03F12FBC2C114D10409F4E5C2C6
:1033D000D8011296ED91FC9183A99EE0F7019083AC
:1033E00092E0938312823286D6011B969C9193873A
:1033F000148615868687A501B701C8010E94C615E7
:10340000F60182858E7F8287D80112968D919C91DC
:1034100042E350E060E070E089960E94D60CCC2434
:10342000C3946CCFD80112968D919C9161E070E0AD
:1034300002960E94AC11F8018281938140ED57E021
:1034400060E070E089960E94D60CD7014C91B501DE
:10345000C8010E94CC17D12CC12C312CA5CFD7018B
:1034600050968C9150971C969C911C9799831D9611
:103470009C911D979A831E969C919B838C83B3018C
:10348000C4010E943A14BE016F5F7F4FC4010E94C5
:103490003A14C4010E9414148F3F09F4D8CE2601B7
:1034A000BCE04B0E511C682FC2010E94730444E023
:1034B00050E0BC01C3010E94332DC4010E941414CA
:1034C0008F3F51F0682FC2010E94730444E050E026
:1034D000BC01CE01019663CFB301C4010E943A142E
:1034E000B6CEF2E03F1237C0DD2009F4AECED801EF
:1034F00099968C9199978D1508F4A7CE9C96CD90AE
:10350000DC904601B8E08B0E911CB701645F7F4FE1
:10351000C4010E943A14782EC7010E94A00A82308A
:1035200081F4F70180899485998395859A8396859E
:103530009B838C83BE016F5F7F4FC4010E943A144E
:103540007822772009F430CF81E0D80198968C93C7
:103550003324339429CFB3E03B127EC0DD2009F43D
:1035600002C1F80181A58D1508F475CF24A435A4F6
:10357000D70111968C91119714969C9114979E8F58
:1035800015969C9115979F8F16969C9198A348012C
:10359000B7E08B0E911C9AE1978390E1928790E2BD
:1035A000918791E0918B80873801E2E16E0E711C6A
:1035B0006301412C512CF8E02F0E311C86E0481697
:1035C00041F1442DB101CE0101960E94FC13CE01C0
:1035D00001960E94740A8823D1F0539484E0FE017E
:1035E0003196D60101900D928A95E1F794E0C90ECB
:1035F000D11CA4E05A120BC0AE01425E5F4FB40171
:10360000C8010E94C6156301512C882311F0439410
:10361000D5CF84E0F60111928A95E9F75394852D70
:10362000880F880F99E0980F983090F4D80117967A
:103630001C92D80119968C9119978F7D19968C93AD
:10364000AE01425E5F4FB401C8010E94C61503CFB0
:10365000865FF8018783EDCFB4E03B128AC0F701A3
:103660002089A701445F5F4F6D2DC8010E94B814E7
:1036700029833A834B835C836D837E838F83898127
:103680009A819EA38DA322E0322E892B09F4B7C024
:10369000D70111968C91119714969C9114979E8F37
:1036A00015969C9115979F8F16969C9198A328012B
:1036B000B7E04B0E511C9AE1F801978390E1928795
:1036C00090E2918792E0918B80871801F2E12F0EB2
:1036D000311C6101712C612C1CA28B818615170491
:1036E00051F14CF1EC81FD81862D0995D6018C9329
:1036F0004601B2E08B0E911C8DA19EA1860D971DF7
:103700000E947112F6018183FCA1FF5FFCA3F830D7
:1037100059F4AE01425E5F4FB201C8010E94C61566
:10372000882339F041011CA28FEF681A780A6401DE
:10373000D4CF61011CA2D6011C9211961C928CA1BF
:103740008A5F880F9FEF980F983078F4F8011782FE
:10375000F80181858F7D8187AE01425E5F4FB201A6
:10376000C8010E94C615312C4AC0D80117968C9307
:10377000EFCFFEE03F122AC0D8019C96CD90DC909E
:103780009D97F70121811296ED91FC9183A9D601B5
:103790001B969C91F801378230E1328736E0318BFD
:1037A0002087928B138A148A858B82E08187A501FA
:1037B000B801695F7F4FC8010E94C615D6011A96ED
:1037C0008C911A978E7F1A968C9345CEB5E03B125A
:1037D00019C0F801D6A6D70150962C91A701445FD5
:1037E0005F4F6D2DC8010E94B814F80127A730ABB8
:1037F00041AB52AB63AB74AB85AB33243394D12C68
:10380000C12CD2CDF6E03F1232C081E0D8019896AB
:103810008C9398979F962D913C91D0979A968D91E5
:103820009C919B972817390781F412968D919C9152
:1038300070E060E002960E94AC11D801ED91FC911D
:103840000480F581E02DC80109958FEFF80186A766
:103850008AE0D7018C9382E013968C93139712968B
:103860008C9312971A961C92A501B701EDCEB8E081
:103870003B1237C0F80186A58D11BFCF87A590A94F
:10388000892B09F4BACFF70180818B3008F48BE0E3
:1038900095EF792E780E4701FCE08F0E911C6401A4
:1038A0008C2D8819871508F0A8CFD60111966C9039
:1038B000D801D496ED91FC91D6018C9109958F3F5A
:1038C00061F0F80167A570A9680F711D698241E078
:1038D00050E0CE0101960E94332DF2E0CF0ED11CB4
:1038E000DFCF89E03812B1CCD70111968C9194E1E9
:1038F000F801978390E192871186118A8087128A56
:1039000066A177A16D5F7F4F4AE050E0C801429603
:103910000E941A2DA501B801695F7F4F95CE9131A4
:1039200091F5CC2019F0882309F409CDF4E0DF16D5
:1039300019F08AECD8128FCD8AE0D7018C9382E0FF
:1039400013968C93139712961C9212971A961C92A8
:10395000A501B701C8010E94C615BAECDB120FC061
:1039600083E493E00E940E0A88E19CE00FB6F8948D
:10397000A895809360000FBE90936000FFCFC801B0
:103980000E94B01268CD923109F05FCC8EE493E0D2
:103990000E940E0AD12CC12CDBCD8AE0D7018C937A
:1039A00082E013968C93139712961C9212971A9694
:1039B0001C92A501B701C8010E94C61525CDB2E031
:1039C0003B1222CD8AE0F70180833382128280E8A5
:1039D0008287EFCF2F923F924F925F926F927F92AA
:1039E0008F929F92AF92BF92CF92DF92EF92FF920F
:1039F0000F931F93CF93DF93CDB7DEB72F970FB6FB
:103A0000F894DEBF0FBECDBF8C017A876987DC01D9
:103A10009E961C921E929D977C01B4E4EB0EF11CC5
:103A2000F70114821382128211828081882309F4A3
:103A30005EC06701F5E0CF0ED11C60E074E2C60104
:103A40000E94720E81113EC3812C912C20ECA22E7B
:103A50002FE7B22E60E074E2C6010E94720E81115F
:103A60003FC3412C512C90EC692E9FE7792EA50184
:103A70009401C501B4010E94533081113FC320E07D
:103A800030E040E251E4C501B4010E94962F0E944B
:103A90002A2ED70112967C936E9311978DE991E0AF
:103AA0000E940C0AF701818192810E943A0FA301C2
:103AB0009201C301B2010E945330811124C320E05E
:103AC00030E040E251E4C301B2010E94962F0E940F
:103AD000312ED70114967C936E93139781E691E073
:103AE0000E940C0AF701838194810E944A0FF80119
:103AF000EB5BFF4F80819181D8019C969C938E93C4
:103B00009B97329680819181F80190AB87A76801DD
:103B1000FFE3CF0ED11CD60111961D921D921D926E
:103B20001C921497F80187AD882309F491C081E0B5
:103B300080937E028AE48093A00210927F0210920A
:103B4000A10283E090E00E94760884E593E00E9461
:103B50007B0840E061E08AE40E941807B82E1092CA
:103B6000510280935002F1E08F1372C084E593E01C
:103B70000E9400087C01B0927E0210927F02109297
:103B8000A10284E090E00E94760884E593E00E9420
:103B90007B0841E061E08AE40E941807109251021C
:103BA00080935002813009F053C084E593E00E9475
:103BB0000008782E6E2D62956F7070E090E080E0C6
:103BC0000E94622E9B01AC0160E070E080E090E416
:103BD0000E9403304B015C01B70184E0660F771F40
:103BE0008A95E1F77727872D8F70682B072E000CB9
:103BF000880B990B0E94622EA50194010E94962FBA
:103C00002CEE31E548E35DE30E94962F20E030E0A2
:103C100048EC52E40E94962F20E030E040E05FE361
:103C20000E944C2D0E949D2E0E94312ED60111968D
:103C30006D937D938D939C93149788EB91E00E94F4
:103C40000C0AF60161817281838194810E94540F74
:103C5000F60181819281A381B481F80181AB92AB9D
:103C6000A3ABB4AB0084F185E02DA281B381919622
:103C70008D919C91D801D9969C938E93D89764E2AC
:103C8000848195810E9401136115710591F0F801FD
:103C900023A534A5C901860F971F94A783A78FE397
:103CA00092E00E940C0AD8019B968D919C910E94F3
:103CB0003A0FD8011896ED91FC9168E284819581C4
:103CC0000E9401136115710591F0F80125A536A533
:103CD000C901860F971F96A785A784E292E00E94EC
:103CE0000C0AD8019D968D919C910E944A0FD80193
:103CF0001896ED91FC916CE2848195810E940113EC
:103D00006115710591F0F80127A530A9C901860F49
:103D1000971F90AB87A789E092E00E940C0AD80118
:103D20009F968D919C910E944A0FF80163A574A5FE
:103D3000072E000C880B990B0E94622E20E030E0C9
:103D400040E251E40E94B82D6B017C01D8019F969E
:103D50006D917C9190E080E00E94602E20E030E048
:103D600040E251E40E94B82D4B015C01A70196018D
:103D7000C701B6010E9453308111CAC1A501940147
:103D8000C501B4010E9453308111C2C129E23CE552
:103D90004DE851E4C701B6010E94962F2B013C016A
:103DA00020E030E843E753E4C701B6010E944C2D00
:103DB0009B01AC01C301B2010E94B82D9B01AC0173
:103DC00064E578EF8DE290E40E94033021E835E964
:103DD00043EC50E40E94962FA50194010E94962F77
:103DE0002BE63FE140E951E40E94962F4B015C0134
:103DF00023E333E948E853E4C701B6010E944C2DA0
:103E000024E138E045E051E40E94962F9B01AC018B
:103E1000C501B4010E94B82D20E030E048EC52E426
:103E20000E94962F0E94312E6B0183ED91E00E943B
:103E30000C0AC6010E944A0FF801D4AEC3AE63A5B6
:103E400074A5072E000C880B990B0E94622E20E0AF
:103E500030E040E251E40E94B82D6B017C01D801B2
:103E60009F966D917C9190E080E00E94602E20E012
:103E700030E040E251E40E94B82D4B015C01A70103
:103E80009601C701B6010E945330811146C1A501B8
:103E90009401C501B4010E94533081113EC120E05C
:103EA00030E048EC52E4C501B4010E94B82D0E94F4
:103EB0004E2F4B015C0120E030E04DE851E4C7019A
:103EC000B6010E94962F2B013C012DE33AE043E717
:103ED00053E4C701B6010E944C2D9B01AC01C30104
:103EE000B2010E94B82D6B017C01AC019B01C501A0
:103EF000B4010E944C2D2DE33AE043E753E40E94C5
:103F0000962F2B013C01A501940160E070E08DE843
:103F100091E40E944B2DA70196010E944B2D9B011D
:103F2000AC01C301B2010E94B82D20E030E040E2B4
:103F300051E40E94962F0E942A2E6B018EEE91E092
:103F40000E940C0AC6010E943A0FF801D6AEC5AE17
:103F50000084F185E02D26812F5F2683D8019F966E
:103F60008D919C9105966AE070E00E945F31462F2A
:103F70003801BEE06B0E711CF801F5ADFB87D8016E
:103F8000DE96BC91BC87F801F3ADFD87D801DC96C5
:103F9000BC91BE87F801E084F184D7011296ED91BF
:103FA000FC91D801D896BC91BF87D801D9962C90A6
:103FB000D997D5963C90D597D1964C90D197D296DB
:103FC0005C90D297D3968C90D397D4969C90D497AC
:103FD0009D96DC909D979E96CC909E979B96BC90CC
:103FE0009B979C963C913F77A78C81A192A164E618
:103FF00070E00E945F31A616170611F008F03068D5
:10400000822F64E10E94533182E2923009F084E011
:1040100099E1F801968790E7918B808B308F278705
:10402000B18EC28ED38E448F958E868E578E40A2CF
:1040300031A222A29F8593A3AE85A4A3BD85B5A37B
:104040009C8596A3AB85A7A382FF6CC08F7C846000
:10405000808B48E453E0B301C7010E94C615D80124
:104060001896ED91FC91848195810E9456139C01D4
:10407000A4E6B0E00E949531F801658376838783DA
:10408000B80189859A850E94E90A81E0D801DA960B
:104090008C932F960FB6F894DEBF0FBECDBFDF9185
:1040A000CF911F910F91FF90EF90DF90CF90BF9035
:1040B000AF909F908F907F906F905F904F903F90C8
:1040C0002F900895C6010E94F60D882309F4BCCCF8
:1040D000F801E75BFF4F84809580A680B780BACC5B
:1040E000C6010E94F60D882309F4BBCCF801E75BFA
:1040F000FF4F4080518062807380B9CC8CE791E0A3
:104100000E940C0AD4CC83E491E00E940C0AEFCC0C
:1041100060E070E080EC9FE77FCE60E070E080ECD4
:104120009FE703CFD12CC12C412C5801B8E0AB0E36
:10413000B11C4801E2E18E0E911CF6E0CF16D104CD
:1041400009F4A4C04C2DB501CE0105960E94FC13C4
:10415000CE0105960E94740A382E882309F46AC09D
:10416000512C452DB501CE0101960E94FC13BE01D4
:104170006F5F7F4FCE0105960E94830A811106C0B2
:10418000539486E05812EDCF55245A945C141D04C4
:104190000CF450C01B821A821982BE016F5F7F4FE0
:1041A000D70196968D919C910E94DE11BE016F5FA2
:1041B0007F4FCE0105960E94830A882309F448C0E8
:1041C000B401F70186A197A10E94DE11D801529691
:1041D0008C91529755968C93559753968C915397F3
:1041E00056968C93569754968C91549757968C93D9
:1041F00068E473E0C4010E94830A882329F0F8016F
:1042000080898F7D8460808BD80150968C915097E7
:1042100085FF14C08F7D50968C93D701ED91FC9152
:104220000680F781E02DB301C7010995F801808967
:104230008062808BBFEFCB1ADB0A7FCFD701ED9175
:10424000FC910680F781E02DB301C7010995F2CFFB
:10425000AE014B5F5F4FB501CE0101960E947C1409
:1042600089819A810E947112F801908980FF0BC0A8
:104270009061908BAE014B5F5F4FB301C7010E940D
:10428000C615432CD7CF9F7E908BF4CF4110E7CE3D
:10429000F70164817581CE0101960E94DD12AE01A5
:1042A0004F5F5F4FD8CE1F920F920FB60F9211241F
:1042B0002F933F938F939F93AF93BF93809124024B
:1042C00090912502A0912602B091270230912302FD
:1042D00023E0230F2D3758F50196A11DB11D209322
:1042E00023028093240290932502A0932602B09388
:1042F00027028091280290912902A0912A02B09170
:104300002B020196A11DB11D8093280290932902D2
:10431000A0932A02B0932B02BF91AF919F918F91EE
:104320003F912F910F900FBE0F901F90189526E888
:10433000230F0296A11DB11DD2CF1F920F920FB66F
:104340000F9211242F933F934F935F936F937F931B
:104350008F939F93AF93BF93EF93FF93E0910201ED
:10436000F09103010995FF91EF91BF91AF919F915A
:104370008F917F916F915F914F913F912F910F900E
:104380000FBE0F901F9018951F920F920FB60F92AD
:1043900011242F933F934F935F936F937F938F934A
:1043A0009F93AF93BF93EF93FF93E0910001F09140
:1043B00001010995FF91EF91BF91AF919F918F916D
:1043C0007F916F915F914F913F912F910F900FBE11
:1043D0000F901F9018951F920F920FB60F921124F5
:1043E0002F933F934F935F936F937F938F939F93FD
:1043F000AF93BF93EF93FF9382EA92E00E9401058F
:10440000FF91EF91BF91AF919F918F917F916F91AC
:104410005F914F913F912F910F900FBE0F901F9082
:1044200018951F920F920FB60F9211242F938F930E
:104430009F93EF93FF93E091B202F091B3028081DA
:10444000E091B802F091B90282FD1BC09081809189
:10445000BB028F5F8F732091BC02821741F0E09105
:10446000BB02F0E0EE55FD4F958F8093BB02FF91AC
:10447000EF919F918F912F910F900FBE0F901F90F2
:1044800018958081F4CF1F920F920FB60F921124CE
:104490002F933F934F935F936F937F938F939F934C
:1044A000AF93BF93EF93FF938091B900887F8036DD
:1044B00009F44AC0F0F5883209F4A7C018F5803134
:1044C00009F49BC0B8F4882309F4F9C0883009F4D2
:1044D00094C0FF91EF91BF91AF919F918F917F9188
:1044E0006F915F914F913F912F910F900FBE0F9061
:1044F0001F901895883109F488C0803251F7809355
:10450000760214C0803409F49DC040F48033B9F3BE
:104510008833F9F68093760285ECB0C0803509F4D3
:1045200085C0883509F496C0883499F60E944811F0
:10453000D0CF883909F48CC038F5883729F050F489
:10454000883611F0803729F683E080937802109244
:10455000EC0157C0883809F47BC0803919F08038E5
:1045600009F0B7CF8091EC01803208F071C0E09182
:10457000EC0181E08E0F8093EC018091BB00F0E0B4
:10458000E453FE4F80833DC0803B39F0E0F4803A35
:1045900009F479C0883A09F09CCF84E080937802CE
:1045A0001092CB011092CA01E0914E02F0914F029D
:1045B00009958091CA0181110FC081E08093CA01E1
:1045C0001092AA0109C0803C09F4A6CF883C09F4E6
:1045D000A3CF883B09F07DCFE091CB0181E08E0F26
:1045E0008093CB01F0E0E655FE4F80818093BB00C5
:1045F0009091CB018091CA0129C080915302809390
:10460000BB0085EC8093BC0064CF909175028091D3
:104610007402981758F5E091750281E08E0F80932F
:104620007502F0E0EC5AFD4F8081E9CFE091750210
:1046300081E08E0F809375028091BB00F0E0EC5A10
:10464000FD4F808390917502809174029817C8F293
:1046500085E8D8CFE091750281E08E0F80937502D6
:104660008091BB00F0E0EC5AFD4F8083809177028F
:1046700081115CCF81E08093520284EA8093BC0078
:104680001092780226CF85EC8093BC0010927802BD
:104690008091EC01803230F4E091EC01F0E0E453E1
:1046A000FE4F10826091EC0170E0E0914C02F091BD
:1046B0004D028CEC91E009951092EC010ACF10921A
:1046C000760234CF1F920F920FB60F9211248F9360
:1046D0000FB6F894A895809160008861809360007F
:1046E000109260000FBE8F910F900FBE0F901F9021
:1046F00018951F920F920FB60F9211242F933F938C
:104700004F935F936F937F938F939F93AF93BF93D9
:10471000CF93DF93EF93FF93CFE3D3E060E0898102
:104720000E94AF031092B1006A817B818C819D81D0
:104730000E94312E6093B30081E08E83FF91EF9150
:10474000DF91CF91BF91AF919F918F917F916F91A9
:104750005F914F913F912F910F900FBE0F901F903F
:1047600018951F920F920FB60F9211240F900FBE43
:104770000F901F9018951F920F920FB60F92112451
:104780002F933F934F935F936F937F938F939F9359
:10479000AF93BF93EF93FF93EBE4F3E084818F5FDC
:1047A0008483CF010E94440DFF91EF91BF91AF919F
:1047B0009F918F917F916F915F914F913F912F9139
:1047C0000F900FBE0F901F9018951F920F920FB66B
:1047D0000F9211242F933F934F935F936F937F9387
:1047E0008F939F93AF93BF93EF93FF9380E593E0F5
:1047F0000E94440DFF91EF91BF91AF919F918F91D6
:104800007F916F915F914F913F912F910F900FBECC
:104810000F901F9018951F920F920FB60F921124B0
:104820002F933F934F935F936F937F938F939F93B8
:10483000AF93BF93CF93EF93FF9399B1C091EF01E3
:1048400080911F0230911C02292F20952323892358
:10485000822B20916D00C927C223C8239093EF01BA
:10486000CC23C1F1C0FF05C0E091F001F091F1014E
:104870000995C1FF05C0E091F201F091F30109959E
:10488000C2FF05C0E091F401F091F5010995C3FF65
:1048900005C0E091F601F091F7010995C4FF05C04C
:1048A000E091F801F091F9010995C5FF05C0E0918B
:1048B000FA01F091FB010995C6FF05C0E091FC01EA
:1048C000F091FD010995C7FF05C0E091FE01F0914F
:1048D000FF010995FF91EF91CF91BF91AF919F910A
:1048E0008F917F916F915F914F913F912F910F9099
:1048F0000FBE0F901F9018951F920F920FB60F9238
:1049000011242F933F934F935F936F937F938F93D4
:104910009F93AF93BF93CF93EF93FF9396B1C091C3
:1049200000028091200230911D02292F209523231F
:104930008923822B20916C00C927C223C82390931E
:104940000002CC2351F1C0FF05C0E0910102F091BB
:1049500002020995C1FF05C0E0910302F091040233
:104960000995C2FF05C0E0910502F0910602099584
:10497000C3FF05C0E0910702F09108020995C4FF4A
:1049800005C0E0910902F0910A020995C5FF05C032
:10499000E0910B02F0910C020995FF91EF91CF91FC
:1049A000BF91AF919F918F917F916F915F914F9147
:1049B0003F912F910F900FBE0F901F9018951F924F
:1049C0000F920FB60F9211242F933F934F935F9343
:1049D0006F937F938F939F93AF93BF93CF93EF93F7
:1049E000FF9393B1C0910F028091210230911E027A
:1049F000292F209523238923822B20916B00C927FF
:104A0000C223C82390930F02CC2351F1C0FF05C0ED
:104A1000E0911002F09111020995C1FF05C0E091EB
:104A20001202F09113020995C2FF05C0E091140231
:104A3000F09115020995C3FF05C0E0911602F091AF
:104A400017020995C4FF05C0E0911802F091190200
:104A50000995C5FF05C0E0911A02F0911B02099566
:104A6000FF91EF91CF91BF91AF919F918F917F91E6
:104A70006F915F914F913F912F910F900FBE0F90CB
:104A80001F901895EF92FF921F93CF93DF93E2EA66
:104A9000F2E01382128288EE93E0A0E0B0E084831B
:104AA0009583A683B7832EE031E03183208325EC04
:104AB00030E03587248724EC30E03787268720ECE8
:104AC00030E0318B208B21EC30E0338B228B22ECD9
:104AD00030E0358B248B26EC30E0378B268B118E23
:104AE000128E138E148E24E5E22E23E0F22EF701AF
:104AF0001382128284839583A683B78380E291E038
:104B00009183808310924603E8E4F3E012821182DD
:104B10001082E0E5F3E01182108213821282EBE44E
:104B2000F3E011821082138212821482E9E0F4E031
:104B30001582148217821086118686E891E093838D
:104B40008283128A138A148A158A11E0168B1683BF
:104B5000128E118E138E148E158E168E178E10A235
:104B600012A211A213A214A215A216A28AE791E022
:104B7000908F878B88EC90E090A787A314A613A64C
:104B800016A617A610AA80E791E092A781A711AAFE
:104B900015A713AA17AA16AA11AE12AE13AE86E66F
:104BA00091E095AB84AB14AE10AF88E085AF87E49D
:104BB00094E00E94660AC9E7D3E082E491E0998319
:104BC00088831B821A8283EA93E09D838C831E82F2
:104BD00080E893E00E94660A80E290E09DA38CA3A7
:104BE00024EF35E03FA32EA318A619A79BA78AA7F9
:104BF0008FEF8EA718AA1FA619AA1BAA1AAA1DAA68
:104C00001CAA18AE1FAA1EAA8EE491E0998388837D
:104C10001092BC031092BB03EDEBF3E080818E7F1A
:104C20008D7F80831092BE031092C0031092BF0349
:104C30001DAE1CAE1EAE80E797E1A0E08093B803E6
:104C40009093B903A093BA0388E391E09BAF8AAF36
:104C500081EC93E00E94660A1092DF031092DE035B
:104C60001092E1031092E0031092E3031092E2032A
:104C70001092E4031092E5031092E6031092E7030A
:104C80001092E8031092EA031092E9031092EC03E9
:104C90001092EB031093ED031092EF031092EE03CA
:104CA0001092F1031092F0031092F2031092F303AA
:104CB0001092F4031092F5031092F6031092F7038A
:104CC0001092F9031092F8031092FB031092FA036A
:104CD0001092070410920604F0920504E092040476
:104CE00080E090E0A0ECBFE78093FC039093FD038D
:104CF000A093FE03B093FF038093000490930104FC
:104D0000A0930204B093030483EB93E09DA78CA7C8
:104D10008AE591E099838883E0E6F3E013821282CA
:104D20001482158216821782A8E6B3E08C91887FE0
:104D3000816088608C93118617861686108A118A86
:104D4000128A138A82E391E095878487F58BE48B3E
:104D500080E991E091838083D08FC78B8CE291E0D2
:104D600093878287DF91CF911F91FF90EF900895F5
:104D7000CF93DF93CDB7DEB72A970FB6F894DEBF97
:104D80000FBECDBF789484B5826084BD84B5816048
:104D900084BD85B5826085BD85B5816085BD809106
:104DA0006E00816080936E0010928100809181007E
:104DB0008260809381008091810081608093810076
:104DC000809180008160809380008091B100846038
:104DD0008093B1008091B00081608093B000809199
:104DE0007A00846080937A0080917A008260809358
:104DF0007A0080917A00816080937A0080917A00B5
:104E0000806880937A001092C100E091B202F09124
:104E1000B30282E08083E091B202F091B30210828B
:104E2000E091AE02F091AF021082E091B002F091F9
:104E3000B10280E180831092BA02E091B602F09153
:104E4000B70286E08083E091B402F091B5028081E0
:104E500080618083E091B402F091B5028081886026
:104E60008083E091B402F091B502808180688083F4
:104E7000E091B402F091B50280818F7D80838AE059
:104E800095E00E940E0AC090A303D090A40326E1EF
:104E9000C20ED11C712C3324339454EF452E55246B
:104EA0005394612C8091A203781608F0E3C0E72D9B
:104EB000F0E0EE0FFF1FEB55FC4F00811181739462
:104EC00089E793E0F801918780877386D586C48649
:104ED0000E94F0054AE0F42E30927E029AE490930C
:104EE000A00210927F021092A10284E593E00E943A
:104EF0007B088111A5C0F80137AE30927E02109276
:104F00007F021092A10282E090E00E94760883E086
:104F100090E00E94760884E593E00E947B0887E990
:104F200094E00E940E0A0E94F0052AE0222E580109
:104F3000F9E4AF0EB11CC8018C5B9F4F9A8789873B
:104F40004C0195E0890E911CF501828593850097AF
:104F500011F00E944D3286E090E00E94B1317C0158
:104F6000F5018085918524E4F70120839283818374
:104F7000138280E290E095838483F501F386E286D4
:104F80000E94F005F7013382C7010E947E08882342
:104F900009F462C062EA70E3C4010E94720E6AE022
:104FA00070E080E090E00E943E046DE273EFC40187
:104FB0000E94720E43E050E0BE016F5F7F4FF5012B
:104FC000828593850E94900D89819A81019609F4CA
:104FD00043C0E985FA8530828DEB94E00E940E0A89
:104FE00066E670E3C4010E94720E61E070E080E04A
:104FF00090E00E943E0484EE94E00E940E0A8BED45
:1050000094E00E940C0A4AE050E068E971E082EA0C
:1050100092E00E94830489EC94E00E940C0A8CECDC
:1050200094E00E940E0AF801458256826782B80118
:1050300080E593E00E94E90AFFE1CF0ED11C32CF58
:1050400064E670E080E090E00E943E04FA94F11083
:1050500043CF8DE794E065CF64E670E080E090E0B8
:105060000E943E042A9421106FCF86EA94E00E94A9
:105070000E0AC1CF8DE694E00E940C0A60919D0358
:1050800070919E0390E080E04AE00E94A90E89E6BC
:1050900094E00E940C0AE091A503F091A603848598
:1050A00095854F960E944A0F60E090E080E00E9454
:1050B000540A8C0183E5E82E84E0F82E99E6C92E87
:1050C00094E0D92EF7016491C8010E94540A8C0122
:1050D000FFEFEF1AFF0ACE14DF04A1F7FF24F394C9
:1050E0008091A2038F15E8F080E00E949809682F54
:1050F000C8010E94540A8C0180E00E947104682F4C
:10510000C8010E94540A8C0180E00E948C09682F1B
:10511000C8010E94540A66E00E94540A8C01F3946C
:10512000DFCF44E050E070E060E0CE0105960E94E1
:10513000232D30E020E02E6F3A6C09831A832B83F5
:105140003C836D817E818F8198850617170728071C
:10515000390709F490C00E944E1081E494E00E9447
:105160000C0A84E494E00E940C0A69817A818B81A4
:105170009C810E944E1081E494E00E940C0A2FEF63
:1051800083EC99E0215080409040E1F700C000009E
:1051900044E050E070E060E0CE0101960E94332DC3
:1051A00066E170E08091A3039091A4030E94DC105B
:1051B00085E00E94440A8F3FC9F0082F10E08091DB
:1051C000A3039091A403800F911F0E94711260911C
:1051D000A3037091A403600F711F8F738064898390
:1051E00041E050E0CE0101960E94332D66E182E15C
:1051F0000E949E1066E084E10E949E1062E080E2C0
:105200000E949E10882321F068E581E20E949E1092
:1052100060E082E20E949E10882321F060E083E239
:105220000E949E1084E20E94BE1088E20E94BE107E
:105230008CE20E94BE1010E08091A2031817D8F4EF
:10524000E12FF0E0EE0FFF1FEB55FC4FE080F18007
:105250006FE170E0F701848595850E94DC10F7010D
:1052600064857585198241E050E0CE0101960E9467
:10527000332D1F5FE1CF89E094E090937C0380930E
:105280007B031B821A821982BE016F5F7F4F809160
:105290009F039091A0030E94DE1184E080931D047F
:1052A00061E00E94DD038BE094E00E949E09E89893
:1052B00082E894E090930101809300018BE394E0F5
:1052C0009093EE018093ED0186E394E00E940C0A36
:1052D00060E082E00E94DD0384E394E00E940E0A15
:1052E00061E08AE00E94DD0361E08BE00E94DD0363
:1052F00060E08CE00E94DD0361E08DE00E94DD0350
:1053000080E58CBD61E08AE00E94AF0361E08DE042
:105310000E94AF0360E08BE00E94AF030E9405098A
:105320000E94FF080E94FB0887EC90E00197F1F7CC
:1053300000C000000E9405090E94FF0880E30E944F
:10534000F5080E94FF080E94FB0800E014E0A4E3B7
:10535000CA2EA4E0DA2EFF24F394F801319664916A
:10536000F801849143E00E94FF10811101C0F12CEB
:105370000E5F1F4FC016D10681F783EF93E00E94A6
:105380000C0A60EC81E30E9421090E94180F83ED52
:1053900095E00E940C0A83E30E940909FFE72FE1D0
:1053A00081E0F15020408040E1F700C0000043E080
:1053B00060EC8EE30E94FF108AEE93E00E940E0ADA
:1053C000FF2059F00E9405090E94FF080E94FB0877
:1053D0000E94180984E30E94090984EC99E09093E3
:1053E000010180930001809169008C7F826080932D
:1053F0006900E89A80E18093810010928000109209
:1054000085001092840080E197E29093870080935A
:10541000860082E1809381000E94720966E070E05C
:10542000F11002C068E070E08BE094E00E94AC11E3
:105430008B8190E001962AE0289F8001299F100D22
:1054400011248DE394E00E94030C24E630E0D8019F
:105450000E94A43128EE33E040E050E00E94733116
:1054600020934204309343044093440481E08093AA
:1054700045046DE374E080E593E00E94E90A61E091
:1054800089E00E94DD0360E089E00E94AF0360E0F4
:105490008EE00E94DD0360E08EE00E94AF03809109
:1054A000300490913104813D974030F080ED97E0D9
:1054B000909331048093300487E880937A001092AF
:1054C0007B00E0912004F09121040680F781E02D1B
:1054D00080E294E0099590932B0480932A0480E065
:1054E0009BEEA1E4B0E080932C0490932D04A09354
:1054F0002E04B0932F048093250490932604A09348
:10550000270460E274E080E593E00E94E90A86E106
:105510008093280487ED93E00E940C0A8091280470
:105520000E94431084E18093290484EC93E00E945C
:105530000C0A809129040E94431080919D03FCEF86
:10554000EF2EE80E855090E004960E947112D82E3E
:1055500000E01EE58E2D8150990B7C01802F90E09C
:105560008E159F0534F404960E94711218270F5F60
:10557000F5CF1D112BC084E090E00E947112182F0E
:1055800085E090E00E947112082F80EA810F8B3035
:10559000E8F482EB93E00E940C0A812F0E94180F1E
:1055A000802F0E94180F83ED95E00E940C0A43E0C3
:1055B00061E28DE00E94FF1043E0612F8EE00E94C7
:1055C000FF1043E0602F8FE00E94FF1088E080937F
:1055D000690362E00E94DD03EBE6F5E08491E7E514
:1055E000F5E09491923009F0D9C020912102282B46
:1055F0002093210220911E02282B20931E02EEEF01
:10560000F4E0A491923009F0D7C0B0E0AA0FBB1F1C
:10561000A05FBD4F2CEC3CE02D933C93E9E4F5E01A
:10562000A591B4919C9190930F022BE630E03093BA
:105630000E0220930D029091680091609093680093
:10564000A0910D02B0910E02EC918E2B8C9381E013
:105650008093A10389E793E00E946F139091A203C6
:1056600081E0981708F0E1C016E00EE040E1B42EAA
:1056700052E2A52EE12C0E942B0DF82E8111D7C0ED
:10568000E11004C00E942B0D8111D3C080917B03D7
:1056900090917C03FC0125AD22FF23C060E873E0FC
:1056A000C2960E9417158A30E0F01B821A82198276
:1056B000BE016F5F7F4F80919F039091A0030E9476
:1056C000DE11BE016F5F7F4F84E893E00E94830A82
:1056D000811107C060E873E089E793E00E946D18CC
:1056E000F82E882483948091A203881508F4A3C01F
:1056F000C090A503D090A603F601828580FB772495
:1057000070F880FF49C0E0917B03F0917C03F6883C
:10571000168ACF0102960E949E0990907F0393946F
:1057200090927F0360917D0370917E03CE0101967C
:105730000E94DD12E0917B03F0917C0383A9F601C6
:10574000938500938003B0928303A0928203109309
:105750008A039092810390938B0310928C03109292
:105760008D0380938E03AE014F5F5F4F60E873E05F
:1057700089E793E00E94C615F60182858E7F8287B5
:1057800080917B0390917C03FC01F68AF11004C0A8
:1057900002960E949E09F72C8394A5CF933009F0BE
:1057A00037C120912002282B2093200220911D0236
:1057B000282B20931D0223CF9330D1F4B0E0AA0F01
:1057C000BB1FAF5FBD4F2CEC3CE02D933C93EBE453
:1057D000F5E0A591B4919C91909300022CE630E005
:1057E00030930E0220930D0290916800926026CFB4
:1057F000943009F025CFB0E0AA0FBB1FA051BE4FD7
:105800002CEC3CE02D933C93EDE4F5E0A591B491B4
:105810009C919093EF012DE630E030930E0220939F
:105820000D0290916800946009CF8F5F1ACFEF2C22
:1058300022CFE82E27CFE110B4C0F110B2C0809182
:105840002A0490912B0464E670E00E945F318091FD
:10585000290486171706C9F0C0F08091460480FD20
:1058600007C00E949711809146048160809346048E
:105870000E94CF0930E020E050E040E06AE070E0B4
:1058800082E292E00E94A708F3CF80913A0481114E
:10589000B9C00E94CF0980916F008E7F80936F0006
:1058A00080E593E00E94C40A009709F487C0FC01D8
:1058B000329709F483C0C580D680E780F12C82E559
:1058C00093E00E94C40A892B09F069C0F1E0CF1669
:1058D000D104E104F10409F462C08091460480FD22
:1058E00007C00E949711809146048160809346040E
:1058F00021E2C21623E0D206E104F10408F062C0FE
:1059000085E6C816D104E104F10408F064C09DE006
:10591000C916D104E104F10408F065C0E2E0CE1636
:10592000D104E104F10408F066C06AE070E0C12C23
:10593000D12C760130E020E050E040E082E292E0BD
:105940000E94A70880E593E00E94C40A009719F11D
:10595000FC01329701F121E0C21AD108E108F108F7
:1059600085819681A781AC016A2F70E04150510971
:10597000610971094C155D056E057F0530F46C01F8
:10598000EA2E21E0C21AD108E1088C199D09AE095E
:1059900085839683A78380E593E00E94440D0E944F
:1059A000720980E090E0892B09F464CE0E94ED0436
:1059B000882309F45FCE0E9400005CCEC12CD12C5C
:1059C00076017DCF69E070E030E2C32E33E0D32E64
:1059D000E12CF12CAFCF66E070E024E6C22ED12C92
:1059E000E12CF12CA7CF63E070E09CE0C92ED12C14
:1059F000E12CF12C9FCF70E060E0C12CD12C76011E
:105A0000C39498CF61E08BE394E00E94A709C9CFCB
:105A1000943009F0F4CD20911F02282B20931F020F
:105A200020911C02282B20931C02E9CD89E793E0EA
:105A30000C943D0AFB01DC0102C005900D9241501F
:105A40005040D8F70895DC01CB01FC01F999FECF55
:105A500006C0F2BDE1BDF89A319600B40D924150F6
:105A60005040B8F70895DC01CB0103C02D910E948E
:105A70003E2D41505040D0F70895262FF999FECF82
:105A80001FBA92BD81BD20BD0FB6F894FA9AF99A5B
:105A90000FBE019608955058BB27AA270E94632D78
:105AA0000C94F42E0E94E62E38F00E94ED2E20F089
:105AB00039F49F3F19F426F40C94E32E0EF4E0958C
:105AC000E7FB0C94B42EE92F0E94052F58F3BA1768
:105AD000620773078407950720F079F4A6F50C9404
