:100000000C94EB020C9425200C94FE1F0C94E82217
:100010000C9485220C9414220C946B210C94822154
:100020000C9413030C94C4210C9413030C94130329
:100030000C9413030C94EE210C9413030C941303EF
:100040000C94B41F0C9413030C94821F0C945C1F2B
:100050000C9413030C94BA210C9413030C94130303
:100060000C944C200C94130307634236B79BD8A71B
:100070001A39685618AEBAAB558C1D3CB7CC5763CD
:10008000BD6DEDFD753EF6177231BF000000803F7B
:1000900008000000BE922449123EABAAAA2ABECD97
:1000A000CCCC4C3E00000080BEABAAAAAA3E000009
:1000B0000000BF000000803F000000000008417801
:1000C000D3BB4387D1133D190E3CC3BD4282AD2B38
:1000D0003E68EC8276BED98FE1A93E4C80EFFFBE30
:1000E00001C4FF7F3F0000000000300030300030CE
:1000F0003030003030303000303030303000303090
:10010000303030300030303030303030002000209F
:100110002D2000200020002000200020002000745E
:100120006D42617474657279204572726F720074E9
:100130006D4261747465727920566F6C7461676585
:100140003A20005348543331206661696C6564205D
:10015000746F20726561642068756D696469747973
:100160000053485433312048756D696469747920AF
:100170007831302020202020203A2000534854336A
:1001800031206661696C656420746F2072656164FA
:100190002074656D706572617475726500534854A2
:1001A00033312054656D70657261747572652078A5
:1001B00031302020203A20004D415834343030393D
:1001C000204272696768746E6573732078313030CD
:1001D0003A20000D0A0048756D692E20436F727237
:1001E00065637465642078313020202020203A2017
:1001F0000050726573732E20436F7272656374656D
:100200006420783130202020203A200054656D7021
:100210002E20436F727265637465642078313020DC
:10022000202020203A200068756D694F666673654E
:1002300074207831303A20200070726573734F66F5
:1002400066736574207831303A200074656D704FA4
:100250006666736574207831303A202000616C74D2
:1002600069747564653A20007570644379636C65E0
:100270003A20007472616E736D69744465765472CD
:10028000794D61783A20006C6F774261744C696DEA
:1002900069743A20006C65644D6F64653A200043D0
:1002A0006F6E666967204368616E6765643A204CCB
:1002B00069737430000D0A000D0A000D0A000D0A62
:1002C000000D0A002D3E2000007761697441636BC8
:1002D0003A20003C2D200000206C6F6E6772656C28
:1002E000656173656400206C6F6E6770726573730F
:1002F000656400206465626F756E636500207072CE
:100300006573736564002072656C65617365640074
:10031000424F4F544C4F41444552004841564520AE
:10032000444154410069676E6F726520002D3E2084
:1003300000746D426174746572794C6F616420451C
:1003400072726F7200746D426174746572794C6F71
:10035000616420566F6C746167653A2000524553A2
:100360004554005061636B657420746F6F2062693F
:10037000673A2000435243204661696C656400007F
:10038000000000240027002A0000000000250028AB
:10039000002B000000000800020100000304070019
:1003A00000000000000000436F6E6669672046721F
:1003B00065713A2030783231004261747465727927
:1003C0002073657420637269743A2000426174740A
:1003D00065727920736574206C6F773A2020002055
:1003E0002D207265616479004343205665727369FC
:1003F0006F6E3A2000002E0206030D04E905CA07BD
:100400000C0B060D210E650F6A10C811931203150F
:10041000341703181819161B431E2F1F6520782345
:10042000E9242A251F26113E033100434320696E2B
:100430006974000D0A00496E69742053746F72610B
:1004400067653A20000A0B0C051214202122232490
:1004500025262728292A2B2C2D2E2F202D20004120
:100460006464726573732053706163653A2000455C
:1004700072726F723A204D41583434303039206EE8
:100480006F7420666F756E64004D4158343430309F
:100490003920666F756E64004572726F723A205330
:1004A00048543331206E6F7420666F756E6400534C
:1004B0004854333120666F756E64000D0A00436C3A
:1004C0006F636B20535953434C4F434B005365723A
:1004D00069616C3A200053656E736F7220736574A6
:1004E000757020646F6E6500000000002300260018
:1004F00029000001020304050607000102030405A8
:1005000000010203040504040404040404040202B8
:100510000202020203030303030301020408102082
:1005200040800102040810200102040810204173D9
:100530006B53696E2B2B2076352E302E3020284DB4
:10054000617920203520323032312031373A34344D
:100550003A313529000000000000000000021405B7
:10056000050000000002010A010000000000000078
:10057000000000000000000000000000000603056D
:10058000010101010A060101010501050A02060235
:10059000020000000005010804040404000D0A0024
:1005A00020726561643A2000206578706563746527
:1005B000643A20004572726F722061742000A5A514
:1005C00002554E4953454E5330303100F1031470FB
:1005D00001014B23082B11241FBECFEFD8E0DEBF53
:1005E000CDBF11E0A0E0B1E0E6EDF1E602C005907C
:1005F0000D92A43AB107D9F724E0A4EAB1E001C012
:100600001D92AA38B207E1F712E0CAEED2E004C0A8
:100610002197FE010E949D2FC93ED107C9F70E9474
:10062000D0240C94DE300C94000008950895FC0151
:100630009081909528E030E081E397FF03C0990F07
:10064000982701C0990F21503109B9F78181892775
:1006500028E030E091E387FF03C0880F892701C0BD
:10066000880F21503109B9F708958FEF089566304A
:1006700050F4FC01808191810196F5E06F9F800D1F
:10068000911D1124089590E080E008950895AF929F
:10069000BF92CF92DF92EF92FF920F931F93CF936F
:1006A000DF936C017B018B01040F151FEB015E01D1
:1006B000AE18BF08C017D10759F06991D601ED9166
:1006C000FC910190F081E02DC6010995892B79F705
:1006D000C501DF91CF911F910F91FF90EF90DF90B7
:1006E000CF90BF90AF900895FC01538D448D252F7E
:1006F00030E0842F90E0821B930B541710F0CF96BC
:10070000089501970895FC01918D828D981761F0ED
:10071000A28DAE0FBF2FB11D5D968C91928D9F5F04
:100720009F73928F90E008958FEF9FEF0895FC01E3
:10073000918D828D981731F0828DE80FF11D858D96
:1007400090E008958FEF9FEF0895FC01918D228D29
:10075000892F90E0805C9F4F821B91098F739927AE
:10076000089582EA92E00E94A50321E0892B09F412
:1007700020E0822F089580E090E0892B29F00E94EC
:10078000B10381110C9400000895FC01A48DA80F01
:10079000B92FB11DA35ABF4F2C91848D90E00196C3
:1007A0008F739927848FA689B7892C93A089B189E3
:1007B0008C91837080648C93938D848D981306C084
:1007C0000288F389E02D80818F7D80830895EF92E8
:1007D000FF920F931F93CF93DF93EC0181E0888FFB
:1007E0009B8D8C8D98131AC0E889F989808185FFCB
:1007F00015C09FB7F894EE89FF896083E889F9896D
:1008000080818370806480839FBF81E090E0DF916E
:10081000CF911F910F91FF90EF900895F62E0B8DC1
:1008200010E00F5F1F4F0F731127E02E8C8D8E117C
:100830000CC00FB607FCFACFE889F989808185FFE3
:10084000F5CFCE010E94C503F1CFEB8DEC0FFD2F4C
:10085000F11DE35AFF4FF0829FB7F8940B8FEA899E
:10086000FB8980818062CFCF0F931F93CF93DF935B
:100870008C01D0E0C0E0F801EC0FFD1F649166230D
:1008800041F082EA92E00E94E703892B11F0219661
:10089000F2CFCE01DF91CF911F910F910895CF93A9
:1008A000DF93EC01888D8823B9F0AA89BB89E88998
:1008B000F9898C9185FD03C0808186FD0DC00FB63E
:1008C00007FCF7CF8C9185FFF2CF808185FFEDCFBC
:1008D000CE010E94C503E9CFDF91CF910895833007
:1008E00081F028F4813099F08230A9F008958730A2
:1008F000A9F08830C9F08430B1F4809180008F7DF8
:1009000003C0809180008F7780938000089584B524
:100910008F7784BD089584B58F7DFBCF8091B00023
:100920008F778093B00008958091B0008F7DF9CFCC
:10093000CF93DF93282F30E0F901ED56FC4F8491DF
:10094000F901E65EFA4FD491F901EA5FFA4FC491DA
:10095000CC23A1F081110E946F04EC2FF0E0EE0F88
:10096000FF1FE851FB4FA591B491EC91ED2381E07D
:1009700090E009F480E0DF91CF91089580E090E06D
:10098000FACF1F93CF93DF93282F30E0F901ED5674
:10099000FC4F8491F901E65EFA4FD491F901EA5FC8
:1009A000FA4FC491CC23A9F0162F81110E946F0435
:1009B000EC2FF0E0EE0FFF1FE757FC4FA591B4912D
:1009C0008FB7F894EC91111108C0D095DE23DC9319
:1009D0008FBFDF91CF911F910895DE2BF8CFCF937A
:1009E000DF9390E0FC01E65EFA4F24918A5F9A4F14
:1009F000FC0184918823C9F090E0880F991FFC01C5
:100A0000E158FC4FA591B491FC01E757FC4FC5910B
:100A1000D49161110DC09FB7F8948C9120958223D9
:100A20008C938881282328839FBFDF91CF910895DD
:100A3000623051F49FB7F8943C91822F80958323C4
:100A40008C93E8812E2BEFCF8FB7F894EC912E2B5F
:100A50002C938FBFEACF3FB7F8948091F201909129
:100A6000F301A091F401B091F50126B5A89B05C052
:100A70002F3F19F00196A11DB11D3FBFBA2FA92F1D
:100A8000982F8827BC01CD01620F711D811D911D1A
:100A900043E0660F771F881F991F4A95D1F7089585
:100AA0008F929F92AF92BF92CF92DF92EF92FF927E
:100AB0006B017C010E942B054B015C01C114D10428
:100AC000E104F104B9F00E942B05681979098A093B
:100AD0009B09683E73408105910580F321E0C21AAD
:100AE000D108E108F10888EE880E83E0981EA11C69
:100AF000B11CE4CFFF90EF90DF90CF90BF90AF900C
:100B00009F908F9008952091CA01260F3327331F9D
:100B100021323105ECF420917802FC0190E080E074
:100B2000243069F082E00895A091CA012191AC01BE
:100B300046555E4FA40FB52FB11D2C930196861715
:100B400098F38091CA01680F6093CA0180E008950C
:100B500081E008951092780281E0809377021092EC
:100B6000520261E082E10E94C10461E083E10E94DF
:100B7000C104E9EBF0E080818E7F808380818D7FEE
:100B8000808380E28093B80085E48093BC00089560
:100B9000109251021092500210927F021092A10204
:100BA0000E94AA0585E193E090934F0280934E0244
:100BB00086E193E090934D0280934C020895CF9389
:100BC000DF9391E09093A9018823B9F0C091B80018
:100BD000D091BA008091BC008A7B8093BC0060E019
:100BE00082E10E94C10460E083E10E94C1040E948E
:100BF000AA05D093BA00C093B800DF91CF910895B1
:100C00008F929F92AF92BF92CF92DF92EF92FF921C
:100C10000F931F93CF93DF93D091A102D13208F0AD
:100C2000D7C0182FC091A0020E942B056B017C0138
:100C30008091780281116BC082E0809378021093DA
:100C400077028FEF8093760210927502D093740230
:100C5000A0E8B2E0E4E5F2E080E0D81391C01092A1
:100C6000530280915302CC0FC82BC0935302809142
:100C70005202813009F088C0109252020E942B0566
:100C80006B017C01809153028093BB0080917A02BA
:100C900090917B02A0917C02B0917D02892B8A2BDE
:100CA0008B2BA1F00E942B0500917A0210917B0200
:100CB00020917C0230917D026C197D098E099F097B
:100CC000061717072807390708F442C08091BC00AF
:100CD00083FDD8CF85EC8093BC000E942B056B016F
:100CE0007C0180917802823009F450C080917602B4
:100CF0008F3F09F46FC080917602803209F46CC096
:100D000080917602803309F469C084E026C0809126
:100D10007A0290917B02A0917C02B0917D02892B96
:100D20008A2B8B2B09F484CF0E942B0580907A02AA
:100D300090907B02A0907C02B0907D026C197D099E
:100D40008E099F0986169706A806B90608F070CF87
:100D5000809179020E94DF0585E010927F02109257
:100D6000A10210927E02DF91CF911F910F91FF900F
:100D7000EF90DF90CF90BF90AF909F908F900895AD
:100D80009D9191938F5F69CF85EEA5CF80917A0277
:100D900090917B02A0917C02B0917D02892B8A2BDD
:100DA0008B2B09F49ECF0E942B0500917A021091A3
:100DB0007B0220917C0230917D026C197D098E09A5
:100DC0009F09061717072807390708F08ACFC0CFF1
:100DD00081E0C3CF80E0C1CF82E0BFCF83E0BDCF51
:100DE0008F929F92AF92BF92CF92DF92EF92FF923B
:100DF0000F931F93CF93DF93D82FC62F142F6132F9
:100E000008F09CC00E942B056B017C018091780248
:100E100081116FC081E080937802109377029FEF79
:100E200090937602109275029C0F909374028093B7
:100E3000530280915302DD0FD82BD093530280913F
:100E40005202813009F07CC0109252020E942B05A0
:100E50006B017C01809153028093BB0080917A02E8
:100E600090917B02A0917C02B0917D02892B8A2B0C
:100E70008B2BA1F00E942B0500917A0210917B022E
:100E800020917C0230917D026C197D098E099F09A9
:100E9000061717072807390708F44CC08091BC00D3
:100EA00083FDD8CF85EC8093BC000E942B056B019D
:100EB0007C0180917802813009F444C080917502F0
:100EC0008C1710F4C0917502E4E5F2E0ACE2B2E0F8
:100ED00080E08C1359C08C2FDF91CF911F910F911F
:100EE000FF90EF90DF90CF90BF90AF909F908F904A
:100EF000089580917A0290917B02A0917C02B0913A
:100F00007D02892B8A2B8B2B09F480CF0E942B0525
:100F100080907A0290907B02A0907C02B0907D023B
:100F20006C197D098E099F0986169706A806B906D1
:100F300008F06CCF809179020E94DF05C0E0CBCF32
:100F400085EEB1CF80917A0290917B02A0917C02D4
:100F5000B0917D02892B8A2B8B2B09F4AACF0E949A
:100F60002B0500917A0210917B0220917C02309136
:100F70007D026C197D098E099F090617170728073E
:100F8000390708F096CFD6CF91919D938F5FA1CF6F
:100F90000895E091510280915002E81730F4F0E09A
:100FA000E45DFD4F808190E008958FEF9FEF0895FD
:100FB00090915102809150022FEF3FEF981748F423
:100FC000E92FF0E0E45DFD4F208130E09F5F9093DA
:100FD0005102C90108958091500290915102891BDC
:100FE000990B0895CF92DF92EF92FF920F931F9388
:100FF000CF93DF937C01CB018A0120917E022223D3
:1010000089F0EB016B01C40ED51ECC15DD0569F02E
:101010006991D701ED91FC910190F081E02DC7011C
:101020000995F3CF642F0E948305C801DF91CF910A
:101030001F910F91FF90EF90DF90CF900895CF9385
:10104000DF931F92CDB7DEB7698320917E02222302
:10105000F9F02091A102203258F021E030E0FC01AB
:101060003383228390E080E00F90DF91CF91089549
:1010700080917F02E82FF0E0E058FD4F9981908346
:101080008F5F80937F028093A10281E090E0ECCF9C
:1010900061E0CE0101960E948305F7CF682F84E5B9
:1010A00093E00C941F0881E00C940006CF93DF932B
:1010B000EC018B818823A9F089819A81288131E014
:1010C00030937E022093A00210927F021092A10220
:1010D0000E94530891E0811190E0892FDF91CF9118
:1010E00008950E94C80581E08B83CE010E945608B6
:1010F000982F8111E1CFF1CF90E080E00895411564
:10110000510529F4EAE7F0E080818F7780836A3027
:101110007105B9F0CB01880F991F880F991F807254
:1011200067706860682B88E10FB6F894A895809383
:1011300060000FBE60936000E0E6F0E080818064B4
:101140008083232BD9F483B7817F846083BFF89495
:1011500083B7816083BF85B7806685BF8F7D85BF7C
:101160007894889583B78E7F83BF7894452B29F434
:10117000EAE7F0E0808180688083089583B7817F0B
:10118000846083BFF89483B7816083BF7894889527
:1011900083B78E7F83BF7894E9CF8EBD0DB407FEF1
:1011A000FDCF8EB5089561E08AE00C94C1048CE017
:1011B0000E9498048111FBCF089560E08AE00C94AE
:1011C000C104CF93C82F0E94DD080E94D7088C2F3E
:1011D0000E94CD08C82F0E94D3088C2FCF9108956C
:1011E00086E30E94E1088DE30E94E1088AE30C9403
:1011F000E108CF93DF93D82FC62F0E94DD080E940D
:10120000D7088D2F8C2B0E94CD0880E00E94CD083E
:10121000C82F0E94D3088C2FDF91CF910895BC0175
:1012200090E080E00E94500584E090E030E020E013
:1012300060E170E040917A00406440937A0042E3BC
:1012400050917A0056FF08C0FB013197F1F74150E9
:10125000B9F790E080E008954091780050917900CE
:101260005370240F351F019729F7C901969587956B
:1012700096958795237033272230310560F30196C8
:101280000895EFE6F0E080818160808308958631E3
:1012900030F4E82FF0E0EB5BFB4F849108958FEF83
:1012A0000895FC01108608950895813011F08FEFA4
:1012B000089580E00895882311F08FEF089581E06C
:1012C0000895883011F08FEF089580E00895882305
:1012D00011F08FEF089588E00895FC0182899389C9
:1012E00061E0911101C060E00C94C1041F93CF93A1
:1012F000DF93FC01238520FF11C0162FEC010E9413
:10130000DD080E94D7080E94D30811110E94F0083E
:1013100084E30E94E1088B858E7F8B87DF91CF91DC
:101320001F9108950895E091F601F091F7018385EA
:1013300081FD03C083858C608387089582EA92E0F3
:101340000E944F048091C00085FD06C08091C000BE
:1013500080648093C000F6CF8091C00086FFFCCFF0
:1013600008950895089580E0089508950F931F93B8
:10137000CF93DF932EE431E0FC01318320838C0195
:10138000095B1F4F81F0EC01CB55DF4F0C171D0798
:1013900051F0CE55D109E881F9810280F381E02D29
:1013A000CE010995F3CFDF91CF911F910F91089551
:1013B0000895089508950C9434040E94DB098EEB7F
:1013C00092E00C94DB090F931F93CF938C01C62FEF
:1013D00083EF92E06430A1F058F486E093E062304D
:1013E00079F08DEF92E0633059F087ED92E008C01C
:1013F00086EE92E0653021F088ED92E06630A9F744
:101400000E94DD09C770F8018085887FC82BC087DE
:10141000CF911F910F9108952AE531E0FC013183AE
:1014200020830C94B6090895982FE5E4F4E080E059
:101430002491921729F08F5F31968631C9F78FEF8B
:1014400008950C94140A0895862728E0BC01769527
:101450006795AC014170552780FF02C041E050EA1A
:10146000CB0184279527215089F70895FC0110822C
:1014700011821282138216821582148211861086BE
:101480001782128613860895FC018081811109C09C
:101490008181811106C081E09281911103C080E0B9
:1014A000089581E00895DC01FB019C9180819813EF
:1014B0000BC011969C9111978181981305C081E012
:1014C00012962C919281291380E00895FC013381BA
:1014D000FB012381321302C00C94530A80E008956B
:1014E000CF93DF9300D000D0CDB7DEB7FC01808969
:1014F0009485998395859A8396859B838C8388238D
:1015000089F0BF01645F7F4FCE0101960E94660A99
:10151000811108C082E00F900F900F900F90DF9123
:10152000CF91089581E0F7CF2FB7F894FC01808127
:1015300091812FBF0895FF920F931F93CF93DF9355
:10154000EC018B01FFB6F8940E94940A9C019FB7AE
:10155000F894F801318320839FBF8FB7F8941983E3
:1015600008838FBFFFBEDF91CF911F910F91FF9036
:1015700008956F927F928F92DF92EF92FF920F9376
:101580001F93CF93DF937B0122E0E20EF11CDB017E
:1015900015962D913D914C91232B242B09F44FC08E
:1015A000EB018C01DFB6F8949C819F7090619C8365
:1015B000C8010E94940A009709F43EC0FC013297CA
:1015C000A1F06580768087802D813E814F81CF019B
:1015D000029662167306840650F4261937094809E4
:1015E0002D833E834F838C01E4CF90E080E02FB7C2
:1015F000F8949B838A832FBF8FB7F894D801ED921C
:10160000FC928FBF309761F085819681A7812D81F3
:101610003E814F81821B930BA40B85839683A78306
:10162000DFBEDF91CF911F910F91FF90EF90DF9080
:101630008F907F906F900895F0E0E0E0D8CFB701F1
:101640000296DF91CF911F910F91FF90EF90DF9065
:101650008F907F906F900C949B0A1F93CF93DF9392
:10166000EC01FB012885922F9770943079F040F4BB
:10167000923051F0933039F1DF91CF911F9108955D
:10168000953009F19630C1F711E012C023FD21C059
:101690002A853B852550310913E02115310541F09C
:1016A00040E02D833E834F83BE01CF010E94B90AE3
:1016B000E881F9810680F781E02D612FCE01DF916D
:1016C000CF911F91099423FDD7CF2A853B8515E043
:1016D000E4CF25E030E012E0E3CFFF920F931F93B9
:1016E000CF93DF93EC018B01E889FF24F394FE0E86
:1016F000F88AE80FF92FF11D228530E0A4E6B0E06A
:101700000E94872F2AE030E040E050E00E94652FE1
:101710002D833E834F83F0FE11C08A899B8960E050
:10172000911101C061E00E94C104BE01C801DF91B6
:10173000CF911F910F91FF900C94B90ACE010E9496
:101740006D09F3CF0F931F93CF93DF93EC018B01C0
:10175000E881F9810680F781E02D09959B878A87CA
:101760008C859D85AE858D839E83AF83BE01C80128
:10177000DF91CF911F910F910C94B90AEF92FF92D4
:101780000F931F93CF93DF93EC01FFB6F8940E9461
:10179000940A8C01892B71F0EFB6F894CE010E9467
:1017A000940A0E94940A9C019FB7F8943983288375
:1017B0009FBFEFBEFFBEC801DF91CF911F910F9178
:1017C000FF90EF900895BF92CF92DF92EF92FF9239
:1017D0000F931F93CF93DF93EC01FFB6F8948C81A6
:1017E0008F708C8380E593E00E94940A0097C9F182
:1017F0009C012250310980E593E02115310589F1E2
:1018000089010E5F1F4FC217D30709F50E94BE0B57
:10181000C8010E94940A009779F0FC01329761F0A8
:1018200085819681A7812D813E814F81820F931FF3
:10183000A41F85839683A783FFBEDF91CF911F915D
:101840000F91FF90EF90DF90CF90BF900895C80167
:101850000E94940A009729F09C0122503109C80186
:10186000CCCF6E0182E0C80ED11CEFB6F894BFB6A3
:10187000F89482E593E00E94940AEC0122E533E0BB
:10188000209779F010E000E0CC16DD0609F489011C
:10189000CE010E94940A9E010115110521F4EC016C
:1018A000EFCF10E000E0BFBE0115110511F4EFBE4F
:1018B000C3CFC8010E94BE0BFACFEF92FF920F93E5
:1018C0001F93CF93DC0118960D911C91F80181852F
:1018D0000E949804D8011896CC911897C3FBEE2467
:1018E000E0F8F12C8E151F04C9F180FBC3F918969E
:1018F000CC93C770C33031F0C53021F0C130C1F492
:10190000C4E007C0F801808583FF12C0C33021F115
:10191000C6E0C8010E94E30B85E090E0A0E0F8017A
:1019200085839683A783B80180E593E00E94B90A76
:10193000D80118968C91189787708C1779F0ED91D3
:10194000FC910680F781E02D6C2FC801CF911F918B
:101950000F91FF90EF900994C2E0DBCFCF911F91E0
:101960000F91FF90EF9008958CE693E00E94E30BB7
:101970006CE673E080E593E00C94B90A8F929F9235
:10198000AF92BF92CF92DF92EF92FF92CF93DF930D
:10199000EC014A015B0180E593E00E94940A009704
:1019A000B9F481E08887CE010E94E30B8D829E828C
:1019B000AF82BE0180E593E0DF91CF91FF90EF9081
:1019C000DF90CF90BF90AF909F908F900C94B90A0A
:1019D0000297C12CD12C7601009719F3FC012581C7
:1019E00036814781642FA90170E0C40ED51EE61E22
:1019F000F71EC817D90739F002960E94940A00977B
:101A000081F20297E9CFC814D904EA04FB0448F232
:101A1000DF91CF91FF90EF90DF90CF90BF90AF908C
:101A20009F908F90089582E593E00E94BE0B0097EF
:101A3000B1F0DC01129799F014968C9114978F7085
:101A400014968C931497ED91FC9111970190F0816D
:101A5000E02D60E573E0CD01099581E0089580E017
:101A60000895CF92DF92FF920F931F93CF93DF934E
:101A70008C01FFB6F8940E94940A009771F1EC0172
:101A8000229759F18D819E81AF810197A1098D83A4
:101A90009E83AF83680182E0C80ED11C8D819E8138
:101AA000AF81892B8A2BC9F4C8010E94BE0B8C819F
:101AB000982F9F7080FF1BC09C83E881F981019063
:101AC000F081E02DB801CE010995C8010E94940A69
:101AD000009719F0EC01229709F7FFBEC801DF91CA
:101AE000CF911F910F91FF90DF90CF900895BE018D
:101AF0006E5F7F4FC6010E949B0AE7CFCF92DF92B5
:101B0000EF92FF920F931F93CF93DF93DC01149614
:101B10002D913C912417350730F1EA016B017C01CE
:101B200041E06C2FFC0180810E94F006109251026E
:101B3000809350028C171D06B1F48601CC0DDD1D7B
:101B4000D70111968D919C91DC01ED91FC9102845D
:101B5000F385E02D0995F80181938F01CE17DF07FA
:101B600079F781E001C080E0DF91CF911F910F9163
:101B7000FF90EF90DF90CF900895CF93DF9300D048
:101B8000CDB7DEB779836A83DC011A96ED91FC91BB
:101B900084819581029710F490E020C08181928128
:101BA000208131E030937E022093A00210927F02C8
:101BB0001092A102DC01ED91FC910280F381E02DF5
:101BC00042E050E0BE016F5F7F4F0995029721F719
:101BD00081E00E94000691E08111DECF892F0F90F5
:101BE0000F90DF91CF910895FF920F931F93CF93A2
:101BF000DF9300D000D000D0CDB7DEB78C0160E01D
:101C000074E20E94BD0D64E170E080E090E00E940B
:101C1000500546E050E0BE016F5F7F4FF8018285BE
:101C200093850E947E0DFB80CE0101960E941703D2
:101C3000F81252C0FE80CE0104960E941703F812DB
:101C40004BC029813A81322723273227A7E1B1E10E
:101C50000E94872F2EE095958795779567952A9511
:101C6000D1F764597141810991090E94542C20E0F7
:101C700030E048EC52E40E94AA2BF801648375839B
:101C8000868397832C813D81322723273227A1E742
:101C9000B2E00E94872F3CE09695879577956795EF
:101CA0003A95D1F70E94522C20E030E048EC52E403
:101CB0000E94AA2BF801608371838283938381E061
:101CC00026960FB6F894DEBF0FBECDBFDF91CF9141
:101CD0001F910F91FF90089580E0F2CF8F929F9215
:101CE000AF92BF920F931F93CF93DF93CDB7DEB721
:101CF000A1970FB6F894DEBF0FBECDBF19A2423038
:101D000008F44AE08E010F5D1F4F842E912CB12CF8
:101D1000A12CA50194010E94652FE62FB901CA01EB
:101D2000EA3044F5E05DD801EE938D01232B242B9E
:101D3000252B79F790E080E0109769F0FD01019084
:101D40000020E9F73197AF014A1B5B0BBD0182EA26
:101D500092E00E944703A1960FB6F894DEBF0FBE33
:101D6000CDBFDF91CF911F910F91BF90AF909F900A
:101D70008F900895E95CD7CFCF92DF92EF92FF92D8
:101D8000CF93DF9397FF1BC06B017C016DE282EA6A
:101D900092E00E94E703EC0166277727CB016C19DC
:101DA0007D098E099F094AE00E946E0E8C0F9D1FCF
:101DB000DF91CF91FF90EF90DF90CF9008954AE0B0
:101DC000DF91CF91FF90EF90DF90CF900C946E0E4B
:101DD000682F880F770B880B990B0E94BC0E81EC43
:101DE00092E00C94DB09CF93C82F803128F460E394
:101DF00082EA92E00E94E7036C2F70E090E080E0BE
:101E000040E1CF910C946E0EBC0190E080E04AE07E
:101E10000E946E0E8BEB92E00C94DB094AE00E946C
:101E20006E0E88EB92E00C94DB09CF92DF92EF927A
:101E3000FF92CF93DF93EC0180917C0080738093BD
:101E40007C0080917C00806C80937C0080917C0081
:101E500080937C0061E089E00E94C10488899989AF
:101E60000E940F096C0160E089E00E94C104C11466
:101E7000D104E9F09601A0EEBBEA0E94872F20E092
:101E800038E240E050E00E94652F69017A0185E464
:101E900093E00E94DB09C701B6010E940E0FC60144
:101EA000DF91CF91FF90EF90DF90CF90089581E385
:101EB00093E00E94DB09F3CFCF92DF92EF92FF9283
:101EC00080917C00807380937C0080917C00806492
:101ED00080937C0080917C008E6080937C0082E304
:101EE00090E00E940F096C010097C9F09C0150E03E
:101EF00040E060E070E381E190E00E94652F6901BD
:101F00007A018FE291E00E94DB09C701B6010E94CD
:101F10000E0FC601FF90EF90DF90CF9008958FE1F4
:101F200091E00E94DB09F5CFEF92FF920F931F9390
:101F3000CF93DF93EC0188810E94F30E8DE191E055
:101F40000E94DB0989810E94F30E8BE191E00E94DF
:101F5000DB098A810E94F30E89E191E00E94DB098E
:101F60008B810E94F30E87E191E00E94DB098C8156
:101F70000E94F30E8D810E94F30E8E810E94F30E5B
:101F800085E191E00E94DB098F810E94F30E888534
:101F90000E94F30E89850E94F30E83E191E00E9476
:101FA000DB09088109502A967E0110E0C7018C1BCD
:101FB0009D0B8017910754F4F70181917F010E94D6
:101FC000F30E8DE091E00E94DB09F0CF8FE091E00D
:101FD0000E94DB092FB7F8946091EE017091EF0138
:101FE0008091F0019091F1012FBFDF91CF911F916E
:101FF0000F91FF90EF900C940E0F682F70E090E01F
:1020000080E04AE00E946E0E85EB92E00C94DB09C2
:10201000CF92DF92EF92FF926B017C0180E1C816B4
:10202000D104E104F10468F485E091E00E943404F5
:1020300040E1C701B601FF90EF90DF90CF900C9484
:102040006E0E8FEFC816D104E104F10409F018F404
:102050008EEF90E0EBCFC11480E1D806E104F104EB
:1020600018F488EF90E0E2CFC114D10481E0E806D3
:10207000F10418F483EF90E0D9CFC114D10480E1CA
:10208000E806F10418F48FEE90E0D0CFC114D1042B
:10209000E10481E0F80618F48CEE90E0C7CFC1149B
:1020A000D104E10480E1F80618F68AEE90E0BECF94
:1020B0001F93CF93DF931F92CDB7DEB7162F0E94E9
:1020C000140A8F3F99F06091B4037091B503680FC3
:1020D000711D198341E050E0CE0101960E94252B2D
:1020E00081E00F90DF91CF911F91089580E0F9CFAB
:1020F000CF93C82F60E00E9458108823A1F060E0C1
:1021000081E08C0F0E945810882369F060E082E023
:102110008C0F0E945810882331F060E083E08C0F10
:10212000CF910C94581080E0CF910895EF92FF92D8
:102130000F931F93CF93DF931F92CDB7DEB78C0120
:102140007B01E80EF91E198241E050E0B801CE0192
:1021500001960E94252B0F5F1F4FE016F10699F79D
:1021600081E00F90DF91CF911F910F91FF90EF9041
:1021700008950F931F93CF93DF93D82FC62F142F5B
:102180000E94DD080E94D7088D2F0E94CD088C2F59
:102190000E94CD080E94D30860E88D2F0E94F908A4
:1021A000082F81E0C01771F0112389F04FEF410F24
:1021B0006C2F8D2F0E94B910EFECF7E03197F1F7FB
:1021C00000C00000DF91CF911F910F91089584EB23
:1021D00095E00E94DB098D2F0E94F30E88EA95E0BE
:1021E0000E94DB098C2F0E94F30E80EA95E00E948A
:1021F000DB09802F0E94F30E8DE995E00E94DB0938
:1022000080E0E0CF85ED8093BC0080917A029091D0
:102210007B02A0917C02B0917D020796A11DB11DA9
:1022200023E0B695A795979587952A95D1F72091A4
:10223000BC0024FD03C010927802089540917A02F8
:1022400050917B0260917C0270917D02452B462B60
:10225000472B69F30097A105B10541F02AE12A95C2
:10226000F1F700C00197A109B109E1CF809179028E
:102270000C94DF05CF93CFEF86E30E94E108C150B5
:10228000807731F08AE18A95F1F700C0C111F4CF6F
:102290008AE30E94E10889E3CF910C94E1080F934F
:1022A0001F93CF93DF93EC018B010E94E30BCE01D0
:1022B0000E946D09B80183E0660F771F8A95E1F7E8
:1022C0006B5A7A4F48E050E0CE0108960E940C2BE2
:1022D0008885882359F0188A198A60E573E0CE0151
:1022E000DF91CF911F910F910C946D0BDF91CF91E6
:1022F0001F910F9108950F931F93CF93DF9300D0F9
:102300001F92CDB7DEB78B0143E050E0BC01CE0198
:1023100001960E940C2B9A818B812981F8012083E0
:10232000918382830F900F900F90DF91CF911F9137
:102330000F9108951F93CF93DF93EC011FB7F8948B
:1023400098898885981740F4CE010E946D0B1FBFB5
:10235000DF91CF911F910895188A99859923A1F350
:1023600089898F5F898B891778F3CE010E946D0967
:1023700048E050E065E575E0CE0108960E940C2B20
:10238000E6CFCF93DF93EC010E94B609CE01DF9137
:10239000CF910C943F300C943F300C943F300C9410
:1023A0003F300C943F300C943F300C943F300C94F1
:1023B0003F30CF93DF93EC010E940C0ACE01DF91F6
:1023C000CF910C943F300C943F300C943F300C94E0
:1023D0003F30CF93DF931F92CDB7DEB7198241E034
:1023E00050E0BC01CE0101960E94152B89810F900F
:1023F000DF91CF910895CF93DF93EC0185E00E94A8
:10240000140A8F3F71F028813981820F932F911D1B
:102410000E94E9118295869586958370DF91CF9110
:10242000089581E0FBCFCF93DF93EC0188E10E9418
:10243000140A8F3F59F028813981820F932F911D03
:102440000E94E9118170DF91CF91089580E0FBCF68
:10245000CB960E94131281110DC08DE593E00E946E
:10246000DD0964E070E090E080E00E949610F0E00A
:10247000E0E0099408950F931F93CF938C01862F6A
:10248000C42F0E94140A8F3F59F0F8012081318136
:10249000820F932F911DCF911F910F910C94E911F1
:1024A0008C2FCF911F910F910895EF92FF920F9370
:1024B0001F93CF93DF93EC018B0140E06CE0C801E8
:1024C0000E943B12F82E40E06BE0C8010E943B12D4
:1024D000E82E40E06AE0C8010E943B128883E9824E
:1024E000FA82CE01DF91CF911F910F91FF90EF9073
:1024F00008958F929F92AF92BF92CF92DF92EF9208
:10250000FF921F93CF93DF93EC01162F40E00E94C0
:102510003B12C82E61E0610F40E0CE010E943B12E9
:10252000D12CF12CE12CFC2CEE24DD24CC2490E0E9
:10253000B0E0A0E0DC019927882746015701880E0A
:10254000991EAA1EBB1E62E0610F40E0CE010E94F0
:102550003B1290E0B0E0A0E0CC24D82EE92EFA2E79
:10256000C80CD91CEA1CFB1C63E0610F40E0CE01E3
:102570000E943B12A7019601280F311D411D511DDC
:10258000CA01B901DF91CF911F91FF90EF90DF90C9
:10259000CF90BF90AF909F908F9008950F931F930F
:1025A000CF938C0140E060E20E943B12C82F40E0D4
:1025B00061E2C8010E943B122C2F30E0322F22270B
:1025C000820F932F911DCF911F910F910895FF922C
:1025D0000F931F93CF93DF938C018FE992E00E94BA
:1025E000DD09E801EB96CE010E94FB11F82E85E98A
:1025F00092E00E94DB098F2D0E94FD0F40E062E116
:10260000CE010E943B12F82E87E892E00E94DB097F
:102610008F2D0E94FD0FF80102811381F801F68EC3
:102620008CEC93E00E94DB09F801868D0E94FD0F7F
:1026300046E064E1CE010E943B12182F811101C0D7
:1026400011E083E792E00E94DB09812F0E94FD0FD9
:10265000CE010E94CE128C0188E692E00E94DB0936
:10266000C8010E94040F40E062E2CE010E943B12CA
:10267000182F40E063E2CE010E943B12082F8DE547
:1026800092E00E94DB09812F90E0982F8827800F2D
:10269000911D0E94040F64E2CE010E947912162F50
:1026A0008BE492E00E94DB09812F0E94E80E68E231
:1026B000CE010E947912162F89E392E00E94DB0975
:1026C000812F0E94E80E6CE2CE010E947912C62F83
:1026D00087E292E00E94DB098C2FDF91CF911F915E
:1026E0000F91FF900C94E80ECF93DF93EC01CB0198
:1026F0001A82198218821B82642F04960E94370363
:10270000009731F044E050E0BC01CE010E94152B4F
:10271000CE01DF91CF910895EF92FF921F93CF9357
:10272000DF9300D000D0CDB7DEB77C0110E0412FA1
:10273000B701CE0101960E947413CE0101960E944A
:10274000440A882321F01F5F163089F71FEF812F7D
:102750000F900F900F900F90DF91CF911F91FF90EE
:10276000EF900895AF92BF92CF92DF92EF92FF92D7
:102770001F93CF93DF9300D000D0CDB7DEB77C019D
:102780006B0110E05C0184E0A80EB11C412FB70181
:10279000CE0101960E947413B601CE0101960E94EB
:1027A000660A882379F01B821A8219821C82612FA3
:1027B000C5010E94370344E050E0BC01CE01019600
:1027C0000E94252B1F5F163009F781E00F900F90B4
:1027D0000F900F90DF91CF911F91FF90EF90DF90BE
:1027E000CF90BF90AF900895AF92BF92CF92DF92FB
:1027F000EF92FF921F93CF93DF9300D000D0CDB71D
:10280000DEB77C016B015A0110E0412FB601CE0109
:1028100001960E947413B501CE0101960E94660ACA
:102820008823C1F0612FC60104960E9437030496E5
:10283000F70191838083C7010F900F900F900F9045
:10284000DF91CF911F91FF90EF90DF90CF90BF90DD
:10285000AF9008951F5F1630C1F690E080E0E8CF9A
:10286000CF93DF9300D000D000D01F92CDB7DEB75A
:10287000FC0121111FC083AD94AD9A83898386E149
:102880008B8387E499E09D838C8381E29AE09F8328
:102890008E8329813A814B815C816D817E818F811C
:1028A00090E027960FB6F894DEBF0FBECDBFDF9144
:1028B000CF910895662331F182AD861750F105ACB2
:1028C000F6ADE02D213069F44485558561E081E65F
:1028D00099E027E639E05A8349836B833D832C8353
:1028E000D6CF2430B1F4BF01685F7F4FCE0101968F
:1028F0000E94F41349815A8185E599E02BE539E07E
:1029000061E0E9CF90E080E030E020E050E040E09E
:10291000E2CF90E080E030E020E060E0F7CFAF92DF
:10292000BF92CF92DF92EF92FF920F931F93CF93BC
:10293000DF93EC017B018B858B7F8B878E01035F9F
:102940001F4F60EC8BE30E94F90818160CF041C091
:1029500060E88FE30E94F908D82E49E2481708F48E
:1029600063C00E94DD080E94D7088FEF0E94CD0847
:10297000C02E58018A2D8C198D1538F480E00E94E4
:10298000CD08F50181935F01F5CF0E94D30860E87F
:102990008FE30E94F908282F30E0082E000C990BD5
:1029A00088279170A901481B590BCA0157FD019650
:1029B00095958795919581959109865B898360E8C6
:1029C0008FE30E94F90887FD05C084E793E00E9429
:1029D000DD09D12C8AE30E94E1088BE791E00197A1
:1029E000F1F700C000000E94F00884E30E94E108B3
:1029F000DD2051F1DC868D8596E798279D8721E0C3
:102A00004D2D50E0BA0161507109A22FB0E0F801DC
:102A1000EA0FFB1F9081A617B70774F48452892729
:102A200080832F5F892FF1CF83E693E00E94DB093B
:102A30008D2D0E94FD0FCDCF8E8589278083B80113
:102A4000C70101960E94D530F701D0821C8660E054
:102A5000CE010E947609F7018081DF91CF911F910D
:102A60000F91FF90EF90DF90CF90BF90AF900895BF
:102A70002F923F924F925F926F927F928F929F928E
:102A8000AF92BF92CF92DF92EF92FF920F931F937C
:102A9000CF93DF93CDB7DEB7E0970FB6F894DEBFE4
:102AA0000FBECDBF6C018B01FA018081DB0117964F
:102AB0008C931797818118968C9318978281199619
:102AC0008C9368E473E0CA010E94530A882329F0BA
:102AD000F80182818F7D84608283B8016C5F7F4FB3
:102AE000D601D7968D919C910E947B11F80182812D
:102AF0008068828346E064E1D60114968D919C91B2
:102B00000E943B12B82E811102C0BB24B394F6017F
:102B1000848195810E94FB11782E882349F0D6018B
:102B200012968D919C9162E070E002960E944F1186
:102B3000F8013196F8ABEFA73AE0432E512C612C07
:102B4000C80107969EA78DA7BB2009F45CC1D601DA
:102B50001296ED90FC904701B1E38B0E911CF801A9
:102B6000828180718BA71701FEE32F0E311CD801E3
:102B70004C9150E06FA578A9C1010E94D530F801B1
:102B80002081D701DD962C93DD97DE968C91B6E7F8
:102B90008B27F70186AF77AD61E02150330B462FCD
:102BA00050E0F101E40FF51F9081421753072CF418
:102BB0008452892780836F5FF2CF97279083D70154
:102BC000DD96BC91BCA7B7016D5C7F4FF701A3AC4C
:102BD000AA2039F08FEC97E00197F1F700C00000D0
:102BE000F5CFD70140AE51AE62AEE1E0DB96EC939B
:102BF00080E593E00E94B90A61E0C4010E94760971
:102C0000D701DC968C91DC978260DC968C9386E30E
:102C10000E94E1088BE30E94E10828EC922E85E3F4
:102C20000E94E108E7ECF0E03197F1F700C0000006
:102C30009A94911058C086E30E94E1088BE30E94A9
:102C4000E1088DE30E94E10884E30E94E10860EC62
:102C500085E30E94F9088D30B9F7912CD701DC96F5
:102C60008C91DC978D7FDC968C9383ED92E00E94B3
:102C7000DB09C8010E94940FBA94992009F464CF2B
:102C8000F801828185FF2BC08DA59EA50E94440A74
:102C9000882329F1CE0101960E94360A8CE3F82E92
:102CA000D60112968D919C91FC0124AD22FD6CC041
:102CB0008FE19EE40197F1F700C00000FA94F11053
:102CC000EFCF89EC92E00E94DB098A2D0E94F30E7F
:102CD00088EC92E00E94DD09AA2009F435CF71103A
:102CE000B8C011E09CC060EC85E30E94F908833114
:102CF00009F095CF8FE19EE40197F1F700C0000045
:102D00009BA5992349F0AFE7BBE8E8E0A150B040AC
:102D1000E040E1F700C000000E94DD080E94D708F3
:102D20008FE30E94CD088CA50E94CD080E94D30895
:102D30000E94DD080E94D7088FE70E94CD082BA6CD
:102D40004101882DFBA58F1B2CA5821730F4D401DF
:102D50008D914D010E94CD08F4CF0E94D30898ECCC
:102D6000992E60EC85E30E94F9088D3019F49924BE
:102D7000939474CFE7ECF0E03197F1F700C00000D6
:102D80009A949110EECFF3CFBE016F5F7F4FC19643
:102D90000E948F14882309F48BCF84EC92E00E9468
:102DA000DB09CE0101960E94940FD80111969C91E7
:102DB0008A8198137DCFBE016B5F7F4F8DA59EA545
:102DC0000E94530A882309F473CF8C81823041F426
:102DD0008B85A82EA094AA1CAA24AA1C87FDB12C1E
:102DE000F801828181FD03C08B8180FF6ACFD6010B
:102DF00012968D919C9142E350E060E070E08896DD
:102E00000E94BE0C5ECF10E0772049F0F60182816F
:102E1000938110E064E070E002960E944F11812FD0
:102E2000E0960FB6F894DEBF0FBECDBFDF91CF9115
:102E30001F910F91FF90EF90DF90CF90BF90AF90D8
:102E40009F908F907F906F905F904F903F902F90CA
:102E50000895D60112968D919C9111E063E070E087
:102E6000DBCF0F931F93CF93DF93EC018B018AE1AC
:102E70008B871E861D864C871E8A6FA978ADFB0145
:102E8000719684913197E491ED8B8AA3625F7F4FB5
:102E900042E050E0CE0146960E940C2B6FA978AD1F
:102EA0006D5F7F4F4AE050E0CE0148960E940C2BA8
:102EB0008AAD8BA36FA978AD6E5E7F4F42E050E084
:102EC000CE0184960E940C2BBE01655F7F4FA80146
:102ED000CE01DF91CF911F910F910C943815EF9295
:102EE000FF920F931F93CF93DF9300D01F92CDB724
:102EF000DEB78C01E62EFC0180858770F82EC801B4
:102F00000E94E309F2E0EF1230C0F8010789108D4A
:102F1000F801F680F394F68264817581CE01019602
:102F20000E9455124F2DBE016F5F7F4FC8010E9456
:102F30003117F8018281938161E070E002960E946E
:102F40004F11F8018281938140ED57E060E070E01D
:102F500088960E94BE0C0F900F900F90DF91CF913A
:102F60001F910F91FF90EF900895F5E0EF12F3CFCE
:102F7000F8018789908DF5E0FF120BC0CB960E9477
:102F800013128111E8CFF8018789908D0E942812D1
:102F9000E2CFFC018281938167E070E002960E949B
:102FA0004F11D9CF2F923F924F925F926F927F92A3
:102FB0008F929F92AF92BF92CF92DF92EF92FF9249
:102FC0000F931F93CF93DF93CDB7DEB7E3970FB681
:102FD000F894DEBF0FBECDBF8C017B0118AA1FA6DF
:102FE0001EA6BE01625D7F4FDC01D7968D919C913C
:102FF0000E947B112701B7E04B0E511CBE01625DA0
:103000007F4FC2010E94530AC82E882309F45FC073
:10301000F801C280D3805601F3E3AF0EB11CC501A5
:103020000E94E30B8AE090E0A0E0F60180AF91AF50
:10303000A2AF81E083AFB50180E593E00E94B90AB9
:103040008DE293E00E94DB09C7010E94940FD70133
:1030500012968C9186FD93C0D70114968C9114978B
:10306000F801878315968C911597808716968C9119
:103070001697818711968C911197828713968C9160
:1030800013971A96DC901A97813009F07AC31B9631
:103090003C90BAE03B1286C067A970AD6D5F7F4F70
:1030A0004AE050E0CE0101960E940C2B4AE050E02D
:1030B000BE016F5F7F4FC7010C960E94C830892BFD
:1030C00009F4E2C0D12CC12C32E0332E9EC0F701AE
:1030D0008081898381818A83B280BB82D380DC82B4
:1030E00084818D8385818E8386818F838781888784
:1030F0008085898781858A8782858B87A384AC8632
:103100008EE13C96DE011D9601900D928A95E1F7C5
:1031100068E473E0CE0108960E94530A882339F0D0
:10312000F1E0DF1204C02AE0A21609F471CFB2FE6A
:1031300005C080EC8D0D823008F46ACF85E293E003
:103140000E94DB09C7010E94940F8C2DE3960FB6F5
:10315000F894DEBF0FBECDBFDF91CF911F910F91CD
:10316000FF90EF90DF90CF90BF90AF909F908F90A7
:103170007F906F905F904F903F902F900895B70190
:103180006C5F7F4FC80107960E94530A882309F499
:1031900063CFD8011A969C91F701818198135CCF77
:1031A000C12CD3CFF1E03F12D0C0DD2009F48ACF8B
:1031B000F80182AD8D1508F485CFC5ACD6ACC7013A
:1031C0000E94700A4701FCE08F0E911C560128E016
:1031D000A20EB11C813009F076C0B401C5010E9475
:1031E000B213C5010E948C138F3F09F46DCF682F75
:1031F000C6010C960E94370344E050E0BC01C401B4
:103200000E94252B81E0F80181AFF701828185FFC3
:103210002DC0BE01625D7F4FC2010E94530A882308
:1032200029F1F1E03F12F9C2A7014C5F5F4FC114D1
:10323000D10409F4E1C2D8011296ED91FC9182A962
:103240009EE0F701908392E0938312823286D6014A
:103250001B969C919387148615868687B701C801B3
:103260000E943815F60182858E7F8287D8011296DA
:103270008D919C9142E350E060E070E088960E945E
:10328000BE0CCC24C39461CFD80112968D919C9131
:1032900061E070E002960E944F11F80182819381F3
:1032A00040ED57E060E070E088960E94BE0CD701C8
:1032B0004C91B7016C5F7F4FC8010E943117D12C30
:1032C000C12C312CA2CFD70150968C9150971C96CF
:1032D0009C911C9799831D969C911D979A831E968D
:1032E0009C919B838C83B401C5010E94B213BE01E3
:1032F0006F5F7F4FC5010E94B213C5010E948C13FE
:103300008F3F09F4E1CE3601BCE06B0E711C682FD3
:10331000C3010E94370344E050E0BC01C4010E9495
:10332000252BC5010E948C138F3F51F0682FC301DC
:103330000E94370344E050E0BC01CE01019660CF0B
:10334000B401C5010E94B213BFCEF2E03F1237C0F4
:10335000DD2009F4B7CED801DA968C91DA978D1575
:1033600008F4B0CEDD96CD90DC905601B8E0AB0EFF
:10337000B11CB701645F7F4FC5010E94B213982E44
:10338000C7010E94700A823081F4F7018089948518
:10339000998395859A8396859B838C83BE016F5F05
:1033A0007F4FC5010E94B2139822992009F42DCFB6
:1033B00081E0D801D9968C933324339426CFB3E09F
:1033C0003B1270C0DD2009F4F0C0F80192AD9D15EC
:1033D00008F475CF65AC76ACD70111969C91119726
:1033E00014962C9114972BA715962C9115972CA712
:1033F00016962C912DA75801BBE0AB0EB11C2AE10B
:10340000238720E1268720E22587858B9487480142
:10341000E6E18E0E911C6401212C312CF8E06F0E38
:10342000711C26E0221641F1422DB301CE01019616
:103430000E947413CE0101960E94440A8823D1F0A1
:10344000339484E0FE013196D60101900D928A9565
:10345000E1F784E0C80ED11C94E039120BC0AE0134
:10346000455D5F4FB501C8010E9438156401312CDC
:10347000882311F02394D5CF84E0D6011D928A953C
:10348000E9F7832D880F880F825FF8018387858590
:103490008F7D8587AE01455D5F4FB501C8010E94F4
:1034A00038150DCFF4E03F1282C0D70150962C9111
:1034B000A701445F5F4F6D2DC8010E94301429831E
:1034C0003A834B835C836D837E838F83E981FA81AA
:1034D000FBABEAAB22E0322EEF2B09F4B8C0D701E8
:1034E00011968C91119714969C9114979BA7159601
:1034F0009C9115979CA716969C919DA73801BBE0BF
:103500006B0E711C9AE1F801938790E1968790E227
:10351000958792E0958B84871801F6E12F0E311C78
:103520006101B12CA12C19AA8B818A151B0451F1C0
:103530004CF1EC81FD818A2D0995D6018C934601D1
:10354000B2E08B0E911C8AA99BA98A0D9B1D0E943B
:10355000E911F6018183F9A9FF5FF9ABF83059F45D
:10356000AE01455D5F4FB301C8010E943815882345
:1035700039F0410119AA2FEFA21AB20A6401D4CF7F
:10358000610119AAD6011C9211961C9289A98A5F21
:10359000880FF801838785858F7D8587AE01455D1E
:1035A0005F4FB301C8010E943815312C50C0FEE0B6
:1035B0003F122CC0D801DD96CD90DC90DE97F7014C
:1035C00021811296ED91FC9182A9D6011B969C91C6
:1035D000F801338630E1368736E0358B2487968BC9
:1035E000178A108E818F82E08587A7014C5F5F4F1D
:1035F000B801655F7F4FC8010E943815D6011A9641
:103600008C911A978E7F1A968C9359CEB5E03B1207
:1036100021C0F801D7AED70150962C91A701445F85
:103620005F4F6D2DC8010E943014F801E05CFF4F20
:103630002083319630833196408331965083319682
:103640006083319670833196808333243394D12CF8
:10365000C12CDBCDB6E03B1232C0F80181AFE05C9B
:10366000FF4F20813181D801DB968D919C91DC97B1
:103670002817390781F412968D919C9170E060E0D3
:1036800002960E944F11D801ED91FC910480F581C2
:10369000E02DC80109958FEFF80187AF8AE0D701C7
:1036A0008C9382E013968C93139712968C931297B7
:1036B0001A961C92A7014C5F5F4FB701EFCEB8E09E
:1036C0003B123FC0F80187AD8D11BFCF4801F0E438
:1036D0008F0E911CD4018D919C91892B09F4B5CF4B
:1036E000F70180818B3008F48BE095EF392E380E8E
:1036F0005701FCE0AF0EB11C6501380125E4620EF4
:10370000711C8C2D8A19831508F09FCFD601119654
:103710002C90D301ED91FC91D6018C9109958F3FAE
:1037200061F0F40160817181680F711D298241E0AF
:1037300050E0CE0101960E94252BF2E0CF0ED11C65
:10374000E0CF29E03212BECCD70111968C9194E1E2
:10375000F801938790E196871586158A8487168AE3
:1037600067A970AD6D5F7F4F4AE050E0C801469693
:103770000E940C2BA7014C5F5F4FB801655F7F4F24
:103780008DCE813179F5F4E0DF1619F02AECD212F2
:1037900096CD8AE0D7018C9382E013968C93139791
:1037A00012961C9212971A961C92A7014C5F5F4FBB
:1037B000B701C8010E943815BAECDB120FC080E1D6
:1037C00093E00E94DD0988E19CE00FB6F894A8958B
:1037D000809360000FBE90936000FFCFC8010E94ED
:1037E00028126DCD823109F06DCC8BE193E00E94FF
:1037F000DD09D12CC12CE0CD8AE0D7018C9382E089
:1038000013968C93139712961C9212971A961C92E9
:10381000B701C8010E94381529CDB2E03B1226CD70
:103820008AE0F70180833382128280E88287A701D1
:103830004C5F5F4FEDCF2F923F924F925F926F920E
:103840007F928F929F92AF92BF92CF92DF92EF9230
:10385000FF920F931F93CF93DF93CDB7DEB72D97D2
:103860000FB6F894DEBF0FBECDBF8C017B876A8791
:1038700080E89AE2D801DB969C938E93DA977801E0
:10388000BDE4EB0EF11CF701148213821282118247
:103890008081882309F470C06701F5E0CF0ED11C48
:1038A000C6010E94F40D812C912C20ECA22E2FE752
:1038B000B22E882339F0F801EE5AFF4F84809580AC
:1038C000A680B780C6010E94F40D412C512C90ECCB
:1038D000692E9FE7792E882339F0F801EE5AFF4FC1
:1038E0004080518062807380A5019401C501B401BC
:1038F0000E94F52D811117C220E030E040E251E432
:10390000C501B4010E94382D0E941C2CD7011296CB
:103910007C936E9311978DE991E00E94DB09F7018A
:1039200061817281072E000C880B990B0E94BC0EDE
:1039300083ED91E00E94DB09A3019201C301B20172
:103940000E94F52D8111F2C120E030E040E251E407
:10395000C301B2010E94382D0E94232CD701149676
:103960007C936E93139781E691E00E94DB09F70147
:10397000838194810E94040FF801E25BFF4F8081F4
:103980009181D801D9969C938E93D8973296808155
:103990009181F80195AF84AF6801F8E4CF0ED11C96
:1039A000D60111961D921D921D921C9214978C9116
:1039B000882309F491C081E080937E028AE4809399
:1039C000A00210927F021092A10283E090E00E9478
:1039D0004E0884E593E00E94530840E061E08AE4E9
:1039E0000E94F006B82E1092510280935002B1E06E
:1039F0008B1372C084E593E00E94D8077C01B092DB
:103A00007E0210927F021092A10284E090E00E9458
:103A10004E0884E593E00E94530841E061E08AE4A7
:103A20000E94F0061092510280935002813009F0FA
:103A300053C084E593E00E94D807782E6E2D6295DE
:103A40006F7070E090E080E00E94542C9B01AC010C
:103A500060E070E080E090E40E94A52D4B015C01E5
:103A6000B70184E0660F771F8A95E1F77727872DE6
:103A70008F70682B072E000C880B990B0E94542C1A
:103A8000A50194010E94382D2CEE31E548E35DE359
:103A90000E94382D20E030E048EC52E40E94382D9E
:103AA00020E030E040E05FE30E943E2B0E948F2C3C
:103AB0000E94232CF601618372838383948388EBB5
:103AC00091E00E94DB09D60111966D917D918D9157
:103AD0009C9114970E940E0FF60181819281A3811F
:103AE000B481F801FE9680839183A283B383D801C9
:103AF0001896ED91FC91A281B38190968D919C9145
:103B0000D801AB5BBF4F8D939C9364E28481958118
:103B10000E94791261157105D1F0F80120AD31AD27
:103B2000C901860F971F91AF80AF8CE092E00E9491
:103B3000DB09D801D8966D917C91072E000C880B7B
:103B4000990B0E94BC0E83ED91E00E94DB09D80125
:103B50001896ED91FC9168E2848195810E9479121A
:103B60006115710591F0F80122AD33ADC901860FE1
:103B7000971F93AF82AF81EF91E00E94DB09D801DC
:103B8000DA968D919C910E94040FD8011896ED91C0
:103B9000FC916CE2848195810E9479126115710516
:103BA00091F0F80124AD35ADC901860F971F95AF8F
:103BB00084AF86ED91E00E94DB09D801DC968D91FF
:103BC0009C910E94040FD8011896ED91FC911997D1
:103BD00026812F5F2683DC968D919C9105966AE065
:103BE00070E00E94512F462F3801BEE06B0E711C11
:103BF000F801ED5BFF4F8081898791819C87D80117
:103C00001896ED90FC90D7011296ED91FC91D80199
:103C1000AB5BBF4F8C918D8711962C9011971397AA
:103C20003C9014974C9011965C90119712968C9042
:103C3000129713969C90D801DA96DC90DA97DB966F
:103C4000CC90DB97D896BC90D897D9963C913F778B
:103C5000A68C80A191A164E670E00E94512FA61667
:103C6000170611F008F03068822F64E10E94452F9A
:103C700082E2923009F084E097E1F801968790E7BC
:103C8000918B808B308F2787B18EC28ED38E448FDD
:103C9000958E868E578E40A231A222A29D8593A337
:103CA000AC85A4A3B985B5A382FF45C08F7C846091
:103CB000808B48E453E0B301C7010E943815D80156
:103CC0001896ED91FC91848195810E94CE129C0101
:103CD000A4E6B0E00E94872FF8016583768387838E
:103CE000B8018A859B850E94B90AF801E95BFF4FFC
:103CF00081E080832D960FB6F894DEBF0FBECDBF56
:103D0000DF91CF911F910F91FF90EF90DF90CF90B7
:103D1000BF90AF909F908F907F906F905F904F90EB
:103D20003F902F9008958CE791E004CE83E491E0DA
:103D30000E94DB0921CED12CC12C412C5801E8E096
:103D4000AE0EB11C4801F2E18F0E911C86E0C81640
:103D5000D10409F4A4C04C2DB501CE0105960E94F2
:103D60007413CE0105960E94440A382E882309F464
:103D70006AC0512C452DB501CE0101960E947413E5
:103D8000BE016F5F7F4FCE0105960E94530A8111DD
:103D900006C0539496E05912EDCF55245A945C1402
:103DA0001D040CF450C01B821A821982BE016F5F81
:103DB0007F4FD701D7968D919C910E947B11BE01B8
:103DC0006F5F7F4FCE0105960E94530A882309F446
:103DD00048C0B401F70187A990AD0E947B11D801BA
:103DE00052968C91529755968C93559753968C91E9
:103DF000539756968C93569754968C915497579602
:103E00008C9368E473E0C4010E94530A882329F06C
:103E1000F80180898F7D8460808BD80150968C91C9
:103E2000509785FF14C08F7D50968C93D701ED91EC
:103E3000FC910680F781E02DB301C7010995F801D7
:103E400080898062808BBFEFCB1ADB0A7FCFD701DE
:103E5000ED91FC910680F781E02DB301C701099532
:103E6000F2CFAE014B5F5F4FB501CE0101960E94CC
:103E7000F41389819A810E94E911F801908980FFE9
:103E80000BC09061908BAE014B5F5F4FB301C701D8
:103E90000E943815432CD7CF9F7E908BF4CF4110D2
:103EA0000ECFF70164817581CE0101960E945512F3
:103EB000AE014F5F5F4FFFCE1F920F920FB60F9272
:103EC00011242F933F934F935F936F937F938F931F
:103ED0009F93AF93BF93EF93FF9382EA92E00E9488
:103EE000C503FF91EF91BF91AF919F918F917F910A
:103EF0006F915F914F913F912F910F900FBE0F9057
:103F00001F9018951F920F920FB60F9211242F93A6
:103F10008F939F93EF93FF93E091B202F091B302DE
:103F20008081E091B802F091B90282FD1BC09081BE
:103F30008091BB028F5F8F732091BC02821741F08A
:103F4000E091BB02F0E0EE55FD4F958F8093BB02F0
:103F5000FF91EF919F918F912F910F900FBE0F9036
:103F60001F9018958081F4CF1F920F920FB60F9279
:103F700011242F933F938F939F93AF93BF9380917F
:103F8000EE019091EF01A091F001B091F10130911B
:103F9000ED0126E0230F2D3758F50296A11DB11D26
:103FA0002093ED018093EE019093EF01A093F00137
:103FB000B093F1018091F2019091F301A091F4018D
:103FC000B091F5010196A11DB11D8093F20190936E
:103FD000F301A093F401B093F501BF91AF919F91CC
:103FE0008F913F912F910F900FBE0F901F901895BA
:103FF00029E8230F0396A11DB11DD2CF1F920F9266
:104000000FB60F9211242F933F934F935F936F93AB
:104010007F938F939F93AF93BF93EF93FF93E09121
:104020000201F09103010995FF91EF91BF91AF91CA
:104030009F918F917F916F915F914F913F912F91C0
:104040000F900FBE0F901F9018951F920F920FB6F2
:104050000F9211242F933F934F935F936F937F930E
:104060008F939F93AF93BF93EF93FF93E0910001E2
:10407000F09101010995FF91EF91BF91AF919F914F
:104080008F917F916F915F914F913F912F910F9001
:104090000FBE0F901F9018951F920F920FB60F92A0
:1040A00011242F933F934F935F936F937F938F933D
:1040B0009F93AF93BF93EF93FF938091B900887F55
:1040C000803609F44AC0F0F5883209F4A7C018F523
:1040D000803109F49BC0B8F4882309F4F9C0883012
:1040E00009F494C0FF91EF91BF91AF919F918F918F
:1040F0007F916F915F914F913F912F910F900FBEE4
:104100000F901F901895883109F488C0803251F7BC
:104110008093760214C0803409F49DC040F480334B
:10412000B9F38833F9F68093760285ECB0C0803518
:1041300009F485C0883509F496C0883499F60E9440
:104140000211D0CF883909F48CC038F5883729F0AE
:1041500050F4883611F0803729F683E08093780296
:104160001092EC0157C0883809F47BC0803919F0EF
:10417000803809F0B7CF8091EC01803208F071C02F
:10418000E091EC0181E08E0F8093EC018091BB0007
:10419000F0E0E453FE4F80833DC0803B39F0E0F413
:1041A000803A09F479C0883A09F09CCF84E0809382
:1041B00078021092CB011092CA01E0914E02F09168
:1041C0004F0209958091CA0181110FC081E080934F
:1041D000CA011092AA0109C0803C09F4A6CF883C0C
:1041E00009F4A3CF883B09F07DCFE091CB0181E0BA
:1041F0008E0F8093CB01F0E0E655FE4F80818093D7
:10420000BB009091CB018091CA0129C080915302DB
:104210008093BB0085EC8093BC0064CF90917502C5
:1042200080917402981758F5E091750281E08E0F25
:1042300080937502F0E0EC5AFD4F8081E9CFE09168
:10424000750281E08E0F809375028091BB00F0E0D3
:10425000EC5AFD4F808390917502809174029817FB
:10426000C8F285E8D8CFE091750281E08E0F809387
:1042700075028091BB00F0E0EC5AFD4F8083809185
:10428000770281115CCF81E08093520284EA8093AF
:10429000BC001092780226CF85EC8093BC0010926F
:1042A00078028091EC01803230F4E091EC01F0E092
:1042B000E453FE4F10826091EC0170E0E0914C02FB
:1042C000F0914D028CEC91E009951092EC010ACF2F
:1042D0001092760234CF1F920F920FB60F921124D4
:1042E0008F930FB6F894A8958091600088618093B1
:1042F0006000109260000FBE8F910F900FBE0F9064
:104300001F9018951F920F920FB60F9211242F93A2
:104310003F934F935F936F937F938F939F93AF934D
:10432000BF93CF93DF93EF93FF93CFE3D3E060E0AE
:1043300089810E94C1041092B1006A817B818C81C5
:104340009D810E94232C6093B30081E08E83FF91B6
:10435000EF91DF91CF91BF91AF919F918F917F911D
:104360006F915F914F913F912F910F900FBE0F90E2
:104370001F9018951F920F920FB60F9211240F9055
:104380000FBE0F901F9018951F920F920FB60F92AD
:1043900011242F933F934F935F936F937F938F934A
:1043A0009F93AF93BF93EF93FF93EBE4F3E084818C
:1043B0008F5F8483CF010E94310DFF91EF91BF91F8
:1043C000AF919F918F917F916F915F914F913F91AD
:1043D0002F910F900FBE0F901F9018951F920F9264
:1043E0000FB60F9211242F933F934F935F936F93C8
:1043F0007F938F939F93AF93BF93EF93FF9380E54A
:1044000093E00E94310DFF91EF91BF91AF919F9189
:104410008F917F916F915F914F913F912F910F906D
:104420000FBE0F901F9018951F920F920FB60F920C
:1044300011242F933F934F935F936F937F938F93A9
:104440009F93AF93BF93CF93EF93FF9399B1C09195
:10445000F8018091280230912502292F20952323ED
:104460008923822B20916D00C927C223C8239093F2
:10447000F801CC23C1F1C0FF05C0E091F901F09132
:10448000FA010995C1FF05C0E091FB01F091FC0123
:104490000995C2FF05C0E091FD01F091FE0109956B
:1044A000C3FF05C0E091FF01F09100020995C4FF30
:1044B00005C0E0910102F09102020995C5FF05C017
:1044C000E0910302F09104020995C6FF05C0E09156
:1044D0000502F09106020995C7FF05C0E0910702A9
:1044E000F09108020995FF91EF91CF91BF91AF91A3
:1044F0009F918F917F916F915F914F913F912F91FC
:104500000F900FBE0F901F9018951F920F920FB62D
:104510000F9211242F933F934F935F936F937F9349
:104520008F939F93AF93BF93CF93EF93FF9396B1E6
:10453000C09109028091290230912602292F2095ED
:1045400023238923822B20916C00C927C223C823EF
:1045500090930902CC2351F1C0FF05C0E0910A02FB
:10456000F0910B020995C1FF05C0E0910C02F0919A
:104570000D020995C2FF05C0E0910E02F0910F02F5
:104580000995C3FF05C0E0911002F0911102099551
:10459000C4FF05C0E0911202F09113020995C5FF16
:1045A00005C0E0911402F09115020995FF91EF9179
:1045B000CF91BF91AF919F918F917F916F915F91BB
:1045C0004F913F912F910F900FBE0F901F90189514
:1045D0001F920F920FB60F9211242F933F934F9378
:1045E0005F936F937F938F939F93AF93BF93CF937B
:1045F000EF93FF9393B1C091180280912A023091FA
:104600002702292F209523238923822B20916B00B9
:10461000C927C223C82390931802CC2351F1C0FFAD
:1046200005C0E0911902F0911A020995C1FF05C079
:10463000E0911B02F0911C020995C2FF05C0E091B8
:104640001D02F0911E020995C3FF05C0E0911F02F3
:10465000F09120020995C4FF05C0E0912102F0917C
:1046600022020995C5FF05C0E0912302F0912402C2
:104670000995FF91EF91CF91BF91AF919F918F914C
:104680007F916F915F914F913F912F910F900FBE4E
:104690000F901F901895CF92DF92EF92FF921F9389
:1046A000CF93DF93E2EAF2E01382128288EE93E086
:1046B000A0E0B0E084839583A683B7832EE031E049
:1046C0003183208325EC30E03587248724EC30E0EB
:1046D0003787268720EC30E0318B208B21EC30E0CF
:1046E000338B228B22EC30E0358B248B26EC30E0B0
:1046F000378B268B118E128E138E148E24E5E22EAC
:1047000023E0F22EF7011382128284839583A6831D
:10471000B78380E291E09183808310924603E8E4BE
:10472000F3E0128211821082E0E5F3E01182108240
:1047300013821282EBE4F3E0118210821382128260
:104740001482EEE1F4E0158214821782108611863D
:1047500086E891E093838283128A138A148A158AE9
:1047600011E010932404118E108E10923804138ED1
:10477000148E158E168E178E11A210A212A213A2DD
:1047800014A215A28AE791E0978B868B88EC90E0C3
:1047900097A386A313A612A615A616A617A680E7AA
:1047A00091E091A780A710AA10934A0412AA16AA12
:1047B00015AA10AE11AE12AE86E691E094AB83ABB3
:1047C00013AE1093550488E084AF8BE594E00E940B
:1047D000360AC9E7D3E082E491E0998388831B829B
:1047E0001A8284EB93E09D838C831E82198618863F
:1047F0001F821A8684E893E00E94360A80E290E0E5
:104800009EAB8DAB2EEB35E038AF2FAB19AE1AAFA8
:104810009CAF8BAF8FEF8FAF1092BA031092B9039A
:104820001092BB031092BD031092BC031092BF0301
:104830001092BE038EE491E0998388831092C9039D
:104840001092C803EAECF3E080818E7F8D7F808335
:104850001092CB031092CD031092CC031092C3039D
:104860001092C2031092C40380E797E1A0E0809306
:10487000C5039093C603A093C70330ECC32E33E067
:10488000D32E88E391E0F601918380838EEC93E050
:104890000E94360A1092F9031092F8031092FB035B
:1048A0001092FA031092FD031092FC031092FE0383
:1048B0001092FF031092000410920104109202045F
:1048C000109204041092030410920604109205043E
:1048D00010930704109208041092090410920A041D
:1048E00010920B0410920C0410920D0410920F04FD
:1048F00010920E04109211041092100410921D04D4
:1049000010921C04F0921B04E0921A0480E090E0E4
:10491000A0ECBFE78093120490931304A0931404B7
:10492000B09315048093160490931704A093180471
:10493000B0931904DEAECDAE8AE591E09983888309
:10494000E0E6F3E01382128210926403158216826D
:104950001782A8E6B3E08C91887F816088608C9391
:1049600011861786168610927003118A128A138A8E
:1049700082E391E095878487F58BE48B80E991E071
:1049800091838083D08FC78B8CE291E0938782875D
:10499000DF91CF911F91FF90EF90DF90CF9008951E
:1049A000CF93DF93CDB7DEB72A970FB6F894DEBF6B
:1049B0000FBECDBF789484B5826084BD84B581601C
:1049C00084BD85B5826085BD85B5816085BD8091DA
:1049D0006E00816080936E00109281008091810052
:1049E000826080938100809181008160809381004A
:1049F000809180008160809380008091B10084600C
:104A00008093B1008091B00081608093B00080916C
:104A10007A00846080937A0080917A00826080932B
:104A20007A0080917A008E7F80937A0080917A005C
:104A3000806880937A001092C100E091B202F091F8
:104A4000B30282E08083E091AE02F091AF02108267
:104A5000E091B002F091B10280E180831092BA023D
:104A6000E091B602F091B70286E08083E091B40253
:104A7000F091B502808180618083E091B402F09171
:104A8000B502808188608083E091B402F091B50224
:104A9000808180688083E091B402F091B5028081CA
:104AA0008F7D80838EE295E00E94DD09C090B40383
:104AB000D090B50326E1C20ED11C712C332433945F
:104AC00054EF452E55245394612C8091B3037816EE
:104AD00008F0E5C0E72DF0E0EE0FFF1FE758FC4FB0
:104AE00005AD16AD739489E793E0F801918780874F
:104AF0007386D586C4860E94C8054AE0F42E30929B
:104B00007E029AE49093A00210927F021092A1027A
:104B100084E593E00E9453088111A7C0F801E85B87
:104B2000FF4F308230927E0210927F021092A102DB
:104B300082E090E00E944E0883E090E00E944E08E0
:104B400084E593E00E94530889E894E00E94DD091F
:104B50000E94C8052AE0222E5801E2E5AE0EB11CE3
:104B6000C801835B9F4F9A8789874C0195E0890E26
:104B7000911CF50182859385009711F00E943F30CA
:104B800086E090E00E94A32F7C01F501808591854D
:104B900024E4F701208392838183138280E290E0F2
:104BA00095838483F501F386E2860E94C805F701A8
:104BB0003382C7010E945608882309F462C062EA62
:104BC00070E3C4010E94BD0D6AE070E080E090E0F7
:104BD0000E9450056DE273EFC4010E94BD0D43E0D9
:104BE00050E0BE016F5F7F4FF501828593850E9483
:104BF0007E0D89819A81019609F443C0E985FA8581
:104C000030828FEA94E00E94DD0966E670E3C40119
:104C10000E94BD0D61E070E080E090E00E945005D0
:104C200086ED94E00E94DD098DEC94E00E94DB09A2
:104C30004AE050E068E971E082EA92E00E944703AE
:104C40008BEB94E00E94DB098EEB94E00E94DD097F
:104C5000F801458256826782B80180E593E00E94A0
:104C6000B90AFFE1CF0ED11C30CF64E670E080E0DE
:104C700090E00E945005FA94F11041CF8FE694E045
:104C800065CF64E670E080E090E00E9450052A94D1
:104C900021106FCF88E994E00E94DD09C1CF8FE534
:104CA00094E00E94DB096091AE037091AF0390E045
:104CB00080E04AE00E946E0E8BE594E00E94DB09E2
:104CC000E091B603F091B703848595854F960E94D5
:104CD000040F60E090E080E00E94240A8C0185E4EB
:104CE000E82E84E0F82E9BE5C92E94E0D92EF7013A
:104CF0006491C8010E94240A8C01FFEFEF1AFF0A99
:104D0000CE14DF04A1F7FF24F3948091B3038F1531
:104D1000E8F080E00E946709682FC8010E94240A19
:104D20008C0180E00E943503682FC8010E94240A8C
:104D30008C0180E00E945B09682FC8010E94240A50
:104D400066E00E94240A8C01F394DFCF44E050E037
:104D500070E060E0CE0105960E94152B30E020E067
:104D60002E6F3A6C09831A832B833C836D817E817D
:104D70008F819885061717072807390709F487C018
:104D80000E94081083E394E00E94DB0986E394E02C
:104D90000E94DB0969817A818B819C810E940810C5
:104DA00083E394E00E94DB0944E050E070E060E0BF
:104DB000CE0101960E94252B66E170E08091B4033C
:104DC0009091B5030E94961085E00E94140A8F3FCF
:104DD000C9F0082F10E08091B4039091B503800FC3
:104DE000911F0E94E9116091B4037091B503600FA7
:104DF000711F8F738064898341E050E0CE0101967A
:104E00000E94252B66E182E10E94581066E084E151
:104E10000E94581062E080E20E945810882321F01E
:104E200068E581E20E94581060E082E20E9458101A
:104E3000882321F060E083E20E94581084E20E94FF
:104E4000781088E20E9478108CE20E94781010E0BE
:104E50008091B3031817D8F4E12FF0E0EE0FFF1F95
:104E6000E758FC4FE5ACF6AC6FE170E0F7018485E4
:104E700095850E949610F70164857585198241E039
:104E800050E0CE0101960E94252B1F5FE1CF8EE1FD
:104E900094E090937C0380937B031B821A82198297
:104EA000BE016F5F7F4F8091B0039091B1030E946C
:104EB0007B1184E08093320461E00E94EF0480E281
:104EC00094E00E946D09E89886E493E090930101D4
:104ED000809300018FE494E09093F7018093F601B2
:104EE0008BE294E00E94DB0960E082E00E94EF0424
:104EF00089E294E00E94DD0961E08AE00E94EF040B
:104F000061E08BE00E94EF0460E08CE00E94EF041F
:104F100061E08DE00E94EF0480E58CBD61E08AE0F5
:104F20000E94C10461E08DE00E94C10460E08BE05A
:104F30000E94C1040E94DD080E94D7080E94D30885
:104F4000F5E8FA95F1F700000E94DD080E94D70805
:104F500080E30E94CD080E94D7080E94D30805EF85
:104F600013E0A9E2CA2EA4E0DA2EFF24F394F8019C
:104F700031966491F801849143E00E94B910811147
:104F800001C0F12C0E5F1F4FC016D10681F788EECD
:104F900093E00E94DB0960EC81E30E94F9080E9423
:104FA000F30E8DE995E00E94DB0983E30E94E1089E
:104FB0008FEA93EB0197F1F700C0000043E060EC4B
:104FC0008EE30E94B9108FED93E00E94DD09FF206F
:104FD00059F00E94DD080E94D7080E94D3080E9461
:104FE000F00884E30E94E10883E999E090930101CD
:104FF00080930001809169008C7F826080936900BA
:10500000E89A80E1809381001092800010928500E0
:105010001092840080E49CE990938700809386003E
:1050200081E1809381000E94410966E070E0F11007
:1050300002C068E070E080E294E00E944F118B8132
:1050400090E001962AE0289F8001299F100D1124ED
:1050500081E594E00E94E30B24E630E0D8010E9451
:10506000962F28EE33E040E050E00E94652F209319
:105070005604309357044093580481E080935904B8
:1050800061E574E080E593E00E94B90A61E089E09F
:105090000E94EF0460E089E00E94C10460E08EE0BD
:1050A0000E94EF0460E08EE00E94C10480914404FD
:1050B00090914504813D974030F080ED97E09093CA
:1050C00045048093440487E880937A0010927B0023
:1050D000E0913404F09135040680F781E02D84E3FB
:1050E00094E0099590933F0480933E0480E09BEE0A
:1050F000A1E4B0E08093400490934104A093420463
:10510000B09343048093390490933A04A0933B04F2
:1051100064E374E080E593E00E94B90A86E180933D
:105120003C048CEC93E00E94DB0980913C040E94DB
:10513000FD0F84E180933D0489EB93E00E94DB093D
:1051400080913D040E94FD0F8091AE03FCEFEF2E95
:10515000E80E855090E004960E94E911D82E00E0F8
:105160001EE58E2D8150990B7C01802F90E08E15CD
:105170009F0534F404960E94E91118270F5FF5CFBC
:105180001D112BC084E090E00E94E911182F85E0EA
:1051900090E00E94E911082F80EA810F8B30E8F43B
:1051A00087EA93E00E94DB09812F0E94F30E802F93
:1051B0000E94F30E8DE995E00E94DB0943E061E275
:1051C0008DE00E94B91043E0612F8EE00E94B9107B
:1051D00043E0602F8FE00E94B91088E0809369035C
:1051E00062E00E94EF04E2E2F5E08491EEE0F5E097
:1051F0009491923009F0C4C020912A02282B209368
:105200002A0220912702282B20932702EAEFF4E0BC
:10521000A491923009F0C2C0B0E0AA0FBB1FA75EF4
:10522000BD4F24EB3CE02D933C93ECEEF4E0A591D4
:10523000B4919C91909318022BE630E030931702C2
:105240002093160290916800916090936800A0915D
:105250001602B0911702EC918E2B8C9381E0809313
:10526000B20389E793E00E94E7129091B30381E0D3
:10527000981708F0CCC016E00EE040E1B42E52E2E0
:10528000A52EE12C0E94130DF82E8111C2C0E11051
:1052900004C00E94130D8111BEC080917B039091C8
:1052A0007C03FC0124AD22FF23C064E873E0C196B7
:1052B0000E948F148A30E0F01B821A821982BE018C
:1052C0006F5F7F4F8091B0039091B1030E947B117B
:1052D000BE016F5F7F4F88E893E00E94530A8111FF
:1052E00007C064E873E089E793E00E94D217F82EC4
:1052F000992493948091B303891508F48EC0C090CB
:10530000B603D090B703F601828580FB882480F82D
:1053100080FF34C0F0907F03F394F0927F0360919C
:105320007D0370917E03CE0101960E945512E0919B
:105330007B03F0917C0382A9F6019385009384039B
:10534000B0928703A092860310938E03F092850398
:1053500090938F0310929003109291038093920385
:10536000AE014F5F5F4F64E873E089E793E00E940E
:105370003815F60182858E7F8287F82C9394BACFF8
:10538000933009F037C120912902282B209329025C
:1053900020912602282B2093260238CF9330D1F477
:1053A000B0E0AA0FBB1FA65FBD4F24EB3CE02D93DE
:1053B0003C93EEEEF4E0A591B4919C919093090298
:1053C0002CE630E03093170220931602909168008B
:1053D00092603BCF943009F03ACFB0E0AA0FBB1FE8
:1053E000A750BE4F24EB3CE02D933C93E0EFF4E05C
:1053F000A591B4919C919093F8012DE630E0309303
:105400001702209316029091680094601ECF8F5F60
:105410002FCFEF2C37CFE82E3CCFE110B4C0F110E6
:10542000B2C080913E0490913F0464E670E00E9417
:10543000512F80913D0486171706C9F0C0F0809166
:105440005A0480FD07C00E943A1180915A0481607D
:1054500080935A040E949E0930E020E050E040E032
:105460006AE070E08BE292E00E947F08F3CF8091C7
:105470004E048111B9C00E949E0980916F008E7FF9
:1054800080936F0080E593E00E94940A009709F4EE
:1054900087C0FC01329709F483C0C580D680E780BD
:1054A000F12C82E593E00E94940A892B09F069C0EF
:1054B000F1E0CF16D104E104F10409F462C0809157
:1054C0005A0480FD07C00E943A1180915A048160FD
:1054D00080935A0421E2C21623E0D206E104F104CB
:1054E00008F062C085E6C816D104E104F10408F0B2
:1054F00064C09DE0C916D104E104F10408F065C060
:10550000E2E0CE16D104E104F10408F066C06AE0DE
:1055100070E0C12CD12C760130E020E050E040E07A
:105520008BE292E00E947F0880E593E00E94940A5B
:10553000009719F1FC01329701F121E0C21AD1085C
:10554000E108F10885819681A781AC016A2F70E09E
:1055500041505109610971094C155D056E057F05C2
:1055600030F46C01EA2E21E0C21AD108E1088C194E
:105570009D09AE0985839683A78380E593E00E9409
:10558000310D0E94410980E090E0892B09F479CE29
:105590000E94B103882309F474CE0E94000071CEEA
:1055A000C12CD12C76017DCF69E070E030E2C32EB2
:1055B00033E0D32EE12CF12CAFCF66E070E024E68F
:1055C000C22ED12CE12CF12CA7CF63E070E09CE03F
:1055D000C92ED12CE12CF12C9FCF70E060E0C12CC2
:1055E000D12C7601C39498CF61E08FE494E00E94BF
:1055F0007609C9CF943009F009CE20912802282BD2
:105600002093280220912502282B20932502FECDED
:1056100089E793E00C940C0AFB01DC0102C00590C1
:105620000D9241505040D8F70895DC01CB01FC01A8
:10563000F999FECF06C0F2BDE1BDF89A319600B4EB
:105640000D9241505040B8F70895DC01CB0103C0E2
:105650002D910E94302B41505040D0F70895262FB5
:10566000F999FECF1FBA92BD81BD20BD0FB6F89447
:10567000FA9AF99A0FBE019608955058BB27AA27A7
:105680000E94552B0C94E62C0E94D82C38F00E94D6
:10569000DF2C20F039F49F3F19F426F40C94D52C1C
:1056A0000EF4E095E7FB0C94A62CE92F0E94F72C52
:1056B00058F3BA17620773078407950720F079F447
:1056C000A6F50C94312D0EF4E0950B2EBA2FA02DDB
:1056D0000B01B90190010C01CA01A0011124FF279F
:1056E000591B99F0593F50F4503E68F11A16F0409A
:1056F000A22F232F342F4427585FF3CF4695379599
:105700002795A795F0405395C9F77EF41F16BA0B5D
:10571000620B730B840BBAF09150A1F0FF0FBB1F0B
:10572000661F771F881FC2F70EC0BA0F621F731F54
:10573000841F48F4879577956795B795F7959E3FB1
:1057400008F0B0CF9395880F08F09927EE0F979542
:10575000879508950E94BE2B0C94E62C0E94DF2CA6
:1057600058F00E94D82C40F029F45F3F29F00C94A7
:10577000A62C51110C94322D0C94D52C0E94F72C90
:1057800068F39923B1F3552391F3951B550BBB2770
:10579000AA2762177307840738F09F5F5F4F220FB5
:1057A000331F441FAA1FA9F335D00E2E3AF0E0E8AC
:1057B00032D091505040E695001CCAF72BD0FE2FF6
:1057C00029D0660F771F881FBB1F2617370748078A
:1057D000AB07B0E809F0BB0B802DBF01FF27935842
:1057E0005F4F3AF09E3F510578F00C94A62C0C9434
:1057F000322D5F3FE4F3983ED4F386957795679515
:10580000B795F7959F5FC9F7880F911D9695879576
:1058100097F90895E1E0660F771F881FBB1F621795
:1058200073078407BA0720F0621B730B840BBA0B53
:10583000EE1F88F7E09508950E94232C6894B1111B
:105840000C94322D08950E94FF2C88F09F5798F0F9
:10585000B92F9927B751B0F0E1F0660F771F881F75
:10586000991F1AF0BA95C9F714C0B13091F00E948F
:10587000312DB1E008950C94312D672F782F8827B2
:10588000B85F39F0B93FCCF3869577956795B395B6
:10589000D9F73EF490958095709561957F4F8F4F25
:1058A0009F4F0895E89409C097FB3EF4909580952A
:1058B000709561957F4F8F4F9F4F9923A9F0F92FD6
:1058C00096E9BB279395F695879577956795B79554
:1058D000F111F8CFFAF4BB0F11F460FF1BC06F5F3A
:1058E0007F4F8F4F9F4F16C0882311F096E911C04C
:1058F000772321F09EE8872F762F05C0662371F06D
:1059000096E8862F70E060E02AF09A95660F771F80
:10591000881FDAF7880F9695879597F908950E9462
:10592000192D90F09F3748F4911116F00C94322DF8
:1059300060E070E080E89FEB089526F41B16611D7F
:10594000711D811D0C94AC2C0C94C72C97F99F678A
:1059500080E870E060E00895882371F4772321F0F7
:105960009850872B762F07C0662311F499270DC016
:105970009051862B70E060E02AF09A95660F771FB1
:10598000881FDAF7880F9695879597F908959F3FB6
:1059900031F0915020F4879577956795B795880FEA
:1059A000911D9695879597F908959FEF80EC08953E
:1059B00000240A94161617061806090608950024EE
:1059C0000A9412161306140605060895092E039468
:1059D000000C11F4882352F0BB0F40F4BF2B11F4DC
:1059E00060FF04C06F5F7F4F8F4F9F4F089557FD3B
:1059F0009058440F551F59F05F3F71F04795880F3D
:105A000097FB991F61F09F3F79F0879508951216D3
:105A100013061406551FF2CF4695F1DF08C016167F
:105A200017061806991FF1CF869571056105089430
:105A300008950E94FF2CA0F0BEE7B91788F4BB2799
:105A40009F3860F41616B11D672F782F8827985F4E
:105A5000F7CF869577956795B11D93959639C8F3DD
:105A60000895E894BB2766277727CB0197F9089517
:105A70000E944B2D0C94E62C0E94D82C38F00E94EA
:105A8000DF2C20F0952311F00C94A62C0C94D52C2F
:105A900011240C94322D0E94F72C70F3959FC1F3C2
:105AA000950F50E0551F629FF001729FBB27F00DCC
:105AB000B11D639FAA27F00DB11DAA1F649F662721
:105AC000B00DA11D661F829F2227B00DA11D621F70
:105AD000739FB00DA11D621F839FA00D611D221F2A
